{
	"MarketPlace.sol": {
		"NFTMarketplace": {
			"abi": [
				{
					"inputs": [],
					"name": "InvalidInitialization",
					"type": "error"
				},
				{
					"inputs": [],
					"name": "NotInitializing",
					"type": "error"
				},
				{
					"inputs": [
						{
							"internalType": "address",
							"name": "owner",
							"type": "address"
						}
					],
					"name": "OwnableInvalidOwner",
					"type": "error"
				},
				{
					"inputs": [
						{
							"internalType": "address",
							"name": "account",
							"type": "address"
						}
					],
					"name": "OwnableUnauthorizedAccount",
					"type": "error"
				},
				{
					"anonymous": false,
					"inputs": [
						{
							"indexed": false,
							"internalType": "uint64",
							"name": "version",
							"type": "uint64"
						}
					],
					"name": "Initialized",
					"type": "event"
				},
				{
					"anonymous": false,
					"inputs": [
						{
							"indexed": true,
							"internalType": "uint256",
							"name": "listingId",
							"type": "uint256"
						},
						{
							"indexed": true,
							"internalType": "address",
							"name": "seller",
							"type": "address"
						},
						{
							"indexed": true,
							"internalType": "uint256",
							"name": "tokenId",
							"type": "uint256"
						},
						{
							"indexed": false,
							"internalType": "uint256",
							"name": "price",
							"type": "uint256"
						}
					],
					"name": "NFTListed",
					"type": "event"
				},
				{
					"anonymous": false,
					"inputs": [
						{
							"indexed": true,
							"internalType": "uint256",
							"name": "listingId",
							"type": "uint256"
						},
						{
							"indexed": true,
							"internalType": "address",
							"name": "buyer",
							"type": "address"
						},
						{
							"indexed": false,
							"internalType": "uint256",
							"name": "price",
							"type": "uint256"
						}
					],
					"name": "NFTPurchased",
					"type": "event"
				},
				{
					"anonymous": false,
					"inputs": [
						{
							"indexed": true,
							"internalType": "uint256",
							"name": "listingId",
							"type": "uint256"
						},
						{
							"indexed": true,
							"internalType": "address",
							"name": "seller",
							"type": "address"
						},
						{
							"indexed": true,
							"internalType": "address",
							"name": "buyer",
							"type": "address"
						}
					],
					"name": "NFTTransferred",
					"type": "event"
				},
				{
					"anonymous": false,
					"inputs": [
						{
							"indexed": true,
							"internalType": "address",
							"name": "previousOwner",
							"type": "address"
						},
						{
							"indexed": true,
							"internalType": "address",
							"name": "newOwner",
							"type": "address"
						}
					],
					"name": "OwnershipTransferred",
					"type": "event"
				},
				{
					"anonymous": false,
					"inputs": [
						{
							"indexed": false,
							"internalType": "address",
							"name": "account",
							"type": "address"
						}
					],
					"name": "Paused",
					"type": "event"
				},
				{
					"anonymous": false,
					"inputs": [
						{
							"indexed": false,
							"internalType": "address",
							"name": "account",
							"type": "address"
						}
					],
					"name": "Unpaused",
					"type": "event"
				},
				{
					"inputs": [
						{
							"internalType": "uint256",
							"name": "_listingId",
							"type": "uint256"
						}
					],
					"name": "buyNFT",
					"outputs": [],
					"stateMutability": "payable",
					"type": "function"
				},
				{
					"inputs": [
						{
							"internalType": "address",
							"name": "_marketplaceFactory",
							"type": "address"
						}
					],
					"name": "initialize",
					"outputs": [],
					"stateMutability": "nonpayable",
					"type": "function"
				},
				{
					"inputs": [
						{
							"internalType": "address",
							"name": "_nftContract",
							"type": "address"
						},
						{
							"internalType": "uint256",
							"name": "_tokenId",
							"type": "uint256"
						},
						{
							"internalType": "uint256",
							"name": "_price",
							"type": "uint256"
						}
					],
					"name": "listNFT",
					"outputs": [],
					"stateMutability": "nonpayable",
					"type": "function"
				},
				{
					"inputs": [],
					"name": "listingCounter",
					"outputs": [
						{
							"internalType": "uint256",
							"name": "",
							"type": "uint256"
						}
					],
					"stateMutability": "view",
					"type": "function"
				},
				{
					"inputs": [
						{
							"internalType": "uint256",
							"name": "",
							"type": "uint256"
						}
					],
					"name": "listings",
					"outputs": [
						{
							"internalType": "address",
							"name": "nftContract",
							"type": "address"
						},
						{
							"internalType": "uint256",
							"name": "tokenId",
							"type": "uint256"
						},
						{
							"internalType": "address",
							"name": "seller",
							"type": "address"
						},
						{
							"internalType": "uint256",
							"name": "price",
							"type": "uint256"
						}
					],
					"stateMutability": "view",
					"type": "function"
				},
				{
					"inputs": [],
					"name": "marketplaceFactory",
					"outputs": [
						{
							"internalType": "address",
							"name": "",
							"type": "address"
						}
					],
					"stateMutability": "view",
					"type": "function"
				},
				{
					"inputs": [],
					"name": "owner",
					"outputs": [
						{
							"internalType": "address",
							"name": "",
							"type": "address"
						}
					],
					"stateMutability": "view",
					"type": "function"
				},
				{
					"inputs": [],
					"name": "pause",
					"outputs": [],
					"stateMutability": "nonpayable",
					"type": "function"
				},
				{
					"inputs": [],
					"name": "paused",
					"outputs": [
						{
							"internalType": "bool",
							"name": "",
							"type": "bool"
						}
					],
					"stateMutability": "view",
					"type": "function"
				},
				{
					"inputs": [],
					"name": "renounceOwnership",
					"outputs": [],
					"stateMutability": "nonpayable",
					"type": "function"
				},
				{
					"inputs": [
						{
							"internalType": "uint256",
							"name": "_listingId",
							"type": "uint256"
						},
						{
							"internalType": "address",
							"name": "_to",
							"type": "address"
						}
					],
					"name": "transferNFT",
					"outputs": [],
					"stateMutability": "nonpayable",
					"type": "function"
				},
				{
					"inputs": [
						{
							"internalType": "address",
							"name": "newOwner",
							"type": "address"
						}
					],
					"name": "transferOwnership",
					"outputs": [],
					"stateMutability": "nonpayable",
					"type": "function"
				},
				{
					"inputs": [],
					"name": "unpause",
					"outputs": [],
					"stateMutability": "nonpayable",
					"type": "function"
				}
			],
			"devdoc": {
				"errors": {
					"InvalidInitialization()": [
						{
							"details": "The contract is already initialized."
						}
					],
					"NotInitializing()": [
						{
							"details": "The contract is not initializing."
						}
					],
					"OwnableInvalidOwner(address)": [
						{
							"details": "The owner is not a valid owner account. (eg. `address(0)`)"
						}
					],
					"OwnableUnauthorizedAccount(address)": [
						{
							"details": "The caller account is not authorized to perform an operation."
						}
					]
				},
				"events": {
					"Initialized(uint64)": {
						"details": "Triggered when the contract has been initialized or reinitialized."
					},
					"Paused(address)": {
						"details": "Emitted when the pause is triggered by `account`."
					},
					"Unpaused(address)": {
						"details": "Emitted when the pause is lifted by `account`."
					}
				},
				"kind": "dev",
				"methods": {
					"owner()": {
						"details": "Returns the address of the current owner."
					},
					"paused()": {
						"details": "Returns true if the contract is paused, and false otherwise."
					},
					"renounceOwnership()": {
						"details": "Leaves the contract without owner. It will not be possible to call `onlyOwner` functions. Can only be called by the current owner. NOTE: Renouncing ownership will leave the contract without an owner, thereby disabling any functionality that is only available to the owner."
					},
					"transferOwnership(address)": {
						"details": "Transfers ownership of the contract to a new account (`newOwner`). Can only be called by the current owner."
					}
				},
				"version": 1
			},
			"evm": {
				"assembly": "    /* \"MarketPlace.sol\":1099:5805  contract NFTMarketplace is Initializable, OwnableUpgradeable, PausableUpgradeable, ReentrancyGuard {... */\n  mstore(0x40, 0x80)\n  callvalue\n  dup1\n  iszero\n  tag_1\n  jumpi\n  0x00\n  dup1\n  revert\ntag_1:\n  pop\n    /* \"@openzeppelin/contracts/security/ReentrancyGuard.sol\":1716:1717  1 */\n  0x01\n    /* \"@openzeppelin/contracts/security/ReentrancyGuard.sol\":1821:1828  _status */\n  0x32\n    /* \"@openzeppelin/contracts/security/ReentrancyGuard.sol\":1821:1843  _status = _NOT_ENTERED */\n  dup2\n  swap1\n  sstore\n  pop\n    /* \"MarketPlace.sol\":1099:5805  contract NFTMarketplace is Initializable, OwnableUpgradeable, PausableUpgradeable, ReentrancyGuard {... */\n  dataSize(sub_0)\n  dup1\n  dataOffset(sub_0)\n  0x00\n  codecopy\n  0x00\n  return\nstop\n\nsub_0: assembly {\n        /* \"MarketPlace.sol\":1099:5805  contract NFTMarketplace is Initializable, OwnableUpgradeable, PausableUpgradeable, ReentrancyGuard {... */\n      mstore(0x40, 0x80)\n      jumpi(tag_1, lt(calldatasize, 0x04))\n      shr(0xe0, calldataload(0x00))\n      dup1\n      0x8da5cb5b\n      gt\n      tag_15\n      jumpi\n      dup1\n      0xc4d66de8\n      gt\n      tag_16\n      jumpi\n      dup1\n      0xc4d66de8\n      eq\n      tag_11\n      jumpi\n      dup1\n      0xde74e57b\n      eq\n      tag_12\n      jumpi\n      dup1\n      0xf0c215bd\n      eq\n      tag_13\n      jumpi\n      dup1\n      0xf2fde38b\n      eq\n      tag_14\n      jumpi\n      jump(tag_1)\n    tag_16:\n      dup1\n      0x8da5cb5b\n      eq\n      tag_8\n      jumpi\n      dup1\n      0x9036c050\n      eq\n      tag_9\n      jumpi\n      dup1\n      0xad05f1b4\n      eq\n      tag_10\n      jumpi\n      jump(tag_1)\n    tag_15:\n      dup1\n      0x3f4ba83a\n      eq\n      tag_2\n      jumpi\n      dup1\n      0x51ed8288\n      eq\n      tag_3\n      jumpi\n      dup1\n      0x5c975abb\n      eq\n      tag_4\n      jumpi\n      dup1\n      0x6c2c9c7d\n      eq\n      tag_5\n      jumpi\n      dup1\n      0x715018a6\n      eq\n      tag_6\n      jumpi\n      dup1\n      0x8456cb59\n      eq\n      tag_7\n      jumpi\n    tag_1:\n      0x00\n      dup1\n      revert\n        /* \"MarketPlace.sol\":5735:5802  function unpause() external onlyOwner {... */\n    tag_2:\n      callvalue\n      dup1\n      iszero\n      tag_17\n      jumpi\n      0x00\n      dup1\n      revert\n    tag_17:\n      pop\n      tag_18\n      tag_19\n      jump\t// in\n    tag_18:\n      stop\n        /* \"MarketPlace.sol\":3985:4708  function buyNFT(uint256 _listingId) external payable whenNotPaused nonReentrant {... */\n    tag_3:\n      tag_20\n      0x04\n      dup1\n      calldatasize\n      sub\n      dup2\n      add\n      swap1\n      tag_21\n      swap2\n      swap1\n      tag_22\n      jump\t// in\n    tag_21:\n      tag_23\n      jump\t// in\n    tag_20:\n      stop\n        /* \"@openzeppelin/contracts-upgradeable/security/PausableUpgradeable.sol\":1879:1963  function paused() public view virtual returns (bool) {... */\n    tag_4:\n      callvalue\n      dup1\n      iszero\n      tag_24\n      jumpi\n      0x00\n      dup1\n      revert\n    tag_24:\n      pop\n      tag_25\n      tag_26\n      jump\t// in\n    tag_25:\n      mload(0x40)\n      tag_27\n      swap2\n      swap1\n      tag_28\n      jump\t// in\n    tag_27:\n      mload(0x40)\n      dup1\n      swap2\n      sub\n      swap1\n      return\n        /* \"MarketPlace.sol\":1767:1796  uint256 public listingCounter */\n    tag_5:\n      callvalue\n      dup1\n      iszero\n      tag_29\n      jumpi\n      0x00\n      dup1\n      revert\n    tag_29:\n      pop\n      tag_30\n      tag_31\n      jump\t// in\n    tag_30:\n      mload(0x40)\n      tag_32\n      swap2\n      swap1\n      tag_33\n      jump\t// in\n    tag_32:\n      mload(0x40)\n      dup1\n      swap2\n      sub\n      swap1\n      return\n        /* \"@openzeppelin/contracts-upgradeable/access/OwnableUpgradeable.sol\":3155:3256  function renounceOwnership() public virtual onlyOwner {... */\n    tag_6:\n      callvalue\n      dup1\n      iszero\n      tag_34\n      jumpi\n      0x00\n      dup1\n      revert\n    tag_34:\n      pop\n      tag_35\n      tag_36\n      jump\t// in\n    tag_35:\n      stop\n        /* \"MarketPlace.sol\":5550:5613  function pause() external onlyOwner {... */\n    tag_7:\n      callvalue\n      dup1\n      iszero\n      tag_37\n      jumpi\n      0x00\n      dup1\n      revert\n    tag_37:\n      pop\n      tag_38\n      tag_39\n      jump\t// in\n    tag_38:\n      stop\n        /* \"@openzeppelin/contracts-upgradeable/access/OwnableUpgradeable.sol\":2441:2585  function owner() public view virtual returns (address) {... */\n    tag_8:\n      callvalue\n      dup1\n      iszero\n      tag_40\n      jumpi\n      0x00\n      dup1\n      revert\n    tag_40:\n      pop\n      tag_41\n      tag_42\n      jump\t// in\n    tag_41:\n      mload(0x40)\n      tag_43\n      swap2\n      swap1\n      tag_44\n      jump\t// in\n    tag_43:\n      mload(0x40)\n      dup1\n      swap2\n      sub\n      swap1\n      return\n        /* \"MarketPlace.sol\":4800:5444  function transferNFT(uint256 _listingId, address _to) external whenNotPaused nonReentrant {... */\n    tag_9:\n      callvalue\n      dup1\n      iszero\n      tag_45\n      jumpi\n      0x00\n      dup1\n      revert\n    tag_45:\n      pop\n      tag_46\n      0x04\n      dup1\n      calldatasize\n      sub\n      dup2\n      add\n      swap1\n      tag_47\n      swap2\n      swap1\n      tag_48\n      jump\t// in\n    tag_47:\n      tag_49\n      jump\t// in\n    tag_46:\n      stop\n        /* \"MarketPlace.sol\":2858:3913  function listNFT(address _nftContract, uint256 _tokenId, uint256 _price) external whenNotPaused nonReentrant {... */\n    tag_10:\n      callvalue\n      dup1\n      iszero\n      tag_50\n      jumpi\n      0x00\n      dup1\n      revert\n    tag_50:\n      pop\n      tag_51\n      0x04\n      dup1\n      calldatasize\n      sub\n      dup2\n      add\n      swap1\n      tag_52\n      swap2\n      swap1\n      tag_53\n      jump\t// in\n    tag_52:\n      tag_54\n      jump\t// in\n    tag_51:\n      stop\n        /* \"MarketPlace.sol\":2417:2795  function initialize(address _marketplaceFactory) public initializer {... */\n    tag_11:\n      callvalue\n      dup1\n      iszero\n      tag_55\n      jumpi\n      0x00\n      dup1\n      revert\n    tag_55:\n      pop\n      tag_56\n      0x04\n      dup1\n      calldatasize\n      sub\n      dup2\n      add\n      swap1\n      tag_57\n      swap2\n      swap1\n      tag_58\n      jump\t// in\n    tag_57:\n      tag_59\n      jump\t// in\n    tag_56:\n      stop\n        /* \"MarketPlace.sol\":1638:1681  mapping(uint256 => Listing) public listings */\n    tag_12:\n      callvalue\n      dup1\n      iszero\n      tag_60\n      jumpi\n      0x00\n      dup1\n      revert\n    tag_60:\n      pop\n      tag_61\n      0x04\n      dup1\n      calldatasize\n      sub\n      dup2\n      add\n      swap1\n      tag_62\n      swap2\n      swap1\n      tag_22\n      jump\t// in\n    tag_62:\n      tag_63\n      jump\t// in\n    tag_61:\n      mload(0x40)\n      tag_64\n      swap5\n      swap4\n      swap3\n      swap2\n      swap1\n      tag_65\n      jump\t// in\n    tag_64:\n      mload(0x40)\n      dup1\n      swap2\n      sub\n      swap1\n      return\n        /* \"MarketPlace.sol\":1903:1936  address public marketplaceFactory */\n    tag_13:\n      callvalue\n      dup1\n      iszero\n      tag_66\n      jumpi\n      0x00\n      dup1\n      revert\n    tag_66:\n      pop\n      tag_67\n      tag_68\n      jump\t// in\n    tag_67:\n      mload(0x40)\n      tag_69\n      swap2\n      swap1\n      tag_44\n      jump\t// in\n    tag_69:\n      mload(0x40)\n      dup1\n      swap2\n      sub\n      swap1\n      return\n        /* \"@openzeppelin/contracts-upgradeable/access/OwnableUpgradeable.sol\":3405:3620  function transferOwnership(address newOwner) public virtual onlyOwner {... */\n    tag_14:\n      callvalue\n      dup1\n      iszero\n      tag_70\n      jumpi\n      0x00\n      dup1\n      revert\n    tag_70:\n      pop\n      tag_71\n      0x04\n      dup1\n      calldatasize\n      sub\n      dup2\n      add\n      swap1\n      tag_72\n      swap2\n      swap1\n      tag_58\n      jump\t// in\n    tag_72:\n      tag_73\n      jump\t// in\n    tag_71:\n      stop\n        /* \"MarketPlace.sol\":5735:5802  function unpause() external onlyOwner {... */\n    tag_19:\n        /* \"@openzeppelin/contracts-upgradeable/access/OwnableUpgradeable.sol\":2334:2347  _checkOwner() */\n      tag_75\n        /* \"@openzeppelin/contracts-upgradeable/access/OwnableUpgradeable.sol\":2334:2345  _checkOwner */\n      tag_76\n        /* \"@openzeppelin/contracts-upgradeable/access/OwnableUpgradeable.sol\":2334:2347  _checkOwner() */\n      jump\t// in\n    tag_75:\n        /* \"MarketPlace.sol\":5784:5794  _unpause() */\n      tag_78\n        /* \"MarketPlace.sol\":5784:5792  _unpause */\n      tag_79\n        /* \"MarketPlace.sol\":5784:5794  _unpause() */\n      jump\t// in\n    tag_78:\n        /* \"MarketPlace.sol\":5735:5802  function unpause() external onlyOwner {... */\n      jump\t// out\n        /* \"MarketPlace.sol\":3985:4708  function buyNFT(uint256 _listingId) external payable whenNotPaused nonReentrant {... */\n    tag_23:\n        /* \"@openzeppelin/contracts-upgradeable/security/PausableUpgradeable.sol\":1503:1522  _requireNotPaused() */\n      tag_81\n        /* \"@openzeppelin/contracts-upgradeable/security/PausableUpgradeable.sol\":1503:1520  _requireNotPaused */\n      tag_82\n        /* \"@openzeppelin/contracts-upgradeable/security/PausableUpgradeable.sol\":1503:1522  _requireNotPaused() */\n      jump\t// in\n    tag_81:\n        /* \"@openzeppelin/contracts/security/ReentrancyGuard.sol\":2261:2282  _nonReentrantBefore() */\n      tag_84\n        /* \"@openzeppelin/contracts/security/ReentrancyGuard.sol\":2261:2280  _nonReentrantBefore */\n      tag_85\n        /* \"@openzeppelin/contracts/security/ReentrancyGuard.sol\":2261:2282  _nonReentrantBefore() */\n      jump\t// in\n    tag_84:\n        /* \"MarketPlace.sol\":4076:4098  Listing memory listing */\n      0x00\n        /* \"MarketPlace.sol\":4101:4109  listings */\n      0x33\n        /* \"MarketPlace.sol\":4101:4121  listings[_listingId] */\n      0x00\n        /* \"MarketPlace.sol\":4110:4120  _listingId */\n      dup4\n        /* \"MarketPlace.sol\":4101:4121  listings[_listingId] */\n      dup2\n      mstore\n      0x20\n      add\n      swap1\n      dup2\n      mstore\n      0x20\n      add\n      0x00\n      keccak256\n        /* \"MarketPlace.sol\":4076:4121  Listing memory listing = listings[_listingId] */\n      mload(0x40)\n      dup1\n      0x80\n      add\n      0x40\n      mstore\n      swap1\n      dup2\n      0x00\n      dup3\n      add\n      0x00\n      swap1\n      sload\n      swap1\n      0x0100\n      exp\n      swap1\n      div\n      0xffffffffffffffffffffffffffffffffffffffff\n      and\n      0xffffffffffffffffffffffffffffffffffffffff\n      and\n      0xffffffffffffffffffffffffffffffffffffffff\n      and\n      dup2\n      mstore\n      0x20\n      add\n      0x01\n      dup3\n      add\n      sload\n      dup2\n      mstore\n      0x20\n      add\n      0x02\n      dup3\n      add\n      0x00\n      swap1\n      sload\n      swap1\n      0x0100\n      exp\n      swap1\n      div\n      0xffffffffffffffffffffffffffffffffffffffff\n      and\n      0xffffffffffffffffffffffffffffffffffffffff\n      and\n      0xffffffffffffffffffffffffffffffffffffffff\n      and\n      dup2\n      mstore\n      0x20\n      add\n      0x03\n      dup3\n      add\n      sload\n      dup2\n      mstore\n      pop\n      pop\n      swap1\n      pop\n        /* \"MarketPlace.sol\":4192:4199  listing */\n      dup1\n        /* \"MarketPlace.sol\":4192:4205  listing.price */\n      0x60\n      add\n      mload\n        /* \"MarketPlace.sol\":4179:4188  msg.value */\n      callvalue\n        /* \"MarketPlace.sol\":4179:4205  msg.value >= listing.price */\n      lt\n      iszero\n        /* \"MarketPlace.sol\":4171:4241  require(msg.value >= listing.price, \"No se ha enviado suficiente ETH\") */\n      tag_87\n      jumpi\n      mload(0x40)\n      0x08c379a000000000000000000000000000000000000000000000000000000000\n      dup2\n      mstore\n      0x04\n      add\n      tag_88\n      swap1\n      tag_89\n      jump\t// in\n    tag_88:\n      mload(0x40)\n      dup1\n      swap2\n      sub\n      swap1\n      revert\n    tag_87:\n        /* \"MarketPlace.sol\":4382:4389  listing */\n      dup1\n        /* \"MarketPlace.sol\":4382:4401  listing.nftContract */\n      0x00\n      add\n      mload\n        /* \"MarketPlace.sol\":4374:4419  IERC721(listing.nftContract).safeTransferFrom */\n      0xffffffffffffffffffffffffffffffffffffffff\n      and\n      0x42842e0e\n        /* \"MarketPlace.sol\":4420:4427  listing */\n      dup3\n        /* \"MarketPlace.sol\":4420:4434  listing.seller */\n      0x40\n      add\n      mload\n        /* \"MarketPlace.sol\":4436:4446  msg.sender */\n      caller\n        /* \"MarketPlace.sol\":4448:4455  listing */\n      dup5\n        /* \"MarketPlace.sol\":4448:4463  listing.tokenId */\n      0x20\n      add\n      mload\n        /* \"MarketPlace.sol\":4374:4464  IERC721(listing.nftContract).safeTransferFrom(listing.seller, msg.sender, listing.tokenId) */\n      mload(0x40)\n      dup5\n      0xffffffff\n      and\n      0xe0\n      shl\n      dup2\n      mstore\n      0x04\n      add\n      tag_90\n      swap4\n      swap3\n      swap2\n      swap1\n      tag_91\n      jump\t// in\n    tag_90:\n      0x00\n      mload(0x40)\n      dup1\n      dup4\n      sub\n      dup2\n      0x00\n      dup8\n      dup1\n      extcodesize\n      iszero\n      dup1\n      iszero\n      tag_92\n      jumpi\n      0x00\n      dup1\n      revert\n    tag_92:\n      pop\n      gas\n      call\n      iszero\n      dup1\n      iszero\n      tag_94\n      jumpi\n      returndatasize\n      0x00\n      dup1\n      returndatacopy\n      revert(0x00, returndatasize)\n    tag_94:\n      pop\n      pop\n      pop\n      pop\n        /* \"MarketPlace.sol\":4525:4532  listing */\n      dup1\n        /* \"MarketPlace.sol\":4525:4539  listing.seller */\n      0x40\n      add\n      mload\n        /* \"MarketPlace.sol\":4517:4549  payable(listing.seller).transfer */\n      0xffffffffffffffffffffffffffffffffffffffff\n      and\n        /* \"MarketPlace.sol\":4517:4564  payable(listing.seller).transfer(listing.price) */\n      0x08fc\n        /* \"MarketPlace.sol\":4550:4557  listing */\n      dup3\n        /* \"MarketPlace.sol\":4550:4563  listing.price */\n      0x60\n      add\n      mload\n        /* \"MarketPlace.sol\":4517:4564  payable(listing.seller).transfer(listing.price) */\n      swap1\n      dup2\n      iszero\n      mul\n      swap1\n      mload(0x40)\n      0x00\n      mload(0x40)\n      dup1\n      dup4\n      sub\n      dup2\n      dup6\n      dup9\n      dup9\n      call\n      swap4\n      pop\n      pop\n      pop\n      pop\n      iszero\n      dup1\n      iszero\n      tag_96\n      jumpi\n      returndatasize\n      0x00\n      dup1\n      returndatacopy\n      revert(0x00, returndatasize)\n    tag_96:\n      pop\n        /* \"MarketPlace.sol\":4674:4684  msg.sender */\n      caller\n        /* \"MarketPlace.sol\":4649:4700  NFTPurchased(_listingId, msg.sender, listing.price) */\n      0xffffffffffffffffffffffffffffffffffffffff\n      and\n        /* \"MarketPlace.sol\":4662:4672  _listingId */\n      dup3\n        /* \"MarketPlace.sol\":4649:4700  NFTPurchased(_listingId, msg.sender, listing.price) */\n      0xad546cba5af920bc2c64678bbd69f3d8965ac26d1b82f7ebf6f098aaa8335282\n        /* \"MarketPlace.sol\":4686:4693  listing */\n      dup4\n        /* \"MarketPlace.sol\":4686:4699  listing.price */\n      0x60\n      add\n      mload\n        /* \"MarketPlace.sol\":4649:4700  NFTPurchased(_listingId, msg.sender, listing.price) */\n      mload(0x40)\n      tag_97\n      swap2\n      swap1\n      tag_33\n      jump\t// in\n    tag_97:\n      mload(0x40)\n      dup1\n      swap2\n      sub\n      swap1\n      log3\n        /* \"MarketPlace.sol\":4065:4708  {... */\n      pop\n        /* \"@openzeppelin/contracts/security/ReentrancyGuard.sol\":2303:2323  _nonReentrantAfter() */\n      tag_98\n        /* \"@openzeppelin/contracts/security/ReentrancyGuard.sol\":2303:2321  _nonReentrantAfter */\n      tag_99\n        /* \"@openzeppelin/contracts/security/ReentrancyGuard.sol\":2303:2323  _nonReentrantAfter() */\n      jump\t// in\n    tag_98:\n        /* \"MarketPlace.sol\":3985:4708  function buyNFT(uint256 _listingId) external payable whenNotPaused nonReentrant {... */\n      pop\n      jump\t// out\n        /* \"@openzeppelin/contracts-upgradeable/security/PausableUpgradeable.sol\":1879:1963  function paused() public view virtual returns (bool) {... */\n    tag_26:\n        /* \"@openzeppelin/contracts-upgradeable/security/PausableUpgradeable.sol\":1926:1930  bool */\n      0x00\n        /* \"@openzeppelin/contracts-upgradeable/security/PausableUpgradeable.sol\":1949:1956  _paused */\n      dup1\n      0x00\n      swap1\n      sload\n      swap1\n      0x0100\n      exp\n      swap1\n      div\n      0xff\n      and\n        /* \"@openzeppelin/contracts-upgradeable/security/PausableUpgradeable.sol\":1942:1956  return _paused */\n      swap1\n      pop\n        /* \"@openzeppelin/contracts-upgradeable/security/PausableUpgradeable.sol\":1879:1963  function paused() public view virtual returns (bool) {... */\n      swap1\n      jump\t// out\n        /* \"MarketPlace.sol\":1767:1796  uint256 public listingCounter */\n    tag_31:\n      sload(0x34)\n      dup2\n      jump\t// out\n        /* \"@openzeppelin/contracts-upgradeable/access/OwnableUpgradeable.sol\":3155:3256  function renounceOwnership() public virtual onlyOwner {... */\n    tag_36:\n        /* \"@openzeppelin/contracts-upgradeable/access/OwnableUpgradeable.sol\":2334:2347  _checkOwner() */\n      tag_102\n        /* \"@openzeppelin/contracts-upgradeable/access/OwnableUpgradeable.sol\":2334:2345  _checkOwner */\n      tag_76\n        /* \"@openzeppelin/contracts-upgradeable/access/OwnableUpgradeable.sol\":2334:2347  _checkOwner() */\n      jump\t// in\n    tag_102:\n        /* \"@openzeppelin/contracts-upgradeable/access/OwnableUpgradeable.sol\":3219:3249  _transferOwnership(address(0)) */\n      tag_104\n        /* \"@openzeppelin/contracts-upgradeable/access/OwnableUpgradeable.sol\":3246:3247  0 */\n      0x00\n        /* \"@openzeppelin/contracts-upgradeable/access/OwnableUpgradeable.sol\":3219:3237  _transferOwnership */\n      tag_105\n        /* \"@openzeppelin/contracts-upgradeable/access/OwnableUpgradeable.sol\":3219:3249  _transferOwnership(address(0)) */\n      jump\t// in\n    tag_104:\n        /* \"@openzeppelin/contracts-upgradeable/access/OwnableUpgradeable.sol\":3155:3256  function renounceOwnership() public virtual onlyOwner {... */\n      jump\t// out\n        /* \"MarketPlace.sol\":5550:5613  function pause() external onlyOwner {... */\n    tag_39:\n        /* \"@openzeppelin/contracts-upgradeable/access/OwnableUpgradeable.sol\":2334:2347  _checkOwner() */\n      tag_107\n        /* \"@openzeppelin/contracts-upgradeable/access/OwnableUpgradeable.sol\":2334:2345  _checkOwner */\n      tag_76\n        /* \"@openzeppelin/contracts-upgradeable/access/OwnableUpgradeable.sol\":2334:2347  _checkOwner() */\n      jump\t// in\n    tag_107:\n        /* \"MarketPlace.sol\":5597:5605  _pause() */\n      tag_109\n        /* \"MarketPlace.sol\":5597:5603  _pause */\n      tag_110\n        /* \"MarketPlace.sol\":5597:5605  _pause() */\n      jump\t// in\n    tag_109:\n        /* \"MarketPlace.sol\":5550:5613  function pause() external onlyOwner {... */\n      jump\t// out\n        /* \"@openzeppelin/contracts-upgradeable/access/OwnableUpgradeable.sol\":2441:2585  function owner() public view virtual returns (address) {... */\n    tag_42:\n        /* \"@openzeppelin/contracts-upgradeable/access/OwnableUpgradeable.sol\":2487:2494  address */\n      0x00\n        /* \"@openzeppelin/contracts-upgradeable/access/OwnableUpgradeable.sol\":2506:2530  OwnableStorage storage $ */\n      dup1\n        /* \"@openzeppelin/contracts-upgradeable/access/OwnableUpgradeable.sol\":2533:2553  _getOwnableStorage() */\n      tag_112\n        /* \"@openzeppelin/contracts-upgradeable/access/OwnableUpgradeable.sol\":2533:2551  _getOwnableStorage */\n      tag_113\n        /* \"@openzeppelin/contracts-upgradeable/access/OwnableUpgradeable.sol\":2533:2553  _getOwnableStorage() */\n      jump\t// in\n    tag_112:\n        /* \"@openzeppelin/contracts-upgradeable/access/OwnableUpgradeable.sol\":2506:2553  OwnableStorage storage $ = _getOwnableStorage() */\n      swap1\n      pop\n        /* \"@openzeppelin/contracts-upgradeable/access/OwnableUpgradeable.sol\":2570:2571  $ */\n      dup1\n        /* \"@openzeppelin/contracts-upgradeable/access/OwnableUpgradeable.sol\":2570:2578  $._owner */\n      0x00\n      add\n      0x00\n      swap1\n      sload\n      swap1\n      0x0100\n      exp\n      swap1\n      div\n      0xffffffffffffffffffffffffffffffffffffffff\n      and\n        /* \"@openzeppelin/contracts-upgradeable/access/OwnableUpgradeable.sol\":2563:2578  return $._owner */\n      swap2\n      pop\n      pop\n        /* \"@openzeppelin/contracts-upgradeable/access/OwnableUpgradeable.sol\":2441:2585  function owner() public view virtual returns (address) {... */\n      swap1\n      jump\t// out\n        /* \"MarketPlace.sol\":4800:5444  function transferNFT(uint256 _listingId, address _to) external whenNotPaused nonReentrant {... */\n    tag_49:\n        /* \"@openzeppelin/contracts-upgradeable/security/PausableUpgradeable.sol\":1503:1522  _requireNotPaused() */\n      tag_115\n        /* \"@openzeppelin/contracts-upgradeable/security/PausableUpgradeable.sol\":1503:1520  _requireNotPaused */\n      tag_82\n        /* \"@openzeppelin/contracts-upgradeable/security/PausableUpgradeable.sol\":1503:1522  _requireNotPaused() */\n      jump\t// in\n    tag_115:\n        /* \"@openzeppelin/contracts/security/ReentrancyGuard.sol\":2261:2282  _nonReentrantBefore() */\n      tag_117\n        /* \"@openzeppelin/contracts/security/ReentrancyGuard.sol\":2261:2280  _nonReentrantBefore */\n      tag_85\n        /* \"@openzeppelin/contracts/security/ReentrancyGuard.sol\":2261:2282  _nonReentrantBefore() */\n      jump\t// in\n    tag_117:\n        /* \"MarketPlace.sol\":4901:4923  Listing memory listing */\n      0x00\n        /* \"MarketPlace.sol\":4926:4934  listings */\n      0x33\n        /* \"MarketPlace.sol\":4926:4946  listings[_listingId] */\n      0x00\n        /* \"MarketPlace.sol\":4935:4945  _listingId */\n      dup5\n        /* \"MarketPlace.sol\":4926:4946  listings[_listingId] */\n      dup2\n      mstore\n      0x20\n      add\n      swap1\n      dup2\n      mstore\n      0x20\n      add\n      0x00\n      keccak256\n        /* \"MarketPlace.sol\":4901:4946  Listing memory listing = listings[_listingId] */\n      mload(0x40)\n      dup1\n      0x80\n      add\n      0x40\n      mstore\n      swap1\n      dup2\n      0x00\n      dup3\n      add\n      0x00\n      swap1\n      sload\n      swap1\n      0x0100\n      exp\n      swap1\n      div\n      0xffffffffffffffffffffffffffffffffffffffff\n      and\n      0xffffffffffffffffffffffffffffffffffffffff\n      and\n      0xffffffffffffffffffffffffffffffffffffffff\n      and\n      dup2\n      mstore\n      0x20\n      add\n      0x01\n      dup3\n      add\n      sload\n      dup2\n      mstore\n      0x20\n      add\n      0x02\n      dup3\n      add\n      0x00\n      swap1\n      sload\n      swap1\n      0x0100\n      exp\n      swap1\n      div\n      0xffffffffffffffffffffffffffffffffffffffff\n      and\n      0xffffffffffffffffffffffffffffffffffffffff\n      and\n      0xffffffffffffffffffffffffffffffffffffffff\n      and\n      dup2\n      mstore\n      0x20\n      add\n      0x03\n      dup3\n      add\n      sload\n      dup2\n      mstore\n      pop\n      pop\n      swap1\n      pop\n        /* \"MarketPlace.sol\":5022:5032  msg.sender */\n      caller\n        /* \"MarketPlace.sol\":5004:5032  listing.seller == msg.sender */\n      0xffffffffffffffffffffffffffffffffffffffff\n      and\n        /* \"MarketPlace.sol\":5004:5011  listing */\n      dup2\n        /* \"MarketPlace.sol\":5004:5018  listing.seller */\n      0x40\n      add\n      mload\n        /* \"MarketPlace.sol\":5004:5032  listing.seller == msg.sender */\n      0xffffffffffffffffffffffffffffffffffffffff\n      and\n      eq\n        /* \"MarketPlace.sol\":4996:5077  require(listing.seller == msg.sender, \"Solo el vendedor puede transferir el NFT\") */\n      tag_119\n      jumpi\n      mload(0x40)\n      0x08c379a000000000000000000000000000000000000000000000000000000000\n      dup2\n      mstore\n      0x04\n      add\n      tag_120\n      swap1\n      tag_121\n      jump\t// in\n    tag_120:\n      mload(0x40)\n      dup1\n      swap2\n      sub\n      swap1\n      revert\n    tag_119:\n        /* \"MarketPlace.sol\":5226:5233  listing */\n      dup1\n        /* \"MarketPlace.sol\":5226:5245  listing.nftContract */\n      0x00\n      add\n      mload\n        /* \"MarketPlace.sol\":5218:5263  IERC721(listing.nftContract).safeTransferFrom */\n      0xffffffffffffffffffffffffffffffffffffffff\n      and\n      0x42842e0e\n        /* \"MarketPlace.sol\":5264:5271  listing */\n      dup3\n        /* \"MarketPlace.sol\":5264:5278  listing.seller */\n      0x40\n      add\n      mload\n        /* \"MarketPlace.sol\":5280:5283  _to */\n      dup5\n        /* \"MarketPlace.sol\":5285:5292  listing */\n      dup5\n        /* \"MarketPlace.sol\":5285:5300  listing.tokenId */\n      0x20\n      add\n      mload\n        /* \"MarketPlace.sol\":5218:5301  IERC721(listing.nftContract).safeTransferFrom(listing.seller, _to, listing.tokenId) */\n      mload(0x40)\n      dup5\n      0xffffffff\n      and\n      0xe0\n      shl\n      dup2\n      mstore\n      0x04\n      add\n      tag_122\n      swap4\n      swap3\n      swap2\n      swap1\n      tag_91\n      jump\t// in\n    tag_122:\n      0x00\n      mload(0x40)\n      dup1\n      dup4\n      sub\n      dup2\n      0x00\n      dup8\n      dup1\n      extcodesize\n      iszero\n      dup1\n      iszero\n      tag_123\n      jumpi\n      0x00\n      dup1\n      revert\n    tag_123:\n      pop\n      gas\n      call\n      iszero\n      dup1\n      iszero\n      tag_125\n      jumpi\n      returndatasize\n      0x00\n      dup1\n      returndatacopy\n      revert(0x00, returndatasize)\n    tag_125:\n      pop\n      pop\n      pop\n      pop\n        /* \"MarketPlace.sol\":5432:5435  _to */\n      dup2\n        /* \"MarketPlace.sol\":5389:5436  NFTTransferred(_listingId, listing.seller, _to) */\n      0xffffffffffffffffffffffffffffffffffffffff\n      and\n        /* \"MarketPlace.sol\":5416:5423  listing */\n      dup2\n        /* \"MarketPlace.sol\":5416:5430  listing.seller */\n      0x40\n      add\n      mload\n        /* \"MarketPlace.sol\":5389:5436  NFTTransferred(_listingId, listing.seller, _to) */\n      0xffffffffffffffffffffffffffffffffffffffff\n      and\n        /* \"MarketPlace.sol\":5404:5414  _listingId */\n      dup5\n        /* \"MarketPlace.sol\":5389:5436  NFTTransferred(_listingId, listing.seller, _to) */\n      0x67043fac5fd2bf9edbb46ee495aaed7f97f91d43507d373be2b592af19b8c0a8\n      mload(0x40)\n      mload(0x40)\n      dup1\n      swap2\n      sub\n      swap1\n      log4\n        /* \"MarketPlace.sol\":4890:5444  {... */\n      pop\n        /* \"@openzeppelin/contracts/security/ReentrancyGuard.sol\":2303:2323  _nonReentrantAfter() */\n      tag_126\n        /* \"@openzeppelin/contracts/security/ReentrancyGuard.sol\":2303:2321  _nonReentrantAfter */\n      tag_99\n        /* \"@openzeppelin/contracts/security/ReentrancyGuard.sol\":2303:2323  _nonReentrantAfter() */\n      jump\t// in\n    tag_126:\n        /* \"MarketPlace.sol\":4800:5444  function transferNFT(uint256 _listingId, address _to) external whenNotPaused nonReentrant {... */\n      pop\n      pop\n      jump\t// out\n        /* \"MarketPlace.sol\":2858:3913  function listNFT(address _nftContract, uint256 _tokenId, uint256 _price) external whenNotPaused nonReentrant {... */\n    tag_54:\n        /* \"@openzeppelin/contracts-upgradeable/security/PausableUpgradeable.sol\":1503:1522  _requireNotPaused() */\n      tag_128\n        /* \"@openzeppelin/contracts-upgradeable/security/PausableUpgradeable.sol\":1503:1520  _requireNotPaused */\n      tag_82\n        /* \"@openzeppelin/contracts-upgradeable/security/PausableUpgradeable.sol\":1503:1522  _requireNotPaused() */\n      jump\t// in\n    tag_128:\n        /* \"@openzeppelin/contracts/security/ReentrancyGuard.sol\":2261:2282  _nonReentrantBefore() */\n      tag_130\n        /* \"@openzeppelin/contracts/security/ReentrancyGuard.sol\":2261:2280  _nonReentrantBefore */\n      tag_85\n        /* \"@openzeppelin/contracts/security/ReentrancyGuard.sol\":2261:2282  _nonReentrantBefore() */\n      jump\t// in\n    tag_130:\n        /* \"MarketPlace.sol\":2995:2996  0 */\n      0x00\n        /* \"MarketPlace.sol\":2986:2992  _price */\n      dup2\n        /* \"MarketPlace.sol\":2986:2996  _price > 0 */\n      gt\n        /* \"MarketPlace.sol\":2978:3029  require(_price > 0, \"El precio debe ser mayor a 0\") */\n      tag_132\n      jumpi\n      mload(0x40)\n      0x08c379a000000000000000000000000000000000000000000000000000000000\n      dup2\n      mstore\n      0x04\n      add\n      tag_133\n      swap1\n      tag_134\n      jump\t// in\n    tag_133:\n      mload(0x40)\n      dup1\n      swap2\n      sub\n      swap1\n      revert\n    tag_132:\n        /* \"MarketPlace.sol\":3081:3100  IERC721 nftContract */\n      0x00\n        /* \"MarketPlace.sol\":3111:3123  _nftContract */\n      dup4\n        /* \"MarketPlace.sol\":3081:3124  IERC721 nftContract = IERC721(_nftContract) */\n      swap1\n      pop\n        /* \"MarketPlace.sol\":3211:3221  msg.sender */\n      caller\n        /* \"MarketPlace.sol\":3178:3221  nftContract.ownerOf(_tokenId) == msg.sender */\n      0xffffffffffffffffffffffffffffffffffffffff\n      and\n        /* \"MarketPlace.sol\":3178:3189  nftContract */\n      dup2\n        /* \"MarketPlace.sol\":3178:3197  nftContract.ownerOf */\n      0xffffffffffffffffffffffffffffffffffffffff\n      and\n      0x6352211e\n        /* \"MarketPlace.sol\":3198:3206  _tokenId */\n      dup6\n        /* \"MarketPlace.sol\":3178:3207  nftContract.ownerOf(_tokenId) */\n      mload(0x40)\n      dup3\n      0xffffffff\n      and\n      0xe0\n      shl\n      dup2\n      mstore\n      0x04\n      add\n      tag_135\n      swap2\n      swap1\n      tag_33\n      jump\t// in\n    tag_135:\n      0x20\n      mload(0x40)\n      dup1\n      dup4\n      sub\n      dup2\n      dup7\n      gas\n      staticcall\n      iszero\n      dup1\n      iszero\n      tag_137\n      jumpi\n      returndatasize\n      0x00\n      dup1\n      returndatacopy\n      revert(0x00, returndatasize)\n    tag_137:\n      pop\n      pop\n      pop\n      pop\n      mload(0x40)\n      returndatasize\n      not(0x1f)\n      0x1f\n      dup3\n      add\n      and\n      dup3\n      add\n      dup1\n      0x40\n      mstore\n      pop\n      dup2\n      add\n      swap1\n      tag_138\n      swap2\n      swap1\n      tag_139\n      jump\t// in\n    tag_138:\n        /* \"MarketPlace.sol\":3178:3221  nftContract.ownerOf(_tokenId) == msg.sender */\n      0xffffffffffffffffffffffffffffffffffffffff\n      and\n      eq\n        /* \"MarketPlace.sol\":3170:3256  require(nftContract.ownerOf(_tokenId) == msg.sender, \"No eres el propietario del NFT\") */\n      tag_140\n      jumpi\n      mload(0x40)\n      0x08c379a000000000000000000000000000000000000000000000000000000000\n      dup2\n      mstore\n      0x04\n      add\n      tag_141\n      swap1\n      tag_142\n      jump\t// in\n    tag_141:\n      mload(0x40)\n      dup1\n      swap2\n      sub\n      swap1\n      revert\n    tag_140:\n        /* \"MarketPlace.sol\":3320:3331  nftContract */\n      dup1\n        /* \"MarketPlace.sol\":3320:3348  nftContract.isApprovedForAll */\n      0xffffffffffffffffffffffffffffffffffffffff\n      and\n      0xe985e9c5\n        /* \"MarketPlace.sol\":3349:3359  msg.sender */\n      caller\n        /* \"MarketPlace.sol\":3369:3373  this */\n      address\n        /* \"MarketPlace.sol\":3320:3375  nftContract.isApprovedForAll(msg.sender, address(this)) */\n      mload(0x40)\n      dup4\n      0xffffffff\n      and\n      0xe0\n      shl\n      dup2\n      mstore\n      0x04\n      add\n      tag_143\n      swap3\n      swap2\n      swap1\n      tag_144\n      jump\t// in\n    tag_143:\n      0x20\n      mload(0x40)\n      dup1\n      dup4\n      sub\n      dup2\n      dup7\n      gas\n      staticcall\n      iszero\n      dup1\n      iszero\n      tag_146\n      jumpi\n      returndatasize\n      0x00\n      dup1\n      returndatacopy\n      revert(0x00, returndatasize)\n    tag_146:\n      pop\n      pop\n      pop\n      pop\n      mload(0x40)\n      returndatasize\n      not(0x1f)\n      0x1f\n      dup3\n      add\n      and\n      dup3\n      add\n      dup1\n      0x40\n      mstore\n      pop\n      dup2\n      add\n      swap1\n      tag_147\n      swap2\n      swap1\n      tag_148\n      jump\t// in\n    tag_147:\n        /* \"MarketPlace.sol\":3320:3429  nftContract.isApprovedForAll(msg.sender, address(this)) || nftContract.getApproved(_tokenId) == address(this) */\n      dup1\n      tag_149\n      jumpi\n      pop\n        /* \"MarketPlace.sol\":3424:3428  this */\n      address\n        /* \"MarketPlace.sol\":3379:3429  nftContract.getApproved(_tokenId) == address(this) */\n      0xffffffffffffffffffffffffffffffffffffffff\n      and\n        /* \"MarketPlace.sol\":3379:3390  nftContract */\n      dup2\n        /* \"MarketPlace.sol\":3379:3402  nftContract.getApproved */\n      0xffffffffffffffffffffffffffffffffffffffff\n      and\n      0x081812fc\n        /* \"MarketPlace.sol\":3403:3411  _tokenId */\n      dup6\n        /* \"MarketPlace.sol\":3379:3412  nftContract.getApproved(_tokenId) */\n      mload(0x40)\n      dup3\n      0xffffffff\n      and\n      0xe0\n      shl\n      dup2\n      mstore\n      0x04\n      add\n      tag_150\n      swap2\n      swap1\n      tag_33\n      jump\t// in\n    tag_150:\n      0x20\n      mload(0x40)\n      dup1\n      dup4\n      sub\n      dup2\n      dup7\n      gas\n      staticcall\n      iszero\n      dup1\n      iszero\n      tag_152\n      jumpi\n      returndatasize\n      0x00\n      dup1\n      returndatacopy\n      revert(0x00, returndatasize)\n    tag_152:\n      pop\n      pop\n      pop\n      pop\n      mload(0x40)\n      returndatasize\n      not(0x1f)\n      0x1f\n      dup3\n      add\n      and\n      dup3\n      add\n      dup1\n      0x40\n      mstore\n      pop\n      dup2\n      add\n      swap1\n      tag_153\n      swap2\n      swap1\n      tag_139\n      jump\t// in\n    tag_153:\n        /* \"MarketPlace.sol\":3379:3429  nftContract.getApproved(_tokenId) == address(this) */\n      0xffffffffffffffffffffffffffffffffffffffff\n      and\n      eq\n        /* \"MarketPlace.sol\":3320:3429  nftContract.isApprovedForAll(msg.sender, address(this)) || nftContract.getApproved(_tokenId) == address(this) */\n    tag_149:\n        /* \"MarketPlace.sol\":3312:3477  require(nftContract.isApprovedForAll(msg.sender, address(this)) || nftContract.getApproved(_tokenId) == address(this), \"Marketplace no aprobado para manejar el NFT\") */\n      tag_154\n      jumpi\n      mload(0x40)\n      0x08c379a000000000000000000000000000000000000000000000000000000000\n      dup2\n      mstore\n      0x04\n      add\n      tag_155\n      swap1\n      tag_156\n      jump\t// in\n    tag_155:\n      mload(0x40)\n      dup1\n      swap2\n      sub\n      swap1\n      revert\n    tag_154:\n        /* \"MarketPlace.sol\":3638:3689  Listing(_nftContract, _tokenId, msg.sender, _price) */\n      mload(0x40)\n      dup1\n      0x80\n      add\n      0x40\n      mstore\n      dup1\n        /* \"MarketPlace.sol\":3646:3658  _nftContract */\n      dup6\n        /* \"MarketPlace.sol\":3638:3689  Listing(_nftContract, _tokenId, msg.sender, _price) */\n      0xffffffffffffffffffffffffffffffffffffffff\n      and\n      dup2\n      mstore\n      0x20\n      add\n        /* \"MarketPlace.sol\":3660:3668  _tokenId */\n      dup5\n        /* \"MarketPlace.sol\":3638:3689  Listing(_nftContract, _tokenId, msg.sender, _price) */\n      dup2\n      mstore\n      0x20\n      add\n        /* \"MarketPlace.sol\":3670:3680  msg.sender */\n      caller\n        /* \"MarketPlace.sol\":3638:3689  Listing(_nftContract, _tokenId, msg.sender, _price) */\n      0xffffffffffffffffffffffffffffffffffffffff\n      and\n      dup2\n      mstore\n      0x20\n      add\n        /* \"MarketPlace.sol\":3682:3688  _price */\n      dup4\n        /* \"MarketPlace.sol\":3638:3689  Listing(_nftContract, _tokenId, msg.sender, _price) */\n      dup2\n      mstore\n      pop\n        /* \"MarketPlace.sol\":3611:3619  listings */\n      0x33\n        /* \"MarketPlace.sol\":3611:3635  listings[listingCounter] */\n      0x00\n        /* \"MarketPlace.sol\":3620:3634  listingCounter */\n      sload(0x34)\n        /* \"MarketPlace.sol\":3611:3635  listings[listingCounter] */\n      dup2\n      mstore\n      0x20\n      add\n      swap1\n      dup2\n      mstore\n      0x20\n      add\n      0x00\n      keccak256\n        /* \"MarketPlace.sol\":3611:3689  listings[listingCounter] = Listing(_nftContract, _tokenId, msg.sender, _price) */\n      0x00\n      dup3\n      add\n      mload\n      dup2\n      0x00\n      add\n      exp(0x0100, 0x00)\n      dup2\n      sload\n      dup2\n      0xffffffffffffffffffffffffffffffffffffffff\n      mul\n      not\n      and\n      swap1\n      dup4\n      0xffffffffffffffffffffffffffffffffffffffff\n      and\n      mul\n      or\n      swap1\n      sstore\n      pop\n      0x20\n      dup3\n      add\n      mload\n      dup2\n      0x01\n      add\n      sstore\n      0x40\n      dup3\n      add\n      mload\n      dup2\n      0x02\n      add\n      exp(0x0100, 0x00)\n      dup2\n      sload\n      dup2\n      0xffffffffffffffffffffffffffffffffffffffff\n      mul\n      not\n      and\n      swap1\n      dup4\n      0xffffffffffffffffffffffffffffffffffffffff\n      and\n      mul\n      or\n      swap1\n      sstore\n      pop\n      0x60\n      dup3\n      add\n      mload\n      dup2\n      0x03\n      add\n      sstore\n      swap1\n      pop\n      pop\n        /* \"MarketPlace.sol\":3811:3819  _tokenId */\n      dup3\n        /* \"MarketPlace.sol\":3799:3809  msg.sender */\n      caller\n        /* \"MarketPlace.sol\":3773:3828  NFTListed(listingCounter, msg.sender, _tokenId, _price) */\n      0xffffffffffffffffffffffffffffffffffffffff\n      and\n        /* \"MarketPlace.sol\":3783:3797  listingCounter */\n      sload(0x34)\n        /* \"MarketPlace.sol\":3773:3828  NFTListed(listingCounter, msg.sender, _tokenId, _price) */\n      0x36e94395fafcb0d2a9bcfcdd5cef807ab52a1f4382906992ebdc18de5f1472c4\n        /* \"MarketPlace.sol\":3821:3827  _price */\n      dup6\n        /* \"MarketPlace.sol\":3773:3828  NFTListed(listingCounter, msg.sender, _tokenId, _price) */\n      mload(0x40)\n      tag_157\n      swap2\n      swap1\n      tag_33\n      jump\t// in\n    tag_157:\n      mload(0x40)\n      dup1\n      swap2\n      sub\n      swap1\n      log4\n        /* \"MarketPlace.sol\":3889:3903  listingCounter */\n      0x34\n      0x00\n        /* \"MarketPlace.sol\":3889:3905  listingCounter++ */\n      dup2\n      sload\n      dup1\n      swap3\n      swap2\n      swap1\n      tag_158\n      swap1\n      tag_159\n      jump\t// in\n    tag_158:\n      swap2\n      swap1\n      pop\n      sstore\n      pop\n        /* \"MarketPlace.sol\":2967:3913  {... */\n      pop\n        /* \"@openzeppelin/contracts/security/ReentrancyGuard.sol\":2303:2323  _nonReentrantAfter() */\n      tag_160\n        /* \"@openzeppelin/contracts/security/ReentrancyGuard.sol\":2303:2321  _nonReentrantAfter */\n      tag_99\n        /* \"@openzeppelin/contracts/security/ReentrancyGuard.sol\":2303:2323  _nonReentrantAfter() */\n      jump\t// in\n    tag_160:\n        /* \"MarketPlace.sol\":2858:3913  function listNFT(address _nftContract, uint256 _tokenId, uint256 _price) external whenNotPaused nonReentrant {... */\n      pop\n      pop\n      pop\n      jump\t// out\n        /* \"MarketPlace.sol\":2417:2795  function initialize(address _marketplaceFactory) public initializer {... */\n    tag_59:\n        /* \"@openzeppelin/contracts-upgradeable/proxy/utils/Initializable.sol\":4158:4188  InitializableStorage storage $ */\n      0x00\n        /* \"@openzeppelin/contracts-upgradeable/proxy/utils/Initializable.sol\":4191:4217  _getInitializableStorage() */\n      tag_162\n        /* \"@openzeppelin/contracts-upgradeable/proxy/utils/Initializable.sol\":4191:4215  _getInitializableStorage */\n      tag_163\n        /* \"@openzeppelin/contracts-upgradeable/proxy/utils/Initializable.sol\":4191:4217  _getInitializableStorage() */\n      jump\t// in\n    tag_162:\n        /* \"@openzeppelin/contracts-upgradeable/proxy/utils/Initializable.sol\":4158:4217  InitializableStorage storage $ = _getInitializableStorage() */\n      swap1\n      pop\n        /* \"@openzeppelin/contracts-upgradeable/proxy/utils/Initializable.sol\":4279:4298  bool isTopLevelCall */\n      0x00\n        /* \"@openzeppelin/contracts-upgradeable/proxy/utils/Initializable.sol\":4302:4303  $ */\n      dup2\n        /* \"@openzeppelin/contracts-upgradeable/proxy/utils/Initializable.sol\":4302:4317  $._initializing */\n      0x00\n      add\n      0x08\n      swap1\n      sload\n      swap1\n      0x0100\n      exp\n      swap1\n      div\n      0xff\n      and\n        /* \"@openzeppelin/contracts-upgradeable/proxy/utils/Initializable.sol\":4301:4317  !$._initializing */\n      iszero\n        /* \"@openzeppelin/contracts-upgradeable/proxy/utils/Initializable.sol\":4279:4317  bool isTopLevelCall = !$._initializing */\n      swap1\n      pop\n        /* \"@openzeppelin/contracts-upgradeable/proxy/utils/Initializable.sol\":4327:4345  uint64 initialized */\n      0x00\n        /* \"@openzeppelin/contracts-upgradeable/proxy/utils/Initializable.sol\":4348:4349  $ */\n      dup3\n        /* \"@openzeppelin/contracts-upgradeable/proxy/utils/Initializable.sol\":4348:4362  $._initialized */\n      0x00\n      add\n      0x00\n      swap1\n      sload\n      swap1\n      0x0100\n      exp\n      swap1\n      div\n      0xffffffffffffffff\n      and\n        /* \"@openzeppelin/contracts-upgradeable/proxy/utils/Initializable.sol\":4327:4362  uint64 initialized = $._initialized */\n      swap1\n      pop\n        /* \"@openzeppelin/contracts-upgradeable/proxy/utils/Initializable.sol\":4706:4723  bool initialSetup */\n      0x00\n        /* \"@openzeppelin/contracts-upgradeable/proxy/utils/Initializable.sol\":4741:4742  0 */\n      dup1\n        /* \"@openzeppelin/contracts-upgradeable/proxy/utils/Initializable.sol\":4726:4737  initialized */\n      dup3\n        /* \"@openzeppelin/contracts-upgradeable/proxy/utils/Initializable.sol\":4726:4742  initialized == 0 */\n      0xffffffffffffffff\n      and\n      eq\n        /* \"@openzeppelin/contracts-upgradeable/proxy/utils/Initializable.sol\":4726:4760  initialized == 0 && isTopLevelCall */\n      dup1\n      iszero\n      tag_164\n      jumpi\n      pop\n        /* \"@openzeppelin/contracts-upgradeable/proxy/utils/Initializable.sol\":4746:4760  isTopLevelCall */\n      dup3\n        /* \"@openzeppelin/contracts-upgradeable/proxy/utils/Initializable.sol\":4726:4760  initialized == 0 && isTopLevelCall */\n    tag_164:\n        /* \"@openzeppelin/contracts-upgradeable/proxy/utils/Initializable.sol\":4706:4760  bool initialSetup = initialized == 0 && isTopLevelCall */\n      swap1\n      pop\n        /* \"@openzeppelin/contracts-upgradeable/proxy/utils/Initializable.sol\":4770:4787  bool construction */\n      0x00\n        /* \"@openzeppelin/contracts-upgradeable/proxy/utils/Initializable.sol\":4805:4806  1 */\n      0x01\n        /* \"@openzeppelin/contracts-upgradeable/proxy/utils/Initializable.sol\":4790:4801  initialized */\n      dup4\n        /* \"@openzeppelin/contracts-upgradeable/proxy/utils/Initializable.sol\":4790:4806  initialized == 1 */\n      0xffffffffffffffff\n      and\n      eq\n        /* \"@openzeppelin/contracts-upgradeable/proxy/utils/Initializable.sol\":4790:4840  initialized == 1 && address(this).code.length == 0 */\n      dup1\n      iszero\n      tag_165\n      jumpi\n      pop\n        /* \"@openzeppelin/contracts-upgradeable/proxy/utils/Initializable.sol\":4839:4840  0 */\n      0x00\n        /* \"@openzeppelin/contracts-upgradeable/proxy/utils/Initializable.sol\":4818:4822  this */\n      address\n        /* \"@openzeppelin/contracts-upgradeable/proxy/utils/Initializable.sol\":4810:4835  address(this).code.length */\n      0xffffffffffffffffffffffffffffffffffffffff\n      and\n      extcodesize\n        /* \"@openzeppelin/contracts-upgradeable/proxy/utils/Initializable.sol\":4810:4840  address(this).code.length == 0 */\n      eq\n        /* \"@openzeppelin/contracts-upgradeable/proxy/utils/Initializable.sol\":4790:4840  initialized == 1 && address(this).code.length == 0 */\n    tag_165:\n        /* \"@openzeppelin/contracts-upgradeable/proxy/utils/Initializable.sol\":4770:4840  bool construction = initialized == 1 && address(this).code.length == 0 */\n      swap1\n      pop\n        /* \"@openzeppelin/contracts-upgradeable/proxy/utils/Initializable.sol\":4856:4868  initialSetup */\n      dup2\n        /* \"@openzeppelin/contracts-upgradeable/proxy/utils/Initializable.sol\":4855:4868  !initialSetup */\n      iszero\n        /* \"@openzeppelin/contracts-upgradeable/proxy/utils/Initializable.sol\":4855:4885  !initialSetup && !construction */\n      dup1\n      iszero\n      tag_166\n      jumpi\n      pop\n        /* \"@openzeppelin/contracts-upgradeable/proxy/utils/Initializable.sol\":4873:4885  construction */\n      dup1\n        /* \"@openzeppelin/contracts-upgradeable/proxy/utils/Initializable.sol\":4872:4885  !construction */\n      iszero\n        /* \"@openzeppelin/contracts-upgradeable/proxy/utils/Initializable.sol\":4855:4885  !initialSetup && !construction */\n    tag_166:\n        /* \"@openzeppelin/contracts-upgradeable/proxy/utils/Initializable.sol\":4851:4942  if (!initialSetup && !construction) {... */\n      iszero\n      tag_167\n      jumpi\n        /* \"@openzeppelin/contracts-upgradeable/proxy/utils/Initializable.sol\":4908:4931  InvalidInitialization() */\n      mload(0x40)\n      0xf92ee8a900000000000000000000000000000000000000000000000000000000\n      dup2\n      mstore\n      0x04\n      add\n      mload(0x40)\n      dup1\n      swap2\n      sub\n      swap1\n      revert\n        /* \"@openzeppelin/contracts-upgradeable/proxy/utils/Initializable.sol\":4851:4942  if (!initialSetup && !construction) {... */\n    tag_167:\n        /* \"@openzeppelin/contracts-upgradeable/proxy/utils/Initializable.sol\":4968:4969  1 */\n      0x01\n        /* \"@openzeppelin/contracts-upgradeable/proxy/utils/Initializable.sol\":4951:4952  $ */\n      dup6\n        /* \"@openzeppelin/contracts-upgradeable/proxy/utils/Initializable.sol\":4951:4965  $._initialized */\n      0x00\n      add\n      0x00\n        /* \"@openzeppelin/contracts-upgradeable/proxy/utils/Initializable.sol\":4951:4969  $._initialized = 1 */\n      0x0100\n      exp\n      dup2\n      sload\n      dup2\n      0xffffffffffffffff\n      mul\n      not\n      and\n      swap1\n      dup4\n      0xffffffffffffffff\n      and\n      mul\n      or\n      swap1\n      sstore\n      pop\n        /* \"@openzeppelin/contracts-upgradeable/proxy/utils/Initializable.sol\":4983:4997  isTopLevelCall */\n      dup4\n        /* \"@openzeppelin/contracts-upgradeable/proxy/utils/Initializable.sol\":4979:5046  if (isTopLevelCall) {... */\n      iszero\n      tag_168\n      jumpi\n        /* \"@openzeppelin/contracts-upgradeable/proxy/utils/Initializable.sol\":5031:5035  true */\n      0x01\n        /* \"@openzeppelin/contracts-upgradeable/proxy/utils/Initializable.sol\":5013:5014  $ */\n      dup6\n        /* \"@openzeppelin/contracts-upgradeable/proxy/utils/Initializable.sol\":5013:5028  $._initializing */\n      0x00\n      add\n      0x08\n        /* \"@openzeppelin/contracts-upgradeable/proxy/utils/Initializable.sol\":5013:5035  $._initializing = true */\n      0x0100\n      exp\n      dup2\n      sload\n      dup2\n      0xff\n      mul\n      not\n      and\n      swap1\n      dup4\n      iszero\n      iszero\n      mul\n      or\n      swap1\n      sstore\n      pop\n        /* \"@openzeppelin/contracts-upgradeable/proxy/utils/Initializable.sol\":4979:5046  if (isTopLevelCall) {... */\n    tag_168:\n        /* \"MarketPlace.sol\":2517:2536  _marketplaceFactory */\n      dup6\n        /* \"MarketPlace.sol\":2496:2514  marketplaceFactory */\n      0x35\n      0x00\n        /* \"MarketPlace.sol\":2496:2536  marketplaceFactory = _marketplaceFactory */\n      0x0100\n      exp\n      dup2\n      sload\n      dup2\n      0xffffffffffffffffffffffffffffffffffffffff\n      mul\n      not\n      and\n      swap1\n      dup4\n      0xffffffffffffffffffffffffffffffffffffffff\n      and\n      mul\n      or\n      swap1\n      sstore\n      pop\n        /* \"MarketPlace.sol\":2644:2670  __Ownable_init(msg.sender) */\n      tag_170\n        /* \"MarketPlace.sol\":2659:2669  msg.sender */\n      caller\n        /* \"MarketPlace.sol\":2644:2658  __Ownable_init */\n      tag_171\n        /* \"MarketPlace.sol\":2644:2670  __Ownable_init(msg.sender) */\n      jump\t// in\n    tag_170:\n        /* \"MarketPlace.sol\":2770:2787  __Pausable_init() */\n      tag_172\n        /* \"MarketPlace.sol\":2770:2785  __Pausable_init */\n      tag_173\n        /* \"MarketPlace.sol\":2770:2787  __Pausable_init() */\n      jump\t// in\n    tag_172:\n        /* \"@openzeppelin/contracts-upgradeable/proxy/utils/Initializable.sol\":5070:5084  isTopLevelCall */\n      dup4\n        /* \"@openzeppelin/contracts-upgradeable/proxy/utils/Initializable.sol\":5066:5167  if (isTopLevelCall) {... */\n      iszero\n      tag_174\n      jumpi\n        /* \"@openzeppelin/contracts-upgradeable/proxy/utils/Initializable.sol\":5118:5123  false */\n      0x00\n        /* \"@openzeppelin/contracts-upgradeable/proxy/utils/Initializable.sol\":5100:5101  $ */\n      dup6\n        /* \"@openzeppelin/contracts-upgradeable/proxy/utils/Initializable.sol\":5100:5115  $._initializing */\n      0x00\n      add\n      0x08\n        /* \"@openzeppelin/contracts-upgradeable/proxy/utils/Initializable.sol\":5100:5123  $._initializing = false */\n      0x0100\n      exp\n      dup2\n      sload\n      dup2\n      0xff\n      mul\n      not\n      and\n      swap1\n      dup4\n      iszero\n      iszero\n      mul\n      or\n      swap1\n      sstore\n      pop\n        /* \"@openzeppelin/contracts-upgradeable/proxy/utils/Initializable.sol\":5142:5156  Initialized(1) */\n      0xc7f505b2f371ae2175ee4913f4499e1f2633a7b5936321eed1cdaeb6115181d2\n        /* \"@openzeppelin/contracts-upgradeable/proxy/utils/Initializable.sol\":5154:5155  1 */\n      0x01\n        /* \"@openzeppelin/contracts-upgradeable/proxy/utils/Initializable.sol\":5142:5156  Initialized(1) */\n      mload(0x40)\n      tag_175\n      swap2\n      swap1\n      tag_176\n      jump\t// in\n    tag_175:\n      mload(0x40)\n      dup1\n      swap2\n      sub\n      swap1\n      log1\n        /* \"@openzeppelin/contracts-upgradeable/proxy/utils/Initializable.sol\":5066:5167  if (isTopLevelCall) {... */\n    tag_174:\n        /* \"@openzeppelin/contracts-upgradeable/proxy/utils/Initializable.sol\":4092:5173  {... */\n      pop\n      pop\n      pop\n      pop\n      pop\n        /* \"MarketPlace.sol\":2417:2795  function initialize(address _marketplaceFactory) public initializer {... */\n      pop\n      jump\t// out\n        /* \"MarketPlace.sol\":1638:1681  mapping(uint256 => Listing) public listings */\n    tag_63:\n      mstore(0x20, 0x33)\n      dup1\n      0x00\n      mstore\n      keccak256(0x00, 0x40)\n      0x00\n      swap2\n      pop\n      swap1\n      pop\n      dup1\n      0x00\n      add\n      0x00\n      swap1\n      sload\n      swap1\n      0x0100\n      exp\n      swap1\n      div\n      0xffffffffffffffffffffffffffffffffffffffff\n      and\n      swap1\n      dup1\n      0x01\n      add\n      sload\n      swap1\n      dup1\n      0x02\n      add\n      0x00\n      swap1\n      sload\n      swap1\n      0x0100\n      exp\n      swap1\n      div\n      0xffffffffffffffffffffffffffffffffffffffff\n      and\n      swap1\n      dup1\n      0x03\n      add\n      sload\n      swap1\n      pop\n      dup5\n      jump\t// out\n        /* \"MarketPlace.sol\":1903:1936  address public marketplaceFactory */\n    tag_68:\n      0x35\n      0x00\n      swap1\n      sload\n      swap1\n      0x0100\n      exp\n      swap1\n      div\n      0xffffffffffffffffffffffffffffffffffffffff\n      and\n      dup2\n      jump\t// out\n        /* \"@openzeppelin/contracts-upgradeable/access/OwnableUpgradeable.sol\":3405:3620  function transferOwnership(address newOwner) public virtual onlyOwner {... */\n    tag_73:\n        /* \"@openzeppelin/contracts-upgradeable/access/OwnableUpgradeable.sol\":2334:2347  _checkOwner() */\n      tag_178\n        /* \"@openzeppelin/contracts-upgradeable/access/OwnableUpgradeable.sol\":2334:2345  _checkOwner */\n      tag_76\n        /* \"@openzeppelin/contracts-upgradeable/access/OwnableUpgradeable.sol\":2334:2347  _checkOwner() */\n      jump\t// in\n    tag_178:\n        /* \"@openzeppelin/contracts-upgradeable/access/OwnableUpgradeable.sol\":3509:3510  0 */\n      0x00\n        /* \"@openzeppelin/contracts-upgradeable/access/OwnableUpgradeable.sol\":3489:3511  newOwner == address(0) */\n      0xffffffffffffffffffffffffffffffffffffffff\n      and\n        /* \"@openzeppelin/contracts-upgradeable/access/OwnableUpgradeable.sol\":3489:3497  newOwner */\n      dup2\n        /* \"@openzeppelin/contracts-upgradeable/access/OwnableUpgradeable.sol\":3489:3511  newOwner == address(0) */\n      0xffffffffffffffffffffffffffffffffffffffff\n      and\n      sub\n        /* \"@openzeppelin/contracts-upgradeable/access/OwnableUpgradeable.sol\":3485:3576  if (newOwner == address(0)) {... */\n      tag_180\n      jumpi\n        /* \"@openzeppelin/contracts-upgradeable/access/OwnableUpgradeable.sol\":3562:3563  0 */\n      0x00\n        /* \"@openzeppelin/contracts-upgradeable/access/OwnableUpgradeable.sol\":3534:3565  OwnableInvalidOwner(address(0)) */\n      mload(0x40)\n      0x1e4fbdf700000000000000000000000000000000000000000000000000000000\n      dup2\n      mstore\n      0x04\n      add\n      tag_181\n      swap2\n      swap1\n      tag_44\n      jump\t// in\n    tag_181:\n      mload(0x40)\n      dup1\n      swap2\n      sub\n      swap1\n      revert\n        /* \"@openzeppelin/contracts-upgradeable/access/OwnableUpgradeable.sol\":3485:3576  if (newOwner == address(0)) {... */\n    tag_180:\n        /* \"@openzeppelin/contracts-upgradeable/access/OwnableUpgradeable.sol\":3585:3613  _transferOwnership(newOwner) */\n      tag_182\n        /* \"@openzeppelin/contracts-upgradeable/access/OwnableUpgradeable.sol\":3604:3612  newOwner */\n      dup2\n        /* \"@openzeppelin/contracts-upgradeable/access/OwnableUpgradeable.sol\":3585:3603  _transferOwnership */\n      tag_105\n        /* \"@openzeppelin/contracts-upgradeable/access/OwnableUpgradeable.sol\":3585:3613  _transferOwnership(newOwner) */\n      jump\t// in\n    tag_182:\n        /* \"@openzeppelin/contracts-upgradeable/access/OwnableUpgradeable.sol\":3405:3620  function transferOwnership(address newOwner) public virtual onlyOwner {... */\n      pop\n      jump\t// out\n        /* \"@openzeppelin/contracts-upgradeable/access/OwnableUpgradeable.sol\":2658:2820  function _checkOwner() internal view virtual {... */\n    tag_76:\n        /* \"@openzeppelin/contracts-upgradeable/access/OwnableUpgradeable.sol\":2728:2740  _msgSender() */\n      tag_184\n        /* \"@openzeppelin/contracts-upgradeable/access/OwnableUpgradeable.sol\":2728:2738  _msgSender */\n      tag_185\n        /* \"@openzeppelin/contracts-upgradeable/access/OwnableUpgradeable.sol\":2728:2740  _msgSender() */\n      jump\t// in\n    tag_184:\n        /* \"@openzeppelin/contracts-upgradeable/access/OwnableUpgradeable.sol\":2717:2740  owner() != _msgSender() */\n      0xffffffffffffffffffffffffffffffffffffffff\n      and\n        /* \"@openzeppelin/contracts-upgradeable/access/OwnableUpgradeable.sol\":2717:2724  owner() */\n      tag_186\n        /* \"@openzeppelin/contracts-upgradeable/access/OwnableUpgradeable.sol\":2717:2722  owner */\n      tag_42\n        /* \"@openzeppelin/contracts-upgradeable/access/OwnableUpgradeable.sol\":2717:2724  owner() */\n      jump\t// in\n    tag_186:\n        /* \"@openzeppelin/contracts-upgradeable/access/OwnableUpgradeable.sol\":2717:2740  owner() != _msgSender() */\n      0xffffffffffffffffffffffffffffffffffffffff\n      and\n      eq\n        /* \"@openzeppelin/contracts-upgradeable/access/OwnableUpgradeable.sol\":2713:2814  if (owner() != _msgSender()) {... */\n      tag_187\n      jumpi\n        /* \"@openzeppelin/contracts-upgradeable/access/OwnableUpgradeable.sol\":2790:2802  _msgSender() */\n      tag_188\n        /* \"@openzeppelin/contracts-upgradeable/access/OwnableUpgradeable.sol\":2790:2800  _msgSender */\n      tag_185\n        /* \"@openzeppelin/contracts-upgradeable/access/OwnableUpgradeable.sol\":2790:2802  _msgSender() */\n      jump\t// in\n    tag_188:\n        /* \"@openzeppelin/contracts-upgradeable/access/OwnableUpgradeable.sol\":2763:2803  OwnableUnauthorizedAccount(_msgSender()) */\n      mload(0x40)\n      0x118cdaa700000000000000000000000000000000000000000000000000000000\n      dup2\n      mstore\n      0x04\n      add\n      tag_189\n      swap2\n      swap1\n      tag_44\n      jump\t// in\n    tag_189:\n      mload(0x40)\n      dup1\n      swap2\n      sub\n      swap1\n      revert\n        /* \"@openzeppelin/contracts-upgradeable/access/OwnableUpgradeable.sol\":2713:2814  if (owner() != _msgSender()) {... */\n    tag_187:\n        /* \"@openzeppelin/contracts-upgradeable/access/OwnableUpgradeable.sol\":2658:2820  function _checkOwner() internal view virtual {... */\n      jump\t// out\n        /* \"@openzeppelin/contracts-upgradeable/security/PausableUpgradeable.sol\":2697:2814  function _unpause() internal virtual whenPaused {... */\n    tag_79:\n        /* \"@openzeppelin/contracts-upgradeable/security/PausableUpgradeable.sol\":1750:1766  _requirePaused() */\n      tag_191\n        /* \"@openzeppelin/contracts-upgradeable/security/PausableUpgradeable.sol\":1750:1764  _requirePaused */\n      tag_192\n        /* \"@openzeppelin/contracts-upgradeable/security/PausableUpgradeable.sol\":1750:1766  _requirePaused() */\n      jump\t// in\n    tag_191:\n        /* \"@openzeppelin/contracts-upgradeable/security/PausableUpgradeable.sol\":2765:2770  false */\n      0x00\n        /* \"@openzeppelin/contracts-upgradeable/security/PausableUpgradeable.sol\":2755:2762  _paused */\n      dup1\n      0x00\n        /* \"@openzeppelin/contracts-upgradeable/security/PausableUpgradeable.sol\":2755:2770  _paused = false */\n      0x0100\n      exp\n      dup2\n      sload\n      dup2\n      0xff\n      mul\n      not\n      and\n      swap1\n      dup4\n      iszero\n      iszero\n      mul\n      or\n      swap1\n      sstore\n      pop\n        /* \"@openzeppelin/contracts-upgradeable/security/PausableUpgradeable.sol\":2785:2807  Unpaused(_msgSender()) */\n      0x5db9ee0a495bf2e6ff9c91a7834c1ba4fdd244a5e8aa4e537bd38aeae4b073aa\n        /* \"@openzeppelin/contracts-upgradeable/security/PausableUpgradeable.sol\":2794:2806  _msgSender() */\n      tag_194\n        /* \"@openzeppelin/contracts-upgradeable/security/PausableUpgradeable.sol\":2794:2804  _msgSender */\n      tag_185\n        /* \"@openzeppelin/contracts-upgradeable/security/PausableUpgradeable.sol\":2794:2806  _msgSender() */\n      jump\t// in\n    tag_194:\n        /* \"@openzeppelin/contracts-upgradeable/security/PausableUpgradeable.sol\":2785:2807  Unpaused(_msgSender()) */\n      mload(0x40)\n      tag_195\n      swap2\n      swap1\n      tag_44\n      jump\t// in\n    tag_195:\n      mload(0x40)\n      dup1\n      swap2\n      sub\n      swap1\n      log1\n        /* \"@openzeppelin/contracts-upgradeable/security/PausableUpgradeable.sol\":2697:2814  function _unpause() internal virtual whenPaused {... */\n      jump\t// out\n        /* \"@openzeppelin/contracts-upgradeable/security/PausableUpgradeable.sol\":2031:2137  function _requireNotPaused() internal view virtual {... */\n    tag_82:\n        /* \"@openzeppelin/contracts-upgradeable/security/PausableUpgradeable.sol\":2101:2109  paused() */\n      tag_197\n        /* \"@openzeppelin/contracts-upgradeable/security/PausableUpgradeable.sol\":2101:2107  paused */\n      tag_26\n        /* \"@openzeppelin/contracts-upgradeable/security/PausableUpgradeable.sol\":2101:2109  paused() */\n      jump\t// in\n    tag_197:\n        /* \"@openzeppelin/contracts-upgradeable/security/PausableUpgradeable.sol\":2100:2109  !paused() */\n      iszero\n        /* \"@openzeppelin/contracts-upgradeable/security/PausableUpgradeable.sol\":2092:2130  require(!paused(), \"Pausable: paused\") */\n      tag_198\n      jumpi\n      mload(0x40)\n      0x08c379a000000000000000000000000000000000000000000000000000000000\n      dup2\n      mstore\n      0x04\n      add\n      tag_199\n      swap1\n      tag_200\n      jump\t// in\n    tag_199:\n      mload(0x40)\n      dup1\n      swap2\n      sub\n      swap1\n      revert\n    tag_198:\n        /* \"@openzeppelin/contracts-upgradeable/security/PausableUpgradeable.sol\":2031:2137  function _requireNotPaused() internal view virtual {... */\n      jump\t// out\n        /* \"@openzeppelin/contracts/security/ReentrancyGuard.sol\":2336:2623  function _nonReentrantBefore() private {... */\n    tag_85:\n        /* \"@openzeppelin/contracts/security/ReentrancyGuard.sol\":1759:1760  2 */\n      0x02\n        /* \"@openzeppelin/contracts/security/ReentrancyGuard.sol\":2468:2475  _status */\n      sload(0x32)\n        /* \"@openzeppelin/contracts/security/ReentrancyGuard.sol\":2468:2487  _status != _ENTERED */\n      sub\n        /* \"@openzeppelin/contracts/security/ReentrancyGuard.sol\":2460:2523  require(_status != _ENTERED, \"ReentrancyGuard: reentrant call\") */\n      tag_202\n      jumpi\n      mload(0x40)\n      0x08c379a000000000000000000000000000000000000000000000000000000000\n      dup2\n      mstore\n      0x04\n      add\n      tag_203\n      swap1\n      tag_204\n      jump\t// in\n    tag_203:\n      mload(0x40)\n      dup1\n      swap2\n      sub\n      swap1\n      revert\n    tag_202:\n        /* \"@openzeppelin/contracts/security/ReentrancyGuard.sol\":1759:1760  2 */\n      0x02\n        /* \"@openzeppelin/contracts/security/ReentrancyGuard.sol\":2598:2605  _status */\n      0x32\n        /* \"@openzeppelin/contracts/security/ReentrancyGuard.sol\":2598:2616  _status = _ENTERED */\n      dup2\n      swap1\n      sstore\n      pop\n        /* \"@openzeppelin/contracts/security/ReentrancyGuard.sol\":2336:2623  function _nonReentrantBefore() private {... */\n      jump\t// out\n        /* \"@openzeppelin/contracts/security/ReentrancyGuard.sol\":2629:2838  function _nonReentrantAfter() private {... */\n    tag_99:\n        /* \"@openzeppelin/contracts/security/ReentrancyGuard.sol\":1716:1717  1 */\n      0x01\n        /* \"@openzeppelin/contracts/security/ReentrancyGuard.sol\":2809:2816  _status */\n      0x32\n        /* \"@openzeppelin/contracts/security/ReentrancyGuard.sol\":2809:2831  _status = _NOT_ENTERED */\n      dup2\n      swap1\n      sstore\n      pop\n        /* \"@openzeppelin/contracts/security/ReentrancyGuard.sol\":2629:2838  function _nonReentrantAfter() private {... */\n      jump\t// out\n        /* \"@openzeppelin/contracts-upgradeable/access/OwnableUpgradeable.sol\":3774:4022  function _transferOwnership(address newOwner) internal virtual {... */\n    tag_105:\n        /* \"@openzeppelin/contracts-upgradeable/access/OwnableUpgradeable.sol\":3847:3871  OwnableStorage storage $ */\n      0x00\n        /* \"@openzeppelin/contracts-upgradeable/access/OwnableUpgradeable.sol\":3874:3894  _getOwnableStorage() */\n      tag_207\n        /* \"@openzeppelin/contracts-upgradeable/access/OwnableUpgradeable.sol\":3874:3892  _getOwnableStorage */\n      tag_113\n        /* \"@openzeppelin/contracts-upgradeable/access/OwnableUpgradeable.sol\":3874:3894  _getOwnableStorage() */\n      jump\t// in\n    tag_207:\n        /* \"@openzeppelin/contracts-upgradeable/access/OwnableUpgradeable.sol\":3847:3894  OwnableStorage storage $ = _getOwnableStorage() */\n      swap1\n      pop\n        /* \"@openzeppelin/contracts-upgradeable/access/OwnableUpgradeable.sol\":3904:3920  address oldOwner */\n      0x00\n        /* \"@openzeppelin/contracts-upgradeable/access/OwnableUpgradeable.sol\":3923:3924  $ */\n      dup2\n        /* \"@openzeppelin/contracts-upgradeable/access/OwnableUpgradeable.sol\":3923:3931  $._owner */\n      0x00\n      add\n      0x00\n      swap1\n      sload\n      swap1\n      0x0100\n      exp\n      swap1\n      div\n      0xffffffffffffffffffffffffffffffffffffffff\n      and\n        /* \"@openzeppelin/contracts-upgradeable/access/OwnableUpgradeable.sol\":3904:3931  address oldOwner = $._owner */\n      swap1\n      pop\n        /* \"@openzeppelin/contracts-upgradeable/access/OwnableUpgradeable.sol\":3952:3960  newOwner */\n      dup3\n        /* \"@openzeppelin/contracts-upgradeable/access/OwnableUpgradeable.sol\":3941:3942  $ */\n      dup3\n        /* \"@openzeppelin/contracts-upgradeable/access/OwnableUpgradeable.sol\":3941:3949  $._owner */\n      0x00\n      add\n      0x00\n        /* \"@openzeppelin/contracts-upgradeable/access/OwnableUpgradeable.sol\":3941:3960  $._owner = newOwner */\n      0x0100\n      exp\n      dup2\n      sload\n      dup2\n      0xffffffffffffffffffffffffffffffffffffffff\n      mul\n      not\n      and\n      swap1\n      dup4\n      0xffffffffffffffffffffffffffffffffffffffff\n      and\n      mul\n      or\n      swap1\n      sstore\n      pop\n        /* \"@openzeppelin/contracts-upgradeable/access/OwnableUpgradeable.sol\":4006:4014  newOwner */\n      dup3\n        /* \"@openzeppelin/contracts-upgradeable/access/OwnableUpgradeable.sol\":3975:4015  OwnershipTransferred(oldOwner, newOwner) */\n      0xffffffffffffffffffffffffffffffffffffffff\n      and\n        /* \"@openzeppelin/contracts-upgradeable/access/OwnableUpgradeable.sol\":3996:4004  oldOwner */\n      dup2\n        /* \"@openzeppelin/contracts-upgradeable/access/OwnableUpgradeable.sol\":3975:4015  OwnershipTransferred(oldOwner, newOwner) */\n      0xffffffffffffffffffffffffffffffffffffffff\n      and\n      0x8be0079c531659141344cd1fd0a4f28419497f9722a3daafe3b4186f6b6457e0\n      mload(0x40)\n      mload(0x40)\n      dup1\n      swap2\n      sub\n      swap1\n      log3\n        /* \"@openzeppelin/contracts-upgradeable/access/OwnableUpgradeable.sol\":3837:4022  {... */\n      pop\n      pop\n        /* \"@openzeppelin/contracts-upgradeable/access/OwnableUpgradeable.sol\":3774:4022  function _transferOwnership(address newOwner) internal virtual {... */\n      pop\n      jump\t// out\n        /* \"@openzeppelin/contracts-upgradeable/security/PausableUpgradeable.sol\":2450:2565  function _pause() internal virtual whenNotPaused {... */\n    tag_110:\n        /* \"@openzeppelin/contracts-upgradeable/security/PausableUpgradeable.sol\":1503:1522  _requireNotPaused() */\n      tag_209\n        /* \"@openzeppelin/contracts-upgradeable/security/PausableUpgradeable.sol\":1503:1520  _requireNotPaused */\n      tag_82\n        /* \"@openzeppelin/contracts-upgradeable/security/PausableUpgradeable.sol\":1503:1522  _requireNotPaused() */\n      jump\t// in\n    tag_209:\n        /* \"@openzeppelin/contracts-upgradeable/security/PausableUpgradeable.sol\":2519:2523  true */\n      0x01\n        /* \"@openzeppelin/contracts-upgradeable/security/PausableUpgradeable.sol\":2509:2516  _paused */\n      0x00\n      dup1\n        /* \"@openzeppelin/contracts-upgradeable/security/PausableUpgradeable.sol\":2509:2523  _paused = true */\n      0x0100\n      exp\n      dup2\n      sload\n      dup2\n      0xff\n      mul\n      not\n      and\n      swap1\n      dup4\n      iszero\n      iszero\n      mul\n      or\n      swap1\n      sstore\n      pop\n        /* \"@openzeppelin/contracts-upgradeable/security/PausableUpgradeable.sol\":2538:2558  Paused(_msgSender()) */\n      0x62e78cea01bee320cd4e420270b5ea74000d11b0c9f74754ebdbfc544b05a258\n        /* \"@openzeppelin/contracts-upgradeable/security/PausableUpgradeable.sol\":2545:2557  _msgSender() */\n      tag_211\n        /* \"@openzeppelin/contracts-upgradeable/security/PausableUpgradeable.sol\":2545:2555  _msgSender */\n      tag_185\n        /* \"@openzeppelin/contracts-upgradeable/security/PausableUpgradeable.sol\":2545:2557  _msgSender() */\n      jump\t// in\n    tag_211:\n        /* \"@openzeppelin/contracts-upgradeable/security/PausableUpgradeable.sol\":2538:2558  Paused(_msgSender()) */\n      mload(0x40)\n      tag_212\n      swap2\n      swap1\n      tag_44\n      jump\t// in\n    tag_212:\n      mload(0x40)\n      dup1\n      swap2\n      sub\n      swap1\n      log1\n        /* \"@openzeppelin/contracts-upgradeable/security/PausableUpgradeable.sol\":2450:2565  function _pause() internal virtual whenNotPaused {... */\n      jump\t// out\n        /* \"@openzeppelin/contracts-upgradeable/access/OwnableUpgradeable.sol\":1192:1351  function _getOwnableStorage() private pure returns (OwnableStorage storage $) {... */\n    tag_113:\n        /* \"@openzeppelin/contracts-upgradeable/access/OwnableUpgradeable.sol\":1244:1268  OwnableStorage storage $ */\n      0x00\n        /* \"@openzeppelin/contracts-upgradeable/access/OwnableUpgradeable.sol\":1313:1335  OwnableStorageLocation */\n      0x9016d09d72d40fdae2fd8ceac6b6234c7706214fd39c1cd1e609a0528c199300\n        /* \"@openzeppelin/contracts-upgradeable/access/OwnableUpgradeable.sol\":1303:1335  $.slot := OwnableStorageLocation */\n      swap1\n      pop\n        /* \"@openzeppelin/contracts-upgradeable/access/OwnableUpgradeable.sol\":1192:1351  function _getOwnableStorage() private pure returns (OwnableStorage storage $) {... */\n      swap1\n      jump\t// out\n        /* \"@openzeppelin/contracts-upgradeable/proxy/utils/Initializable.sol\":8737:8907  function _getInitializableStorage() private pure returns (InitializableStorage storage $) {... */\n    tag_163:\n        /* \"@openzeppelin/contracts-upgradeable/proxy/utils/Initializable.sol\":8795:8825  InitializableStorage storage $ */\n      0x00\n        /* \"@openzeppelin/contracts-upgradeable/proxy/utils/Initializable.sol\":8870:8891  INITIALIZABLE_STORAGE */\n      0xf0c57e16840df040f15088dc2f81fe391c3923bec73e23a9662efc9c229c6a00\n        /* \"@openzeppelin/contracts-upgradeable/proxy/utils/Initializable.sol\":8860:8891  $.slot := INITIALIZABLE_STORAGE */\n      swap1\n      pop\n        /* \"@openzeppelin/contracts-upgradeable/proxy/utils/Initializable.sol\":8737:8907  function _getInitializableStorage() private pure returns (InitializableStorage storage $) {... */\n      swap1\n      jump\t// out\n        /* \"@openzeppelin/contracts-upgradeable/access/OwnableUpgradeable.sol\":1847:1974  function __Ownable_init(address initialOwner) internal onlyInitializing {... */\n    tag_171:\n        /* \"@openzeppelin/contracts-upgradeable/proxy/utils/Initializable.sol\":6931:6951  _checkInitializing() */\n      tag_216\n        /* \"@openzeppelin/contracts-upgradeable/proxy/utils/Initializable.sol\":6931:6949  _checkInitializing */\n      tag_217\n        /* \"@openzeppelin/contracts-upgradeable/proxy/utils/Initializable.sol\":6931:6951  _checkInitializing() */\n      jump\t// in\n    tag_216:\n        /* \"@openzeppelin/contracts-upgradeable/access/OwnableUpgradeable.sol\":1929:1967  __Ownable_init_unchained(initialOwner) */\n      tag_219\n        /* \"@openzeppelin/contracts-upgradeable/access/OwnableUpgradeable.sol\":1954:1966  initialOwner */\n      dup2\n        /* \"@openzeppelin/contracts-upgradeable/access/OwnableUpgradeable.sol\":1929:1953  __Ownable_init_unchained */\n      tag_220\n        /* \"@openzeppelin/contracts-upgradeable/access/OwnableUpgradeable.sol\":1929:1967  __Ownable_init_unchained(initialOwner) */\n      jump\t// in\n    tag_219:\n        /* \"@openzeppelin/contracts-upgradeable/access/OwnableUpgradeable.sol\":1847:1974  function __Ownable_init(address initialOwner) internal onlyInitializing {... */\n      pop\n      jump\t// out\n        /* \"@openzeppelin/contracts-upgradeable/security/PausableUpgradeable.sol\":1084:1181  function __Pausable_init() internal onlyInitializing {... */\n    tag_173:\n        /* \"@openzeppelin/contracts-upgradeable/proxy/utils/Initializable.sol\":6931:6951  _checkInitializing() */\n      tag_222\n        /* \"@openzeppelin/contracts-upgradeable/proxy/utils/Initializable.sol\":6931:6949  _checkInitializing */\n      tag_217\n        /* \"@openzeppelin/contracts-upgradeable/proxy/utils/Initializable.sol\":6931:6951  _checkInitializing() */\n      jump\t// in\n    tag_222:\n        /* \"@openzeppelin/contracts-upgradeable/security/PausableUpgradeable.sol\":1147:1174  __Pausable_init_unchained() */\n      tag_224\n        /* \"@openzeppelin/contracts-upgradeable/security/PausableUpgradeable.sol\":1147:1172  __Pausable_init_unchained */\n      tag_225\n        /* \"@openzeppelin/contracts-upgradeable/security/PausableUpgradeable.sol\":1147:1174  __Pausable_init_unchained() */\n      jump\t// in\n    tag_224:\n        /* \"@openzeppelin/contracts-upgradeable/security/PausableUpgradeable.sol\":1084:1181  function __Pausable_init() internal onlyInitializing {... */\n      jump\t// out\n        /* \"@openzeppelin/contracts-upgradeable/utils/ContextUpgradeable.sol\":887:983  function _msgSender() internal view virtual returns (address) {... */\n    tag_185:\n        /* \"@openzeppelin/contracts-upgradeable/utils/ContextUpgradeable.sol\":940:947  address */\n      0x00\n        /* \"@openzeppelin/contracts-upgradeable/utils/ContextUpgradeable.sol\":966:976  msg.sender */\n      caller\n        /* \"@openzeppelin/contracts-upgradeable/utils/ContextUpgradeable.sol\":959:976  return msg.sender */\n      swap1\n      pop\n        /* \"@openzeppelin/contracts-upgradeable/utils/ContextUpgradeable.sol\":887:983  function _msgSender() internal view virtual returns (address) {... */\n      swap1\n      jump\t// out\n        /* \"@openzeppelin/contracts-upgradeable/security/PausableUpgradeable.sol\":2209:2315  function _requirePaused() internal view virtual {... */\n    tag_192:\n        /* \"@openzeppelin/contracts-upgradeable/security/PausableUpgradeable.sol\":2275:2283  paused() */\n      tag_228\n        /* \"@openzeppelin/contracts-upgradeable/security/PausableUpgradeable.sol\":2275:2281  paused */\n      tag_26\n        /* \"@openzeppelin/contracts-upgradeable/security/PausableUpgradeable.sol\":2275:2283  paused() */\n      jump\t// in\n    tag_228:\n        /* \"@openzeppelin/contracts-upgradeable/security/PausableUpgradeable.sol\":2267:2308  require(paused(), \"Pausable: not paused\") */\n      tag_229\n      jumpi\n      mload(0x40)\n      0x08c379a000000000000000000000000000000000000000000000000000000000\n      dup2\n      mstore\n      0x04\n      add\n      tag_230\n      swap1\n      tag_231\n      jump\t// in\n    tag_230:\n      mload(0x40)\n      dup1\n      swap2\n      sub\n      swap1\n      revert\n    tag_229:\n        /* \"@openzeppelin/contracts-upgradeable/security/PausableUpgradeable.sol\":2209:2315  function _requirePaused() internal view virtual {... */\n      jump\t// out\n        /* \"@openzeppelin/contracts-upgradeable/proxy/utils/Initializable.sol\":7084:7225  function _checkInitializing() internal view virtual {... */\n    tag_217:\n        /* \"@openzeppelin/contracts-upgradeable/proxy/utils/Initializable.sol\":7151:7168  _isInitializing() */\n      tag_233\n        /* \"@openzeppelin/contracts-upgradeable/proxy/utils/Initializable.sol\":7151:7166  _isInitializing */\n      tag_234\n        /* \"@openzeppelin/contracts-upgradeable/proxy/utils/Initializable.sol\":7151:7168  _isInitializing() */\n      jump\t// in\n    tag_233:\n        /* \"@openzeppelin/contracts-upgradeable/proxy/utils/Initializable.sol\":7146:7219  if (!_isInitializing()) {... */\n      tag_235\n      jumpi\n        /* \"@openzeppelin/contracts-upgradeable/proxy/utils/Initializable.sol\":7191:7208  NotInitializing() */\n      mload(0x40)\n      0xd7e6bcf800000000000000000000000000000000000000000000000000000000\n      dup2\n      mstore\n      0x04\n      add\n      mload(0x40)\n      dup1\n      swap2\n      sub\n      swap1\n      revert\n        /* \"@openzeppelin/contracts-upgradeable/proxy/utils/Initializable.sol\":7146:7219  if (!_isInitializing()) {... */\n    tag_235:\n        /* \"@openzeppelin/contracts-upgradeable/proxy/utils/Initializable.sol\":7084:7225  function _checkInitializing() internal view virtual {... */\n      jump\t// out\n        /* \"@openzeppelin/contracts-upgradeable/access/OwnableUpgradeable.sol\":1980:2215  function __Ownable_init_unchained(address initialOwner) internal onlyInitializing {... */\n    tag_220:\n        /* \"@openzeppelin/contracts-upgradeable/proxy/utils/Initializable.sol\":6931:6951  _checkInitializing() */\n      tag_237\n        /* \"@openzeppelin/contracts-upgradeable/proxy/utils/Initializable.sol\":6931:6949  _checkInitializing */\n      tag_217\n        /* \"@openzeppelin/contracts-upgradeable/proxy/utils/Initializable.sol\":6931:6951  _checkInitializing() */\n      jump\t// in\n    tag_237:\n        /* \"@openzeppelin/contracts-upgradeable/access/OwnableUpgradeable.sol\":2100:2101  0 */\n      0x00\n        /* \"@openzeppelin/contracts-upgradeable/access/OwnableUpgradeable.sol\":2076:2102  initialOwner == address(0) */\n      0xffffffffffffffffffffffffffffffffffffffff\n      and\n        /* \"@openzeppelin/contracts-upgradeable/access/OwnableUpgradeable.sol\":2076:2088  initialOwner */\n      dup2\n        /* \"@openzeppelin/contracts-upgradeable/access/OwnableUpgradeable.sol\":2076:2102  initialOwner == address(0) */\n      0xffffffffffffffffffffffffffffffffffffffff\n      and\n      sub\n        /* \"@openzeppelin/contracts-upgradeable/access/OwnableUpgradeable.sol\":2072:2167  if (initialOwner == address(0)) {... */\n      tag_239\n      jumpi\n        /* \"@openzeppelin/contracts-upgradeable/access/OwnableUpgradeable.sol\":2153:2154  0 */\n      0x00\n        /* \"@openzeppelin/contracts-upgradeable/access/OwnableUpgradeable.sol\":2125:2156  OwnableInvalidOwner(address(0)) */\n      mload(0x40)\n      0x1e4fbdf700000000000000000000000000000000000000000000000000000000\n      dup2\n      mstore\n      0x04\n      add\n      tag_240\n      swap2\n      swap1\n      tag_44\n      jump\t// in\n    tag_240:\n      mload(0x40)\n      dup1\n      swap2\n      sub\n      swap1\n      revert\n        /* \"@openzeppelin/contracts-upgradeable/access/OwnableUpgradeable.sol\":2072:2167  if (initialOwner == address(0)) {... */\n    tag_239:\n        /* \"@openzeppelin/contracts-upgradeable/access/OwnableUpgradeable.sol\":2176:2208  _transferOwnership(initialOwner) */\n      tag_241\n        /* \"@openzeppelin/contracts-upgradeable/access/OwnableUpgradeable.sol\":2195:2207  initialOwner */\n      dup2\n        /* \"@openzeppelin/contracts-upgradeable/access/OwnableUpgradeable.sol\":2176:2194  _transferOwnership */\n      tag_105\n        /* \"@openzeppelin/contracts-upgradeable/access/OwnableUpgradeable.sol\":2176:2208  _transferOwnership(initialOwner) */\n      jump\t// in\n    tag_241:\n        /* \"@openzeppelin/contracts-upgradeable/access/OwnableUpgradeable.sol\":1980:2215  function __Ownable_init_unchained(address initialOwner) internal onlyInitializing {... */\n      pop\n      jump\t// out\n        /* \"@openzeppelin/contracts-upgradeable/security/PausableUpgradeable.sol\":1187:1282  function __Pausable_init_unchained() internal onlyInitializing {... */\n    tag_225:\n        /* \"@openzeppelin/contracts-upgradeable/proxy/utils/Initializable.sol\":6931:6951  _checkInitializing() */\n      tag_243\n        /* \"@openzeppelin/contracts-upgradeable/proxy/utils/Initializable.sol\":6931:6949  _checkInitializing */\n      tag_217\n        /* \"@openzeppelin/contracts-upgradeable/proxy/utils/Initializable.sol\":6931:6951  _checkInitializing() */\n      jump\t// in\n    tag_243:\n        /* \"@openzeppelin/contracts-upgradeable/security/PausableUpgradeable.sol\":1270:1275  false */\n      0x00\n        /* \"@openzeppelin/contracts-upgradeable/security/PausableUpgradeable.sol\":1260:1267  _paused */\n      dup1\n      0x00\n        /* \"@openzeppelin/contracts-upgradeable/security/PausableUpgradeable.sol\":1260:1275  _paused = false */\n      0x0100\n      exp\n      dup2\n      sload\n      dup2\n      0xff\n      mul\n      not\n      and\n      swap1\n      dup4\n      iszero\n      iszero\n      mul\n      or\n      swap1\n      sstore\n      pop\n        /* \"@openzeppelin/contracts-upgradeable/security/PausableUpgradeable.sol\":1187:1282  function __Pausable_init_unchained() internal onlyInitializing {... */\n      jump\t// out\n        /* \"@openzeppelin/contracts-upgradeable/proxy/utils/Initializable.sol\":8487:8607  function _isInitializing() internal view returns (bool) {... */\n    tag_234:\n        /* \"@openzeppelin/contracts-upgradeable/proxy/utils/Initializable.sol\":8537:8541  bool */\n      0x00\n        /* \"@openzeppelin/contracts-upgradeable/proxy/utils/Initializable.sol\":8560:8586  _getInitializableStorage() */\n      tag_246\n        /* \"@openzeppelin/contracts-upgradeable/proxy/utils/Initializable.sol\":8560:8584  _getInitializableStorage */\n      tag_163\n        /* \"@openzeppelin/contracts-upgradeable/proxy/utils/Initializable.sol\":8560:8586  _getInitializableStorage() */\n      jump\t// in\n    tag_246:\n        /* \"@openzeppelin/contracts-upgradeable/proxy/utils/Initializable.sol\":8560:8600  _getInitializableStorage()._initializing */\n      0x00\n      add\n      0x08\n      swap1\n      sload\n      swap1\n      0x0100\n      exp\n      swap1\n      div\n      0xff\n      and\n        /* \"@openzeppelin/contracts-upgradeable/proxy/utils/Initializable.sol\":8553:8600  return _getInitializableStorage()._initializing */\n      swap1\n      pop\n        /* \"@openzeppelin/contracts-upgradeable/proxy/utils/Initializable.sol\":8487:8607  function _isInitializing() internal view returns (bool) {... */\n      swap1\n      jump\t// out\n        /* \"#utility.yul\":88:205   */\n    tag_248:\n        /* \"#utility.yul\":197:198   */\n      0x00\n        /* \"#utility.yul\":194:195   */\n      dup1\n        /* \"#utility.yul\":187:199   */\n      revert\n        /* \"#utility.yul\":334:411   */\n    tag_250:\n        /* \"#utility.yul\":371:378   */\n      0x00\n        /* \"#utility.yul\":400:405   */\n      dup2\n        /* \"#utility.yul\":389:405   */\n      swap1\n      pop\n        /* \"#utility.yul\":334:411   */\n      swap2\n      swap1\n      pop\n      jump\t// out\n        /* \"#utility.yul\":417:539   */\n    tag_251:\n        /* \"#utility.yul\":490:514   */\n      tag_293\n        /* \"#utility.yul\":508:513   */\n      dup2\n        /* \"#utility.yul\":490:514   */\n      tag_250\n      jump\t// in\n    tag_293:\n        /* \"#utility.yul\":483:488   */\n      dup2\n        /* \"#utility.yul\":480:515   */\n      eq\n        /* \"#utility.yul\":470:533   */\n      tag_294\n      jumpi\n        /* \"#utility.yul\":529:530   */\n      0x00\n        /* \"#utility.yul\":526:527   */\n      dup1\n        /* \"#utility.yul\":519:531   */\n      revert\n        /* \"#utility.yul\":470:533   */\n    tag_294:\n        /* \"#utility.yul\":417:539   */\n      pop\n      jump\t// out\n        /* \"#utility.yul\":545:684   */\n    tag_252:\n        /* \"#utility.yul\":591:596   */\n      0x00\n        /* \"#utility.yul\":629:635   */\n      dup2\n        /* \"#utility.yul\":616:636   */\n      calldataload\n        /* \"#utility.yul\":607:636   */\n      swap1\n      pop\n        /* \"#utility.yul\":645:678   */\n      tag_296\n        /* \"#utility.yul\":672:677   */\n      dup2\n        /* \"#utility.yul\":645:678   */\n      tag_251\n      jump\t// in\n    tag_296:\n        /* \"#utility.yul\":545:684   */\n      swap3\n      swap2\n      pop\n      pop\n      jump\t// out\n        /* \"#utility.yul\":690:1019   */\n    tag_22:\n        /* \"#utility.yul\":749:755   */\n      0x00\n        /* \"#utility.yul\":798:800   */\n      0x20\n        /* \"#utility.yul\":786:795   */\n      dup3\n        /* \"#utility.yul\":777:784   */\n      dup5\n        /* \"#utility.yul\":773:796   */\n      sub\n        /* \"#utility.yul\":769:801   */\n      slt\n        /* \"#utility.yul\":766:885   */\n      iszero\n      tag_298\n      jumpi\n        /* \"#utility.yul\":804:883   */\n      tag_299\n      tag_248\n      jump\t// in\n    tag_299:\n        /* \"#utility.yul\":766:885   */\n    tag_298:\n        /* \"#utility.yul\":924:925   */\n      0x00\n        /* \"#utility.yul\":949:1002   */\n      tag_300\n        /* \"#utility.yul\":994:1001   */\n      dup5\n        /* \"#utility.yul\":985:991   */\n      dup3\n        /* \"#utility.yul\":974:983   */\n      dup6\n        /* \"#utility.yul\":970:992   */\n      add\n        /* \"#utility.yul\":949:1002   */\n      tag_252\n      jump\t// in\n    tag_300:\n        /* \"#utility.yul\":939:1002   */\n      swap2\n      pop\n        /* \"#utility.yul\":895:1012   */\n      pop\n        /* \"#utility.yul\":690:1019   */\n      swap3\n      swap2\n      pop\n      pop\n      jump\t// out\n        /* \"#utility.yul\":1025:1115   */\n    tag_253:\n        /* \"#utility.yul\":1059:1066   */\n      0x00\n        /* \"#utility.yul\":1102:1107   */\n      dup2\n        /* \"#utility.yul\":1095:1108   */\n      iszero\n        /* \"#utility.yul\":1088:1109   */\n      iszero\n        /* \"#utility.yul\":1077:1109   */\n      swap1\n      pop\n        /* \"#utility.yul\":1025:1115   */\n      swap2\n      swap1\n      pop\n      jump\t// out\n        /* \"#utility.yul\":1121:1230   */\n    tag_254:\n        /* \"#utility.yul\":1202:1223   */\n      tag_303\n        /* \"#utility.yul\":1217:1222   */\n      dup2\n        /* \"#utility.yul\":1202:1223   */\n      tag_253\n      jump\t// in\n    tag_303:\n        /* \"#utility.yul\":1197:1200   */\n      dup3\n        /* \"#utility.yul\":1190:1224   */\n      mstore\n        /* \"#utility.yul\":1121:1230   */\n      pop\n      pop\n      jump\t// out\n        /* \"#utility.yul\":1236:1446   */\n    tag_28:\n        /* \"#utility.yul\":1323:1327   */\n      0x00\n        /* \"#utility.yul\":1361:1363   */\n      0x20\n        /* \"#utility.yul\":1350:1359   */\n      dup3\n        /* \"#utility.yul\":1346:1364   */\n      add\n        /* \"#utility.yul\":1338:1364   */\n      swap1\n      pop\n        /* \"#utility.yul\":1374:1439   */\n      tag_305\n        /* \"#utility.yul\":1436:1437   */\n      0x00\n        /* \"#utility.yul\":1425:1434   */\n      dup4\n        /* \"#utility.yul\":1421:1438   */\n      add\n        /* \"#utility.yul\":1412:1418   */\n      dup5\n        /* \"#utility.yul\":1374:1439   */\n      tag_254\n      jump\t// in\n    tag_305:\n        /* \"#utility.yul\":1236:1446   */\n      swap3\n      swap2\n      pop\n      pop\n      jump\t// out\n        /* \"#utility.yul\":1452:1570   */\n    tag_255:\n        /* \"#utility.yul\":1539:1563   */\n      tag_307\n        /* \"#utility.yul\":1557:1562   */\n      dup2\n        /* \"#utility.yul\":1539:1563   */\n      tag_250\n      jump\t// in\n    tag_307:\n        /* \"#utility.yul\":1534:1537   */\n      dup3\n        /* \"#utility.yul\":1527:1564   */\n      mstore\n        /* \"#utility.yul\":1452:1570   */\n      pop\n      pop\n      jump\t// out\n        /* \"#utility.yul\":1576:1798   */\n    tag_33:\n        /* \"#utility.yul\":1669:1673   */\n      0x00\n        /* \"#utility.yul\":1707:1709   */\n      0x20\n        /* \"#utility.yul\":1696:1705   */\n      dup3\n        /* \"#utility.yul\":1692:1710   */\n      add\n        /* \"#utility.yul\":1684:1710   */\n      swap1\n      pop\n        /* \"#utility.yul\":1720:1791   */\n      tag_309\n        /* \"#utility.yul\":1788:1789   */\n      0x00\n        /* \"#utility.yul\":1777:1786   */\n      dup4\n        /* \"#utility.yul\":1773:1790   */\n      add\n        /* \"#utility.yul\":1764:1770   */\n      dup5\n        /* \"#utility.yul\":1720:1791   */\n      tag_255\n      jump\t// in\n    tag_309:\n        /* \"#utility.yul\":1576:1798   */\n      swap3\n      swap2\n      pop\n      pop\n      jump\t// out\n        /* \"#utility.yul\":1804:1930   */\n    tag_256:\n        /* \"#utility.yul\":1841:1848   */\n      0x00\n        /* \"#utility.yul\":1881:1923   */\n      0xffffffffffffffffffffffffffffffffffffffff\n        /* \"#utility.yul\":1874:1879   */\n      dup3\n        /* \"#utility.yul\":1870:1924   */\n      and\n        /* \"#utility.yul\":1859:1924   */\n      swap1\n      pop\n        /* \"#utility.yul\":1804:1930   */\n      swap2\n      swap1\n      pop\n      jump\t// out\n        /* \"#utility.yul\":1936:2032   */\n    tag_257:\n        /* \"#utility.yul\":1973:1980   */\n      0x00\n        /* \"#utility.yul\":2002:2026   */\n      tag_312\n        /* \"#utility.yul\":2020:2025   */\n      dup3\n        /* \"#utility.yul\":2002:2026   */\n      tag_256\n      jump\t// in\n    tag_312:\n        /* \"#utility.yul\":1991:2026   */\n      swap1\n      pop\n        /* \"#utility.yul\":1936:2032   */\n      swap2\n      swap1\n      pop\n      jump\t// out\n        /* \"#utility.yul\":2038:2156   */\n    tag_258:\n        /* \"#utility.yul\":2125:2149   */\n      tag_314\n        /* \"#utility.yul\":2143:2148   */\n      dup2\n        /* \"#utility.yul\":2125:2149   */\n      tag_257\n      jump\t// in\n    tag_314:\n        /* \"#utility.yul\":2120:2123   */\n      dup3\n        /* \"#utility.yul\":2113:2150   */\n      mstore\n        /* \"#utility.yul\":2038:2156   */\n      pop\n      pop\n      jump\t// out\n        /* \"#utility.yul\":2162:2384   */\n    tag_44:\n        /* \"#utility.yul\":2255:2259   */\n      0x00\n        /* \"#utility.yul\":2293:2295   */\n      0x20\n        /* \"#utility.yul\":2282:2291   */\n      dup3\n        /* \"#utility.yul\":2278:2296   */\n      add\n        /* \"#utility.yul\":2270:2296   */\n      swap1\n      pop\n        /* \"#utility.yul\":2306:2377   */\n      tag_316\n        /* \"#utility.yul\":2374:2375   */\n      0x00\n        /* \"#utility.yul\":2363:2372   */\n      dup4\n        /* \"#utility.yul\":2359:2376   */\n      add\n        /* \"#utility.yul\":2350:2356   */\n      dup5\n        /* \"#utility.yul\":2306:2377   */\n      tag_258\n      jump\t// in\n    tag_316:\n        /* \"#utility.yul\":2162:2384   */\n      swap3\n      swap2\n      pop\n      pop\n      jump\t// out\n        /* \"#utility.yul\":2390:2512   */\n    tag_259:\n        /* \"#utility.yul\":2463:2487   */\n      tag_318\n        /* \"#utility.yul\":2481:2486   */\n      dup2\n        /* \"#utility.yul\":2463:2487   */\n      tag_257\n      jump\t// in\n    tag_318:\n        /* \"#utility.yul\":2456:2461   */\n      dup2\n        /* \"#utility.yul\":2453:2488   */\n      eq\n        /* \"#utility.yul\":2443:2506   */\n      tag_319\n      jumpi\n        /* \"#utility.yul\":2502:2503   */\n      0x00\n        /* \"#utility.yul\":2499:2500   */\n      dup1\n        /* \"#utility.yul\":2492:2504   */\n      revert\n        /* \"#utility.yul\":2443:2506   */\n    tag_319:\n        /* \"#utility.yul\":2390:2512   */\n      pop\n      jump\t// out\n        /* \"#utility.yul\":2518:2657   */\n    tag_260:\n        /* \"#utility.yul\":2564:2569   */\n      0x00\n        /* \"#utility.yul\":2602:2608   */\n      dup2\n        /* \"#utility.yul\":2589:2609   */\n      calldataload\n        /* \"#utility.yul\":2580:2609   */\n      swap1\n      pop\n        /* \"#utility.yul\":2618:2651   */\n      tag_321\n        /* \"#utility.yul\":2645:2650   */\n      dup2\n        /* \"#utility.yul\":2618:2651   */\n      tag_259\n      jump\t// in\n    tag_321:\n        /* \"#utility.yul\":2518:2657   */\n      swap3\n      swap2\n      pop\n      pop\n      jump\t// out\n        /* \"#utility.yul\":2663:3137   */\n    tag_48:\n        /* \"#utility.yul\":2731:2737   */\n      0x00\n        /* \"#utility.yul\":2739:2745   */\n      dup1\n        /* \"#utility.yul\":2788:2790   */\n      0x40\n        /* \"#utility.yul\":2776:2785   */\n      dup4\n        /* \"#utility.yul\":2767:2774   */\n      dup6\n        /* \"#utility.yul\":2763:2786   */\n      sub\n        /* \"#utility.yul\":2759:2791   */\n      slt\n        /* \"#utility.yul\":2756:2875   */\n      iszero\n      tag_323\n      jumpi\n        /* \"#utility.yul\":2794:2873   */\n      tag_324\n      tag_248\n      jump\t// in\n    tag_324:\n        /* \"#utility.yul\":2756:2875   */\n    tag_323:\n        /* \"#utility.yul\":2914:2915   */\n      0x00\n        /* \"#utility.yul\":2939:2992   */\n      tag_325\n        /* \"#utility.yul\":2984:2991   */\n      dup6\n        /* \"#utility.yul\":2975:2981   */\n      dup3\n        /* \"#utility.yul\":2964:2973   */\n      dup7\n        /* \"#utility.yul\":2960:2982   */\n      add\n        /* \"#utility.yul\":2939:2992   */\n      tag_252\n      jump\t// in\n    tag_325:\n        /* \"#utility.yul\":2929:2992   */\n      swap3\n      pop\n        /* \"#utility.yul\":2885:3002   */\n      pop\n        /* \"#utility.yul\":3041:3043   */\n      0x20\n        /* \"#utility.yul\":3067:3120   */\n      tag_326\n        /* \"#utility.yul\":3112:3119   */\n      dup6\n        /* \"#utility.yul\":3103:3109   */\n      dup3\n        /* \"#utility.yul\":3092:3101   */\n      dup7\n        /* \"#utility.yul\":3088:3110   */\n      add\n        /* \"#utility.yul\":3067:3120   */\n      tag_260\n      jump\t// in\n    tag_326:\n        /* \"#utility.yul\":3057:3120   */\n      swap2\n      pop\n        /* \"#utility.yul\":3012:3130   */\n      pop\n        /* \"#utility.yul\":2663:3137   */\n      swap3\n      pop\n      swap3\n      swap1\n      pop\n      jump\t// out\n        /* \"#utility.yul\":3143:3762   */\n    tag_53:\n        /* \"#utility.yul\":3220:3226   */\n      0x00\n        /* \"#utility.yul\":3228:3234   */\n      dup1\n        /* \"#utility.yul\":3236:3242   */\n      0x00\n        /* \"#utility.yul\":3285:3287   */\n      0x60\n        /* \"#utility.yul\":3273:3282   */\n      dup5\n        /* \"#utility.yul\":3264:3271   */\n      dup7\n        /* \"#utility.yul\":3260:3283   */\n      sub\n        /* \"#utility.yul\":3256:3288   */\n      slt\n        /* \"#utility.yul\":3253:3372   */\n      iszero\n      tag_328\n      jumpi\n        /* \"#utility.yul\":3291:3370   */\n      tag_329\n      tag_248\n      jump\t// in\n    tag_329:\n        /* \"#utility.yul\":3253:3372   */\n    tag_328:\n        /* \"#utility.yul\":3411:3412   */\n      0x00\n        /* \"#utility.yul\":3436:3489   */\n      tag_330\n        /* \"#utility.yul\":3481:3488   */\n      dup7\n        /* \"#utility.yul\":3472:3478   */\n      dup3\n        /* \"#utility.yul\":3461:3470   */\n      dup8\n        /* \"#utility.yul\":3457:3479   */\n      add\n        /* \"#utility.yul\":3436:3489   */\n      tag_260\n      jump\t// in\n    tag_330:\n        /* \"#utility.yul\":3426:3489   */\n      swap4\n      pop\n        /* \"#utility.yul\":3382:3499   */\n      pop\n        /* \"#utility.yul\":3538:3540   */\n      0x20\n        /* \"#utility.yul\":3564:3617   */\n      tag_331\n        /* \"#utility.yul\":3609:3616   */\n      dup7\n        /* \"#utility.yul\":3600:3606   */\n      dup3\n        /* \"#utility.yul\":3589:3598   */\n      dup8\n        /* \"#utility.yul\":3585:3607   */\n      add\n        /* \"#utility.yul\":3564:3617   */\n      tag_252\n      jump\t// in\n    tag_331:\n        /* \"#utility.yul\":3554:3617   */\n      swap3\n      pop\n        /* \"#utility.yul\":3509:3627   */\n      pop\n        /* \"#utility.yul\":3666:3668   */\n      0x40\n        /* \"#utility.yul\":3692:3745   */\n      tag_332\n        /* \"#utility.yul\":3737:3744   */\n      dup7\n        /* \"#utility.yul\":3728:3734   */\n      dup3\n        /* \"#utility.yul\":3717:3726   */\n      dup8\n        /* \"#utility.yul\":3713:3735   */\n      add\n        /* \"#utility.yul\":3692:3745   */\n      tag_252\n      jump\t// in\n    tag_332:\n        /* \"#utility.yul\":3682:3745   */\n      swap2\n      pop\n        /* \"#utility.yul\":3637:3755   */\n      pop\n        /* \"#utility.yul\":3143:3762   */\n      swap3\n      pop\n      swap3\n      pop\n      swap3\n      jump\t// out\n        /* \"#utility.yul\":3768:4097   */\n    tag_58:\n        /* \"#utility.yul\":3827:3833   */\n      0x00\n        /* \"#utility.yul\":3876:3878   */\n      0x20\n        /* \"#utility.yul\":3864:3873   */\n      dup3\n        /* \"#utility.yul\":3855:3862   */\n      dup5\n        /* \"#utility.yul\":3851:3874   */\n      sub\n        /* \"#utility.yul\":3847:3879   */\n      slt\n        /* \"#utility.yul\":3844:3963   */\n      iszero\n      tag_334\n      jumpi\n        /* \"#utility.yul\":3882:3961   */\n      tag_335\n      tag_248\n      jump\t// in\n    tag_335:\n        /* \"#utility.yul\":3844:3963   */\n    tag_334:\n        /* \"#utility.yul\":4002:4003   */\n      0x00\n        /* \"#utility.yul\":4027:4080   */\n      tag_336\n        /* \"#utility.yul\":4072:4079   */\n      dup5\n        /* \"#utility.yul\":4063:4069   */\n      dup3\n        /* \"#utility.yul\":4052:4061   */\n      dup6\n        /* \"#utility.yul\":4048:4070   */\n      add\n        /* \"#utility.yul\":4027:4080   */\n      tag_260\n      jump\t// in\n    tag_336:\n        /* \"#utility.yul\":4017:4080   */\n      swap2\n      pop\n        /* \"#utility.yul\":3973:4090   */\n      pop\n        /* \"#utility.yul\":3768:4097   */\n      swap3\n      swap2\n      pop\n      pop\n      jump\t// out\n        /* \"#utility.yul\":4103:4656   */\n    tag_65:\n        /* \"#utility.yul\":4280:4284   */\n      0x00\n        /* \"#utility.yul\":4318:4321   */\n      0x80\n        /* \"#utility.yul\":4307:4316   */\n      dup3\n        /* \"#utility.yul\":4303:4322   */\n      add\n        /* \"#utility.yul\":4295:4322   */\n      swap1\n      pop\n        /* \"#utility.yul\":4332:4403   */\n      tag_338\n        /* \"#utility.yul\":4400:4401   */\n      0x00\n        /* \"#utility.yul\":4389:4398   */\n      dup4\n        /* \"#utility.yul\":4385:4402   */\n      add\n        /* \"#utility.yul\":4376:4382   */\n      dup8\n        /* \"#utility.yul\":4332:4403   */\n      tag_258\n      jump\t// in\n    tag_338:\n        /* \"#utility.yul\":4413:4485   */\n      tag_339\n        /* \"#utility.yul\":4481:4483   */\n      0x20\n        /* \"#utility.yul\":4470:4479   */\n      dup4\n        /* \"#utility.yul\":4466:4484   */\n      add\n        /* \"#utility.yul\":4457:4463   */\n      dup7\n        /* \"#utility.yul\":4413:4485   */\n      tag_255\n      jump\t// in\n    tag_339:\n        /* \"#utility.yul\":4495:4567   */\n      tag_340\n        /* \"#utility.yul\":4563:4565   */\n      0x40\n        /* \"#utility.yul\":4552:4561   */\n      dup4\n        /* \"#utility.yul\":4548:4566   */\n      add\n        /* \"#utility.yul\":4539:4545   */\n      dup6\n        /* \"#utility.yul\":4495:4567   */\n      tag_258\n      jump\t// in\n    tag_340:\n        /* \"#utility.yul\":4577:4649   */\n      tag_341\n        /* \"#utility.yul\":4645:4647   */\n      0x60\n        /* \"#utility.yul\":4634:4643   */\n      dup4\n        /* \"#utility.yul\":4630:4648   */\n      add\n        /* \"#utility.yul\":4621:4627   */\n      dup5\n        /* \"#utility.yul\":4577:4649   */\n      tag_255\n      jump\t// in\n    tag_341:\n        /* \"#utility.yul\":4103:4656   */\n      swap6\n      swap5\n      pop\n      pop\n      pop\n      pop\n      pop\n      jump\t// out\n        /* \"#utility.yul\":4662:4831   */\n    tag_261:\n        /* \"#utility.yul\":4746:4757   */\n      0x00\n        /* \"#utility.yul\":4780:4786   */\n      dup3\n        /* \"#utility.yul\":4775:4778   */\n      dup3\n        /* \"#utility.yul\":4768:4787   */\n      mstore\n        /* \"#utility.yul\":4820:4824   */\n      0x20\n        /* \"#utility.yul\":4815:4818   */\n      dup3\n        /* \"#utility.yul\":4811:4825   */\n      add\n        /* \"#utility.yul\":4796:4825   */\n      swap1\n      pop\n        /* \"#utility.yul\":4662:4831   */\n      swap3\n      swap2\n      pop\n      pop\n      jump\t// out\n        /* \"#utility.yul\":4837:5018   */\n    tag_262:\n        /* \"#utility.yul\":4977:5010   */\n      0x4e6f20736520686120656e766961646f20737566696369656e74652045544800\n        /* \"#utility.yul\":4973:4974   */\n      0x00\n        /* \"#utility.yul\":4965:4971   */\n      dup3\n        /* \"#utility.yul\":4961:4975   */\n      add\n        /* \"#utility.yul\":4954:5011   */\n      mstore\n        /* \"#utility.yul\":4837:5018   */\n      pop\n      jump\t// out\n        /* \"#utility.yul\":5024:5390   */\n    tag_263:\n        /* \"#utility.yul\":5166:5169   */\n      0x00\n        /* \"#utility.yul\":5187:5254   */\n      tag_345\n        /* \"#utility.yul\":5251:5253   */\n      0x1f\n        /* \"#utility.yul\":5246:5249   */\n      dup4\n        /* \"#utility.yul\":5187:5254   */\n      tag_261\n      jump\t// in\n    tag_345:\n        /* \"#utility.yul\":5180:5254   */\n      swap2\n      pop\n        /* \"#utility.yul\":5263:5356   */\n      tag_346\n        /* \"#utility.yul\":5352:5355   */\n      dup3\n        /* \"#utility.yul\":5263:5356   */\n      tag_262\n      jump\t// in\n    tag_346:\n        /* \"#utility.yul\":5381:5383   */\n      0x20\n        /* \"#utility.yul\":5376:5379   */\n      dup3\n        /* \"#utility.yul\":5372:5384   */\n      add\n        /* \"#utility.yul\":5365:5384   */\n      swap1\n      pop\n        /* \"#utility.yul\":5024:5390   */\n      swap2\n      swap1\n      pop\n      jump\t// out\n        /* \"#utility.yul\":5396:5815   */\n    tag_89:\n        /* \"#utility.yul\":5562:5566   */\n      0x00\n        /* \"#utility.yul\":5600:5602   */\n      0x20\n        /* \"#utility.yul\":5589:5598   */\n      dup3\n        /* \"#utility.yul\":5585:5603   */\n      add\n        /* \"#utility.yul\":5577:5603   */\n      swap1\n      pop\n        /* \"#utility.yul\":5649:5658   */\n      dup2\n        /* \"#utility.yul\":5643:5647   */\n      dup2\n        /* \"#utility.yul\":5639:5659   */\n      sub\n        /* \"#utility.yul\":5635:5636   */\n      0x00\n        /* \"#utility.yul\":5624:5633   */\n      dup4\n        /* \"#utility.yul\":5620:5637   */\n      add\n        /* \"#utility.yul\":5613:5660   */\n      mstore\n        /* \"#utility.yul\":5677:5808   */\n      tag_348\n        /* \"#utility.yul\":5803:5807   */\n      dup2\n        /* \"#utility.yul\":5677:5808   */\n      tag_263\n      jump\t// in\n    tag_348:\n        /* \"#utility.yul\":5669:5808   */\n      swap1\n      pop\n        /* \"#utility.yul\":5396:5815   */\n      swap2\n      swap1\n      pop\n      jump\t// out\n        /* \"#utility.yul\":5821:6263   */\n    tag_91:\n        /* \"#utility.yul\":5970:5974   */\n      0x00\n        /* \"#utility.yul\":6008:6010   */\n      0x60\n        /* \"#utility.yul\":5997:6006   */\n      dup3\n        /* \"#utility.yul\":5993:6011   */\n      add\n        /* \"#utility.yul\":5985:6011   */\n      swap1\n      pop\n        /* \"#utility.yul\":6021:6092   */\n      tag_350\n        /* \"#utility.yul\":6089:6090   */\n      0x00\n        /* \"#utility.yul\":6078:6087   */\n      dup4\n        /* \"#utility.yul\":6074:6091   */\n      add\n        /* \"#utility.yul\":6065:6071   */\n      dup7\n        /* \"#utility.yul\":6021:6092   */\n      tag_258\n      jump\t// in\n    tag_350:\n        /* \"#utility.yul\":6102:6174   */\n      tag_351\n        /* \"#utility.yul\":6170:6172   */\n      0x20\n        /* \"#utility.yul\":6159:6168   */\n      dup4\n        /* \"#utility.yul\":6155:6173   */\n      add\n        /* \"#utility.yul\":6146:6152   */\n      dup6\n        /* \"#utility.yul\":6102:6174   */\n      tag_258\n      jump\t// in\n    tag_351:\n        /* \"#utility.yul\":6184:6256   */\n      tag_352\n        /* \"#utility.yul\":6252:6254   */\n      0x40\n        /* \"#utility.yul\":6241:6250   */\n      dup4\n        /* \"#utility.yul\":6237:6255   */\n      add\n        /* \"#utility.yul\":6228:6234   */\n      dup5\n        /* \"#utility.yul\":6184:6256   */\n      tag_255\n      jump\t// in\n    tag_352:\n        /* \"#utility.yul\":5821:6263   */\n      swap5\n      swap4\n      pop\n      pop\n      pop\n      pop\n      jump\t// out\n        /* \"#utility.yul\":6269:6496   */\n    tag_264:\n        /* \"#utility.yul\":6409:6443   */\n      0x536f6c6f20656c2076656e6465646f72207075656465207472616e7366657269\n        /* \"#utility.yul\":6405:6406   */\n      0x00\n        /* \"#utility.yul\":6397:6403   */\n      dup3\n        /* \"#utility.yul\":6393:6407   */\n      add\n        /* \"#utility.yul\":6386:6444   */\n      mstore\n        /* \"#utility.yul\":6478:6488   */\n      0x7220656c204e4654000000000000000000000000000000000000000000000000\n        /* \"#utility.yul\":6473:6475   */\n      0x20\n        /* \"#utility.yul\":6465:6471   */\n      dup3\n        /* \"#utility.yul\":6461:6476   */\n      add\n        /* \"#utility.yul\":6454:6489   */\n      mstore\n        /* \"#utility.yul\":6269:6496   */\n      pop\n      jump\t// out\n        /* \"#utility.yul\":6502:6868   */\n    tag_265:\n        /* \"#utility.yul\":6644:6647   */\n      0x00\n        /* \"#utility.yul\":6665:6732   */\n      tag_355\n        /* \"#utility.yul\":6729:6731   */\n      0x28\n        /* \"#utility.yul\":6724:6727   */\n      dup4\n        /* \"#utility.yul\":6665:6732   */\n      tag_261\n      jump\t// in\n    tag_355:\n        /* \"#utility.yul\":6658:6732   */\n      swap2\n      pop\n        /* \"#utility.yul\":6741:6834   */\n      tag_356\n        /* \"#utility.yul\":6830:6833   */\n      dup3\n        /* \"#utility.yul\":6741:6834   */\n      tag_264\n      jump\t// in\n    tag_356:\n        /* \"#utility.yul\":6859:6861   */\n      0x40\n        /* \"#utility.yul\":6854:6857   */\n      dup3\n        /* \"#utility.yul\":6850:6862   */\n      add\n        /* \"#utility.yul\":6843:6862   */\n      swap1\n      pop\n        /* \"#utility.yul\":6502:6868   */\n      swap2\n      swap1\n      pop\n      jump\t// out\n        /* \"#utility.yul\":6874:7293   */\n    tag_121:\n        /* \"#utility.yul\":7040:7044   */\n      0x00\n        /* \"#utility.yul\":7078:7080   */\n      0x20\n        /* \"#utility.yul\":7067:7076   */\n      dup3\n        /* \"#utility.yul\":7063:7081   */\n      add\n        /* \"#utility.yul\":7055:7081   */\n      swap1\n      pop\n        /* \"#utility.yul\":7127:7136   */\n      dup2\n        /* \"#utility.yul\":7121:7125   */\n      dup2\n        /* \"#utility.yul\":7117:7137   */\n      sub\n        /* \"#utility.yul\":7113:7114   */\n      0x00\n        /* \"#utility.yul\":7102:7111   */\n      dup4\n        /* \"#utility.yul\":7098:7115   */\n      add\n        /* \"#utility.yul\":7091:7138   */\n      mstore\n        /* \"#utility.yul\":7155:7286   */\n      tag_358\n        /* \"#utility.yul\":7281:7285   */\n      dup2\n        /* \"#utility.yul\":7155:7286   */\n      tag_265\n      jump\t// in\n    tag_358:\n        /* \"#utility.yul\":7147:7286   */\n      swap1\n      pop\n        /* \"#utility.yul\":6874:7293   */\n      swap2\n      swap1\n      pop\n      jump\t// out\n        /* \"#utility.yul\":7299:7477   */\n    tag_266:\n        /* \"#utility.yul\":7439:7469   */\n      0x456c2070726563696f206465626520736572206d61796f722061203000000000\n        /* \"#utility.yul\":7435:7436   */\n      0x00\n        /* \"#utility.yul\":7427:7433   */\n      dup3\n        /* \"#utility.yul\":7423:7437   */\n      add\n        /* \"#utility.yul\":7416:7470   */\n      mstore\n        /* \"#utility.yul\":7299:7477   */\n      pop\n      jump\t// out\n        /* \"#utility.yul\":7483:7849   */\n    tag_267:\n        /* \"#utility.yul\":7625:7628   */\n      0x00\n        /* \"#utility.yul\":7646:7713   */\n      tag_361\n        /* \"#utility.yul\":7710:7712   */\n      0x1c\n        /* \"#utility.yul\":7705:7708   */\n      dup4\n        /* \"#utility.yul\":7646:7713   */\n      tag_261\n      jump\t// in\n    tag_361:\n        /* \"#utility.yul\":7639:7713   */\n      swap2\n      pop\n        /* \"#utility.yul\":7722:7815   */\n      tag_362\n        /* \"#utility.yul\":7811:7814   */\n      dup3\n        /* \"#utility.yul\":7722:7815   */\n      tag_266\n      jump\t// in\n    tag_362:\n        /* \"#utility.yul\":7840:7842   */\n      0x20\n        /* \"#utility.yul\":7835:7838   */\n      dup3\n        /* \"#utility.yul\":7831:7843   */\n      add\n        /* \"#utility.yul\":7824:7843   */\n      swap1\n      pop\n        /* \"#utility.yul\":7483:7849   */\n      swap2\n      swap1\n      pop\n      jump\t// out\n        /* \"#utility.yul\":7855:8274   */\n    tag_134:\n        /* \"#utility.yul\":8021:8025   */\n      0x00\n        /* \"#utility.yul\":8059:8061   */\n      0x20\n        /* \"#utility.yul\":8048:8057   */\n      dup3\n        /* \"#utility.yul\":8044:8062   */\n      add\n        /* \"#utility.yul\":8036:8062   */\n      swap1\n      pop\n        /* \"#utility.yul\":8108:8117   */\n      dup2\n        /* \"#utility.yul\":8102:8106   */\n      dup2\n        /* \"#utility.yul\":8098:8118   */\n      sub\n        /* \"#utility.yul\":8094:8095   */\n      0x00\n        /* \"#utility.yul\":8083:8092   */\n      dup4\n        /* \"#utility.yul\":8079:8096   */\n      add\n        /* \"#utility.yul\":8072:8119   */\n      mstore\n        /* \"#utility.yul\":8136:8267   */\n      tag_364\n        /* \"#utility.yul\":8262:8266   */\n      dup2\n        /* \"#utility.yul\":8136:8267   */\n      tag_267\n      jump\t// in\n    tag_364:\n        /* \"#utility.yul\":8128:8267   */\n      swap1\n      pop\n        /* \"#utility.yul\":7855:8274   */\n      swap2\n      swap1\n      pop\n      jump\t// out\n        /* \"#utility.yul\":8280:8423   */\n    tag_268:\n        /* \"#utility.yul\":8337:8342   */\n      0x00\n        /* \"#utility.yul\":8368:8374   */\n      dup2\n        /* \"#utility.yul\":8362:8375   */\n      mload\n        /* \"#utility.yul\":8353:8375   */\n      swap1\n      pop\n        /* \"#utility.yul\":8384:8417   */\n      tag_366\n        /* \"#utility.yul\":8411:8416   */\n      dup2\n        /* \"#utility.yul\":8384:8417   */\n      tag_259\n      jump\t// in\n    tag_366:\n        /* \"#utility.yul\":8280:8423   */\n      swap3\n      swap2\n      pop\n      pop\n      jump\t// out\n        /* \"#utility.yul\":8429:8780   */\n    tag_139:\n        /* \"#utility.yul\":8499:8505   */\n      0x00\n        /* \"#utility.yul\":8548:8550   */\n      0x20\n        /* \"#utility.yul\":8536:8545   */\n      dup3\n        /* \"#utility.yul\":8527:8534   */\n      dup5\n        /* \"#utility.yul\":8523:8546   */\n      sub\n        /* \"#utility.yul\":8519:8551   */\n      slt\n        /* \"#utility.yul\":8516:8635   */\n      iszero\n      tag_368\n      jumpi\n        /* \"#utility.yul\":8554:8633   */\n      tag_369\n      tag_248\n      jump\t// in\n    tag_369:\n        /* \"#utility.yul\":8516:8635   */\n    tag_368:\n        /* \"#utility.yul\":8674:8675   */\n      0x00\n        /* \"#utility.yul\":8699:8763   */\n      tag_370\n        /* \"#utility.yul\":8755:8762   */\n      dup5\n        /* \"#utility.yul\":8746:8752   */\n      dup3\n        /* \"#utility.yul\":8735:8744   */\n      dup6\n        /* \"#utility.yul\":8731:8753   */\n      add\n        /* \"#utility.yul\":8699:8763   */\n      tag_268\n      jump\t// in\n    tag_370:\n        /* \"#utility.yul\":8689:8763   */\n      swap2\n      pop\n        /* \"#utility.yul\":8645:8773   */\n      pop\n        /* \"#utility.yul\":8429:8780   */\n      swap3\n      swap2\n      pop\n      pop\n      jump\t// out\n        /* \"#utility.yul\":8786:8966   */\n    tag_269:\n        /* \"#utility.yul\":8926:8958   */\n      0x4e6f206572657320656c2070726f706965746172696f2064656c204e46540000\n        /* \"#utility.yul\":8922:8923   */\n      0x00\n        /* \"#utility.yul\":8914:8920   */\n      dup3\n        /* \"#utility.yul\":8910:8924   */\n      add\n        /* \"#utility.yul\":8903:8959   */\n      mstore\n        /* \"#utility.yul\":8786:8966   */\n      pop\n      jump\t// out\n        /* \"#utility.yul\":8972:9338   */\n    tag_270:\n        /* \"#utility.yul\":9114:9117   */\n      0x00\n        /* \"#utility.yul\":9135:9202   */\n      tag_373\n        /* \"#utility.yul\":9199:9201   */\n      0x1e\n        /* \"#utility.yul\":9194:9197   */\n      dup4\n        /* \"#utility.yul\":9135:9202   */\n      tag_261\n      jump\t// in\n    tag_373:\n        /* \"#utility.yul\":9128:9202   */\n      swap2\n      pop\n        /* \"#utility.yul\":9211:9304   */\n      tag_374\n        /* \"#utility.yul\":9300:9303   */\n      dup3\n        /* \"#utility.yul\":9211:9304   */\n      tag_269\n      jump\t// in\n    tag_374:\n        /* \"#utility.yul\":9329:9331   */\n      0x20\n        /* \"#utility.yul\":9324:9327   */\n      dup3\n        /* \"#utility.yul\":9320:9332   */\n      add\n        /* \"#utility.yul\":9313:9332   */\n      swap1\n      pop\n        /* \"#utility.yul\":8972:9338   */\n      swap2\n      swap1\n      pop\n      jump\t// out\n        /* \"#utility.yul\":9344:9763   */\n    tag_142:\n        /* \"#utility.yul\":9510:9514   */\n      0x00\n        /* \"#utility.yul\":9548:9550   */\n      0x20\n        /* \"#utility.yul\":9537:9546   */\n      dup3\n        /* \"#utility.yul\":9533:9551   */\n      add\n        /* \"#utility.yul\":9525:9551   */\n      swap1\n      pop\n        /* \"#utility.yul\":9597:9606   */\n      dup2\n        /* \"#utility.yul\":9591:9595   */\n      dup2\n        /* \"#utility.yul\":9587:9607   */\n      sub\n        /* \"#utility.yul\":9583:9584   */\n      0x00\n        /* \"#utility.yul\":9572:9581   */\n      dup4\n        /* \"#utility.yul\":9568:9585   */\n      add\n        /* \"#utility.yul\":9561:9608   */\n      mstore\n        /* \"#utility.yul\":9625:9756   */\n      tag_376\n        /* \"#utility.yul\":9751:9755   */\n      dup2\n        /* \"#utility.yul\":9625:9756   */\n      tag_270\n      jump\t// in\n    tag_376:\n        /* \"#utility.yul\":9617:9756   */\n      swap1\n      pop\n        /* \"#utility.yul\":9344:9763   */\n      swap2\n      swap1\n      pop\n      jump\t// out\n        /* \"#utility.yul\":9769:10101   */\n    tag_144:\n        /* \"#utility.yul\":9890:9894   */\n      0x00\n        /* \"#utility.yul\":9928:9930   */\n      0x40\n        /* \"#utility.yul\":9917:9926   */\n      dup3\n        /* \"#utility.yul\":9913:9931   */\n      add\n        /* \"#utility.yul\":9905:9931   */\n      swap1\n      pop\n        /* \"#utility.yul\":9941:10012   */\n      tag_378\n        /* \"#utility.yul\":10009:10010   */\n      0x00\n        /* \"#utility.yul\":9998:10007   */\n      dup4\n        /* \"#utility.yul\":9994:10011   */\n      add\n        /* \"#utility.yul\":9985:9991   */\n      dup6\n        /* \"#utility.yul\":9941:10012   */\n      tag_258\n      jump\t// in\n    tag_378:\n        /* \"#utility.yul\":10022:10094   */\n      tag_379\n        /* \"#utility.yul\":10090:10092   */\n      0x20\n        /* \"#utility.yul\":10079:10088   */\n      dup4\n        /* \"#utility.yul\":10075:10093   */\n      add\n        /* \"#utility.yul\":10066:10072   */\n      dup5\n        /* \"#utility.yul\":10022:10094   */\n      tag_258\n      jump\t// in\n    tag_379:\n        /* \"#utility.yul\":9769:10101   */\n      swap4\n      swap3\n      pop\n      pop\n      pop\n      jump\t// out\n        /* \"#utility.yul\":10107:10223   */\n    tag_271:\n        /* \"#utility.yul\":10177:10198   */\n      tag_381\n        /* \"#utility.yul\":10192:10197   */\n      dup2\n        /* \"#utility.yul\":10177:10198   */\n      tag_253\n      jump\t// in\n    tag_381:\n        /* \"#utility.yul\":10170:10175   */\n      dup2\n        /* \"#utility.yul\":10167:10199   */\n      eq\n        /* \"#utility.yul\":10157:10217   */\n      tag_382\n      jumpi\n        /* \"#utility.yul\":10213:10214   */\n      0x00\n        /* \"#utility.yul\":10210:10211   */\n      dup1\n        /* \"#utility.yul\":10203:10215   */\n      revert\n        /* \"#utility.yul\":10157:10217   */\n    tag_382:\n        /* \"#utility.yul\":10107:10223   */\n      pop\n      jump\t// out\n        /* \"#utility.yul\":10229:10366   */\n    tag_272:\n        /* \"#utility.yul\":10283:10288   */\n      0x00\n        /* \"#utility.yul\":10314:10320   */\n      dup2\n        /* \"#utility.yul\":10308:10321   */\n      mload\n        /* \"#utility.yul\":10299:10321   */\n      swap1\n      pop\n        /* \"#utility.yul\":10330:10360   */\n      tag_384\n        /* \"#utility.yul\":10354:10359   */\n      dup2\n        /* \"#utility.yul\":10330:10360   */\n      tag_271\n      jump\t// in\n    tag_384:\n        /* \"#utility.yul\":10229:10366   */\n      swap3\n      swap2\n      pop\n      pop\n      jump\t// out\n        /* \"#utility.yul\":10372:10717   */\n    tag_148:\n        /* \"#utility.yul\":10439:10445   */\n      0x00\n        /* \"#utility.yul\":10488:10490   */\n      0x20\n        /* \"#utility.yul\":10476:10485   */\n      dup3\n        /* \"#utility.yul\":10467:10474   */\n      dup5\n        /* \"#utility.yul\":10463:10486   */\n      sub\n        /* \"#utility.yul\":10459:10491   */\n      slt\n        /* \"#utility.yul\":10456:10575   */\n      iszero\n      tag_386\n      jumpi\n        /* \"#utility.yul\":10494:10573   */\n      tag_387\n      tag_248\n      jump\t// in\n    tag_387:\n        /* \"#utility.yul\":10456:10575   */\n    tag_386:\n        /* \"#utility.yul\":10614:10615   */\n      0x00\n        /* \"#utility.yul\":10639:10700   */\n      tag_388\n        /* \"#utility.yul\":10692:10699   */\n      dup5\n        /* \"#utility.yul\":10683:10689   */\n      dup3\n        /* \"#utility.yul\":10672:10681   */\n      dup6\n        /* \"#utility.yul\":10668:10690   */\n      add\n        /* \"#utility.yul\":10639:10700   */\n      tag_272\n      jump\t// in\n    tag_388:\n        /* \"#utility.yul\":10629:10700   */\n      swap2\n      pop\n        /* \"#utility.yul\":10585:10710   */\n      pop\n        /* \"#utility.yul\":10372:10717   */\n      swap3\n      swap2\n      pop\n      pop\n      jump\t// out\n        /* \"#utility.yul\":10723:10953   */\n    tag_273:\n        /* \"#utility.yul\":10863:10897   */\n      0x4d61726b6574706c616365206e6f206170726f6261646f2070617261206d616e\n        /* \"#utility.yul\":10859:10860   */\n      0x00\n        /* \"#utility.yul\":10851:10857   */\n      dup3\n        /* \"#utility.yul\":10847:10861   */\n      add\n        /* \"#utility.yul\":10840:10898   */\n      mstore\n        /* \"#utility.yul\":10932:10945   */\n      0x656a617220656c204e4654000000000000000000000000000000000000000000\n        /* \"#utility.yul\":10927:10929   */\n      0x20\n        /* \"#utility.yul\":10919:10925   */\n      dup3\n        /* \"#utility.yul\":10915:10930   */\n      add\n        /* \"#utility.yul\":10908:10946   */\n      mstore\n        /* \"#utility.yul\":10723:10953   */\n      pop\n      jump\t// out\n        /* \"#utility.yul\":10959:11325   */\n    tag_274:\n        /* \"#utility.yul\":11101:11104   */\n      0x00\n        /* \"#utility.yul\":11122:11189   */\n      tag_391\n        /* \"#utility.yul\":11186:11188   */\n      0x2b\n        /* \"#utility.yul\":11181:11184   */\n      dup4\n        /* \"#utility.yul\":11122:11189   */\n      tag_261\n      jump\t// in\n    tag_391:\n        /* \"#utility.yul\":11115:11189   */\n      swap2\n      pop\n        /* \"#utility.yul\":11198:11291   */\n      tag_392\n        /* \"#utility.yul\":11287:11290   */\n      dup3\n        /* \"#utility.yul\":11198:11291   */\n      tag_273\n      jump\t// in\n    tag_392:\n        /* \"#utility.yul\":11316:11318   */\n      0x40\n        /* \"#utility.yul\":11311:11314   */\n      dup3\n        /* \"#utility.yul\":11307:11319   */\n      add\n        /* \"#utility.yul\":11300:11319   */\n      swap1\n      pop\n        /* \"#utility.yul\":10959:11325   */\n      swap2\n      swap1\n      pop\n      jump\t// out\n        /* \"#utility.yul\":11331:11750   */\n    tag_156:\n        /* \"#utility.yul\":11497:11501   */\n      0x00\n        /* \"#utility.yul\":11535:11537   */\n      0x20\n        /* \"#utility.yul\":11524:11533   */\n      dup3\n        /* \"#utility.yul\":11520:11538   */\n      add\n        /* \"#utility.yul\":11512:11538   */\n      swap1\n      pop\n        /* \"#utility.yul\":11584:11593   */\n      dup2\n        /* \"#utility.yul\":11578:11582   */\n      dup2\n        /* \"#utility.yul\":11574:11594   */\n      sub\n        /* \"#utility.yul\":11570:11571   */\n      0x00\n        /* \"#utility.yul\":11559:11568   */\n      dup4\n        /* \"#utility.yul\":11555:11572   */\n      add\n        /* \"#utility.yul\":11548:11595   */\n      mstore\n        /* \"#utility.yul\":11612:11743   */\n      tag_394\n        /* \"#utility.yul\":11738:11742   */\n      dup2\n        /* \"#utility.yul\":11612:11743   */\n      tag_274\n      jump\t// in\n    tag_394:\n        /* \"#utility.yul\":11604:11743   */\n      swap1\n      pop\n        /* \"#utility.yul\":11331:11750   */\n      swap2\n      swap1\n      pop\n      jump\t// out\n        /* \"#utility.yul\":11756:11936   */\n    tag_275:\n        /* \"#utility.yul\":11804:11881   */\n      0x4e487b7100000000000000000000000000000000000000000000000000000000\n        /* \"#utility.yul\":11801:11802   */\n      0x00\n        /* \"#utility.yul\":11794:11882   */\n      mstore\n        /* \"#utility.yul\":11901:11905   */\n      0x11\n        /* \"#utility.yul\":11898:11899   */\n      0x04\n        /* \"#utility.yul\":11891:11906   */\n      mstore\n        /* \"#utility.yul\":11925:11929   */\n      0x24\n        /* \"#utility.yul\":11922:11923   */\n      0x00\n        /* \"#utility.yul\":11915:11930   */\n      revert\n        /* \"#utility.yul\":11942:12175   */\n    tag_159:\n        /* \"#utility.yul\":11981:11984   */\n      0x00\n        /* \"#utility.yul\":12004:12028   */\n      tag_397\n        /* \"#utility.yul\":12022:12027   */\n      dup3\n        /* \"#utility.yul\":12004:12028   */\n      tag_250\n      jump\t// in\n    tag_397:\n        /* \"#utility.yul\":11995:12028   */\n      swap2\n      pop\n        /* \"#utility.yul\":12050:12116   */\n      0xffffffffffffffffffffffffffffffffffffffffffffffffffffffffffffffff\n        /* \"#utility.yul\":12043:12048   */\n      dup3\n        /* \"#utility.yul\":12040:12117   */\n      sub\n        /* \"#utility.yul\":12037:12140   */\n      tag_398\n      jumpi\n        /* \"#utility.yul\":12120:12138   */\n      tag_399\n      tag_275\n      jump\t// in\n    tag_399:\n        /* \"#utility.yul\":12037:12140   */\n    tag_398:\n        /* \"#utility.yul\":12167:12168   */\n      0x01\n        /* \"#utility.yul\":12160:12165   */\n      dup3\n        /* \"#utility.yul\":12156:12169   */\n      add\n        /* \"#utility.yul\":12149:12169   */\n      swap1\n      pop\n        /* \"#utility.yul\":11942:12175   */\n      swap2\n      swap1\n      pop\n      jump\t// out\n        /* \"#utility.yul\":12181:12266   */\n    tag_276:\n        /* \"#utility.yul\":12226:12233   */\n      0x00\n        /* \"#utility.yul\":12255:12260   */\n      dup2\n        /* \"#utility.yul\":12244:12260   */\n      swap1\n      pop\n        /* \"#utility.yul\":12181:12266   */\n      swap2\n      swap1\n      pop\n      jump\t// out\n        /* \"#utility.yul\":12272:12373   */\n    tag_277:\n        /* \"#utility.yul\":12308:12315   */\n      0x00\n        /* \"#utility.yul\":12348:12366   */\n      0xffffffffffffffff\n        /* \"#utility.yul\":12341:12346   */\n      dup3\n        /* \"#utility.yul\":12337:12367   */\n      and\n        /* \"#utility.yul\":12326:12367   */\n      swap1\n      pop\n        /* \"#utility.yul\":12272:12373   */\n      swap2\n      swap1\n      pop\n      jump\t// out\n        /* \"#utility.yul\":12379:12439   */\n    tag_278:\n        /* \"#utility.yul\":12407:12410   */\n      0x00\n        /* \"#utility.yul\":12428:12433   */\n      dup2\n        /* \"#utility.yul\":12421:12433   */\n      swap1\n      pop\n        /* \"#utility.yul\":12379:12439   */\n      swap2\n      swap1\n      pop\n      jump\t// out\n        /* \"#utility.yul\":12445:12601   */\n    tag_279:\n        /* \"#utility.yul\":12502:12511   */\n      0x00\n        /* \"#utility.yul\":12535:12595   */\n      tag_404\n        /* \"#utility.yul\":12552:12594   */\n      tag_405\n        /* \"#utility.yul\":12561:12593   */\n      tag_406\n        /* \"#utility.yul\":12587:12592   */\n      dup5\n        /* \"#utility.yul\":12561:12593   */\n      tag_276\n      jump\t// in\n    tag_406:\n        /* \"#utility.yul\":12552:12594   */\n      tag_278\n      jump\t// in\n    tag_405:\n        /* \"#utility.yul\":12535:12595   */\n      tag_277\n      jump\t// in\n    tag_404:\n        /* \"#utility.yul\":12522:12595   */\n      swap1\n      pop\n        /* \"#utility.yul\":12445:12601   */\n      swap2\n      swap1\n      pop\n      jump\t// out\n        /* \"#utility.yul\":12607:12752   */\n    tag_280:\n        /* \"#utility.yul\":12701:12745   */\n      tag_408\n        /* \"#utility.yul\":12739:12744   */\n      dup2\n        /* \"#utility.yul\":12701:12745   */\n      tag_279\n      jump\t// in\n    tag_408:\n        /* \"#utility.yul\":12696:12699   */\n      dup3\n        /* \"#utility.yul\":12689:12746   */\n      mstore\n        /* \"#utility.yul\":12607:12752   */\n      pop\n      pop\n      jump\t// out\n        /* \"#utility.yul\":12758:12994   */\n    tag_176:\n        /* \"#utility.yul\":12858:12862   */\n      0x00\n        /* \"#utility.yul\":12896:12898   */\n      0x20\n        /* \"#utility.yul\":12885:12894   */\n      dup3\n        /* \"#utility.yul\":12881:12899   */\n      add\n        /* \"#utility.yul\":12873:12899   */\n      swap1\n      pop\n        /* \"#utility.yul\":12909:12987   */\n      tag_410\n        /* \"#utility.yul\":12984:12985   */\n      0x00\n        /* \"#utility.yul\":12973:12982   */\n      dup4\n        /* \"#utility.yul\":12969:12986   */\n      add\n        /* \"#utility.yul\":12960:12966   */\n      dup5\n        /* \"#utility.yul\":12909:12987   */\n      tag_280\n      jump\t// in\n    tag_410:\n        /* \"#utility.yul\":12758:12994   */\n      swap3\n      swap2\n      pop\n      pop\n      jump\t// out\n        /* \"#utility.yul\":13000:13166   */\n    tag_281:\n        /* \"#utility.yul\":13140:13158   */\n      0x5061757361626c653a2070617573656400000000000000000000000000000000\n        /* \"#utility.yul\":13136:13137   */\n      0x00\n        /* \"#utility.yul\":13128:13134   */\n      dup3\n        /* \"#utility.yul\":13124:13138   */\n      add\n        /* \"#utility.yul\":13117:13159   */\n      mstore\n        /* \"#utility.yul\":13000:13166   */\n      pop\n      jump\t// out\n        /* \"#utility.yul\":13172:13538   */\n    tag_282:\n        /* \"#utility.yul\":13314:13317   */\n      0x00\n        /* \"#utility.yul\":13335:13402   */\n      tag_413\n        /* \"#utility.yul\":13399:13401   */\n      0x10\n        /* \"#utility.yul\":13394:13397   */\n      dup4\n        /* \"#utility.yul\":13335:13402   */\n      tag_261\n      jump\t// in\n    tag_413:\n        /* \"#utility.yul\":13328:13402   */\n      swap2\n      pop\n        /* \"#utility.yul\":13411:13504   */\n      tag_414\n        /* \"#utility.yul\":13500:13503   */\n      dup3\n        /* \"#utility.yul\":13411:13504   */\n      tag_281\n      jump\t// in\n    tag_414:\n        /* \"#utility.yul\":13529:13531   */\n      0x20\n        /* \"#utility.yul\":13524:13527   */\n      dup3\n        /* \"#utility.yul\":13520:13532   */\n      add\n        /* \"#utility.yul\":13513:13532   */\n      swap1\n      pop\n        /* \"#utility.yul\":13172:13538   */\n      swap2\n      swap1\n      pop\n      jump\t// out\n        /* \"#utility.yul\":13544:13963   */\n    tag_200:\n        /* \"#utility.yul\":13710:13714   */\n      0x00\n        /* \"#utility.yul\":13748:13750   */\n      0x20\n        /* \"#utility.yul\":13737:13746   */\n      dup3\n        /* \"#utility.yul\":13733:13751   */\n      add\n        /* \"#utility.yul\":13725:13751   */\n      swap1\n      pop\n        /* \"#utility.yul\":13797:13806   */\n      dup2\n        /* \"#utility.yul\":13791:13795   */\n      dup2\n        /* \"#utility.yul\":13787:13807   */\n      sub\n        /* \"#utility.yul\":13783:13784   */\n      0x00\n        /* \"#utility.yul\":13772:13781   */\n      dup4\n        /* \"#utility.yul\":13768:13785   */\n      add\n        /* \"#utility.yul\":13761:13808   */\n      mstore\n        /* \"#utility.yul\":13825:13956   */\n      tag_416\n        /* \"#utility.yul\":13951:13955   */\n      dup2\n        /* \"#utility.yul\":13825:13956   */\n      tag_282\n      jump\t// in\n    tag_416:\n        /* \"#utility.yul\":13817:13956   */\n      swap1\n      pop\n        /* \"#utility.yul\":13544:13963   */\n      swap2\n      swap1\n      pop\n      jump\t// out\n        /* \"#utility.yul\":13969:14150   */\n    tag_283:\n        /* \"#utility.yul\":14109:14142   */\n      0x5265656e7472616e637947756172643a207265656e7472616e742063616c6c00\n        /* \"#utility.yul\":14105:14106   */\n      0x00\n        /* \"#utility.yul\":14097:14103   */\n      dup3\n        /* \"#utility.yul\":14093:14107   */\n      add\n        /* \"#utility.yul\":14086:14143   */\n      mstore\n        /* \"#utility.yul\":13969:14150   */\n      pop\n      jump\t// out\n        /* \"#utility.yul\":14156:14522   */\n    tag_284:\n        /* \"#utility.yul\":14298:14301   */\n      0x00\n        /* \"#utility.yul\":14319:14386   */\n      tag_419\n        /* \"#utility.yul\":14383:14385   */\n      0x1f\n        /* \"#utility.yul\":14378:14381   */\n      dup4\n        /* \"#utility.yul\":14319:14386   */\n      tag_261\n      jump\t// in\n    tag_419:\n        /* \"#utility.yul\":14312:14386   */\n      swap2\n      pop\n        /* \"#utility.yul\":14395:14488   */\n      tag_420\n        /* \"#utility.yul\":14484:14487   */\n      dup3\n        /* \"#utility.yul\":14395:14488   */\n      tag_283\n      jump\t// in\n    tag_420:\n        /* \"#utility.yul\":14513:14515   */\n      0x20\n        /* \"#utility.yul\":14508:14511   */\n      dup3\n        /* \"#utility.yul\":14504:14516   */\n      add\n        /* \"#utility.yul\":14497:14516   */\n      swap1\n      pop\n        /* \"#utility.yul\":14156:14522   */\n      swap2\n      swap1\n      pop\n      jump\t// out\n        /* \"#utility.yul\":14528:14947   */\n    tag_204:\n        /* \"#utility.yul\":14694:14698   */\n      0x00\n        /* \"#utility.yul\":14732:14734   */\n      0x20\n        /* \"#utility.yul\":14721:14730   */\n      dup3\n        /* \"#utility.yul\":14717:14735   */\n      add\n        /* \"#utility.yul\":14709:14735   */\n      swap1\n      pop\n        /* \"#utility.yul\":14781:14790   */\n      dup2\n        /* \"#utility.yul\":14775:14779   */\n      dup2\n        /* \"#utility.yul\":14771:14791   */\n      sub\n        /* \"#utility.yul\":14767:14768   */\n      0x00\n        /* \"#utility.yul\":14756:14765   */\n      dup4\n        /* \"#utility.yul\":14752:14769   */\n      add\n        /* \"#utility.yul\":14745:14792   */\n      mstore\n        /* \"#utility.yul\":14809:14940   */\n      tag_422\n        /* \"#utility.yul\":14935:14939   */\n      dup2\n        /* \"#utility.yul\":14809:14940   */\n      tag_284\n      jump\t// in\n    tag_422:\n        /* \"#utility.yul\":14801:14940   */\n      swap1\n      pop\n        /* \"#utility.yul\":14528:14947   */\n      swap2\n      swap1\n      pop\n      jump\t// out\n        /* \"#utility.yul\":14953:15123   */\n    tag_285:\n        /* \"#utility.yul\":15093:15115   */\n      0x5061757361626c653a206e6f7420706175736564000000000000000000000000\n        /* \"#utility.yul\":15089:15090   */\n      0x00\n        /* \"#utility.yul\":15081:15087   */\n      dup3\n        /* \"#utility.yul\":15077:15091   */\n      add\n        /* \"#utility.yul\":15070:15116   */\n      mstore\n        /* \"#utility.yul\":14953:15123   */\n      pop\n      jump\t// out\n        /* \"#utility.yul\":15129:15495   */\n    tag_286:\n        /* \"#utility.yul\":15271:15274   */\n      0x00\n        /* \"#utility.yul\":15292:15359   */\n      tag_425\n        /* \"#utility.yul\":15356:15358   */\n      0x14\n        /* \"#utility.yul\":15351:15354   */\n      dup4\n        /* \"#utility.yul\":15292:15359   */\n      tag_261\n      jump\t// in\n    tag_425:\n        /* \"#utility.yul\":15285:15359   */\n      swap2\n      pop\n        /* \"#utility.yul\":15368:15461   */\n      tag_426\n        /* \"#utility.yul\":15457:15460   */\n      dup3\n        /* \"#utility.yul\":15368:15461   */\n      tag_285\n      jump\t// in\n    tag_426:\n        /* \"#utility.yul\":15486:15488   */\n      0x20\n        /* \"#utility.yul\":15481:15484   */\n      dup3\n        /* \"#utility.yul\":15477:15489   */\n      add\n        /* \"#utility.yul\":15470:15489   */\n      swap1\n      pop\n        /* \"#utility.yul\":15129:15495   */\n      swap2\n      swap1\n      pop\n      jump\t// out\n        /* \"#utility.yul\":15501:15920   */\n    tag_231:\n        /* \"#utility.yul\":15667:15671   */\n      0x00\n        /* \"#utility.yul\":15705:15707   */\n      0x20\n        /* \"#utility.yul\":15694:15703   */\n      dup3\n        /* \"#utility.yul\":15690:15708   */\n      add\n        /* \"#utility.yul\":15682:15708   */\n      swap1\n      pop\n        /* \"#utility.yul\":15754:15763   */\n      dup2\n        /* \"#utility.yul\":15748:15752   */\n      dup2\n        /* \"#utility.yul\":15744:15764   */\n      sub\n        /* \"#utility.yul\":15740:15741   */\n      0x00\n        /* \"#utility.yul\":15729:15738   */\n      dup4\n        /* \"#utility.yul\":15725:15742   */\n      add\n        /* \"#utility.yul\":15718:15765   */\n      mstore\n        /* \"#utility.yul\":15782:15913   */\n      tag_428\n        /* \"#utility.yul\":15908:15912   */\n      dup2\n        /* \"#utility.yul\":15782:15913   */\n      tag_286\n      jump\t// in\n    tag_428:\n        /* \"#utility.yul\":15774:15913   */\n      swap1\n      pop\n        /* \"#utility.yul\":15501:15920   */\n      swap2\n      swap1\n      pop\n      jump\t// out\n\n    auxdata: 0xa26469706673582212200941e67316acee818c0ccf2fe989db150778531ada8bca818d7f46182ccb617164736f6c634300081a0033\n}\n",
				"bytecode": {
					"linkReferences": {},
					"object": "6080604052348015600e575f80fd5b506001603281905550611b1a806100245f395ff3fe6080604052600436106100c1575f3560e01c80638da5cb5b1161007e578063c4d66de811610058578063c4d66de8146101f1578063de74e57b14610219578063f0c215bd14610258578063f2fde38b14610282576100c1565b80638da5cb5b146101775780639036c050146101a1578063ad05f1b4146101c9576100c1565b80633f4ba83a146100c557806351ed8288146100db5780635c975abb146100f75780636c2c9c7d14610121578063715018a61461014b5780638456cb5914610161575b5f80fd5b3480156100d0575f80fd5b506100d96102aa565b005b6100f560048036038101906100f09190611372565b6102bc565b005b348015610102575f80fd5b5061010b61050f565b60405161011891906113b7565b60405180910390f35b34801561012c575f80fd5b50610135610523565b60405161014291906113df565b60405180910390f35b348015610156575f80fd5b5061015f610529565b005b34801561016c575f80fd5b5061017561053c565b005b348015610182575f80fd5b5061018b61054e565b6040516101989190611437565b60405180910390f35b3480156101ac575f80fd5b506101c760048036038101906101c2919061147a565b610583565b005b3480156101d4575f80fd5b506101ef60048036038101906101ea91906114b8565b6107c2565b005b3480156101fc575f80fd5b5061021760048036038101906102129190611508565b610bdb565b005b348015610224575f80fd5b5061023f600480360381019061023a9190611372565b610da4565b60405161024f9493929190611533565b60405180910390f35b348015610263575f80fd5b5061026c610e0e565b6040516102799190611437565b60405180910390f35b34801561028d575f80fd5b506102a860048036038101906102a39190611508565b610e33565b005b6102b2610eb7565b6102ba610f3e565b565b6102c4610f9e565b6102cc610fe8565b5f60335f8381526020019081526020015f206040518060800160405290815f82015f9054906101000a900473ffffffffffffffffffffffffffffffffffffffff1673ffffffffffffffffffffffffffffffffffffffff1673ffffffffffffffffffffffffffffffffffffffff16815260200160018201548152602001600282015f9054906101000a900473ffffffffffffffffffffffffffffffffffffffff1673ffffffffffffffffffffffffffffffffffffffff1673ffffffffffffffffffffffffffffffffffffffff168152602001600382015481525050905080606001513410156103ef576040517f08c379a00000000000000000000000000000000000000000000000000000000081526004016103e6906115d0565b60405180910390fd5b805f015173ffffffffffffffffffffffffffffffffffffffff166342842e0e82604001513384602001516040518463ffffffff1660e01b8152600401610437939291906115ee565b5f604051808303815f87803b15801561044e575f80fd5b505af1158015610460573d5f803e3d5ffd5b50505050806040015173ffffffffffffffffffffffffffffffffffffffff166108fc826060015190811502906040515f60405180830381858888f193505050501580156104af573d5f803e3d5ffd5b503373ffffffffffffffffffffffffffffffffffffffff16827fad546cba5af920bc2c64678bbd69f3d8965ac26d1b82f7ebf6f098aaa833528283606001516040516104fb91906113df565b60405180910390a35061050c611037565b50565b5f805f9054906101000a900460ff16905090565b60345481565b610531610eb7565b61053a5f611041565b565b610544610eb7565b61054c611112565b565b5f80610558611173565b9050805f015f9054906101000a900473ffffffffffffffffffffffffffffffffffffffff1691505090565b61058b610f9e565b610593610fe8565b5f60335f8481526020019081526020015f206040518060800160405290815f82015f9054906101000a900473ffffffffffffffffffffffffffffffffffffffff1673ffffffffffffffffffffffffffffffffffffffff1673ffffffffffffffffffffffffffffffffffffffff16815260200160018201548152602001600282015f9054906101000a900473ffffffffffffffffffffffffffffffffffffffff1673ffffffffffffffffffffffffffffffffffffffff1673ffffffffffffffffffffffffffffffffffffffff16815260200160038201548152505090503373ffffffffffffffffffffffffffffffffffffffff16816040015173ffffffffffffffffffffffffffffffffffffffff16146106e1576040517f08c379a00000000000000000000000000000000000000000000000000000000081526004016106d890611693565b60405180910390fd5b805f015173ffffffffffffffffffffffffffffffffffffffff166342842e0e82604001518484602001516040518463ffffffff1660e01b8152600401610729939291906115ee565b5f604051808303815f87803b158015610740575f80fd5b505af1158015610752573d5f803e3d5ffd5b505050508173ffffffffffffffffffffffffffffffffffffffff16816040015173ffffffffffffffffffffffffffffffffffffffff16847f67043fac5fd2bf9edbb46ee495aaed7f97f91d43507d373be2b592af19b8c0a860405160405180910390a4506107be611037565b5050565b6107ca610f9e565b6107d2610fe8565b5f8111610814576040517f08c379a000000000000000000000000000000000000000000000000000000000815260040161080b906116fb565b60405180910390fd5b5f8390503373ffffffffffffffffffffffffffffffffffffffff168173ffffffffffffffffffffffffffffffffffffffff16636352211e856040518263ffffffff1660e01b815260040161086891906113df565b602060405180830381865afa158015610883573d5f803e3d5ffd5b505050506040513d601f19601f820116820180604052508101906108a7919061172d565b73ffffffffffffffffffffffffffffffffffffffff16146108fd576040517f08c379a00000000000000000000000000000000000000000000000000000000081526004016108f4906117a2565b60405180910390fd5b8073ffffffffffffffffffffffffffffffffffffffff1663e985e9c533306040518363ffffffff1660e01b81526004016109389291906117c0565b602060405180830381865afa158015610953573d5f803e3d5ffd5b505050506040513d601f19601f820116820180604052508101906109779190611811565b80610a2457503073ffffffffffffffffffffffffffffffffffffffff168173ffffffffffffffffffffffffffffffffffffffff1663081812fc856040518263ffffffff1660e01b81526004016109cd91906113df565b602060405180830381865afa1580156109e8573d5f803e3d5ffd5b505050506040513d601f19601f82011682018060405250810190610a0c919061172d565b73ffffffffffffffffffffffffffffffffffffffff16145b610a63576040517f08c379a0000000000000000000000000000000000000000000000000000000008152600401610a5a906118ac565b60405180910390fd5b60405180608001604052808573ffffffffffffffffffffffffffffffffffffffff1681526020018481526020013373ffffffffffffffffffffffffffffffffffffffff1681526020018381525060335f60345481526020019081526020015f205f820151815f015f6101000a81548173ffffffffffffffffffffffffffffffffffffffff021916908373ffffffffffffffffffffffffffffffffffffffff160217905550602082015181600101556040820151816002015f6101000a81548173ffffffffffffffffffffffffffffffffffffffff021916908373ffffffffffffffffffffffffffffffffffffffff16021790555060608201518160030155905050823373ffffffffffffffffffffffffffffffffffffffff166034547f36e94395fafcb0d2a9bcfcdd5cef807ab52a1f4382906992ebdc18de5f1472c485604051610bae91906113df565b60405180910390a460345f815480929190610bc8906118f7565b919050555050610bd6611037565b505050565b5f610be461119a565b90505f815f0160089054906101000a900460ff161590505f825f015f9054906101000a900467ffffffffffffffff1690505f808267ffffffffffffffff16148015610c2c5750825b90505f60018367ffffffffffffffff16148015610c5f57505f3073ffffffffffffffffffffffffffffffffffffffff163b145b905081158015610c6d575080155b15610ca4576040517ff92ee8a900000000000000000000000000000000000000000000000000000000815260040160405180910390fd5b6001855f015f6101000a81548167ffffffffffffffff021916908367ffffffffffffffff1602179055508315610cf1576001855f0160086101000a81548160ff0219169083151502179055505b8560355f6101000a81548173ffffffffffffffffffffffffffffffffffffffff021916908373ffffffffffffffffffffffffffffffffffffffff160217905550610d3a336111c1565b610d426111d5565b8315610d9c575f855f0160086101000a81548160ff0219169083151502179055507fc7f505b2f371ae2175ee4913f4499e1f2633a7b5936321eed1cdaeb6115181d26001604051610d939190611993565b60405180910390a15b505050505050565b6033602052805f5260405f205f91509050805f015f9054906101000a900473ffffffffffffffffffffffffffffffffffffffff1690806001015490806002015f9054906101000a900473ffffffffffffffffffffffffffffffffffffffff16908060030154905084565b60355f9054906101000a900473ffffffffffffffffffffffffffffffffffffffff1681565b610e3b610eb7565b5f73ffffffffffffffffffffffffffffffffffffffff168173ffffffffffffffffffffffffffffffffffffffff1603610eab575f6040517f1e4fbdf7000000000000000000000000000000000000000000000000000000008152600401610ea29190611437565b60405180910390fd5b610eb481611041565b50565b610ebf6111e7565b73ffffffffffffffffffffffffffffffffffffffff16610edd61054e565b73ffffffffffffffffffffffffffffffffffffffff1614610f3c57610f006111e7565b6040517f118cdaa7000000000000000000000000000000000000000000000000000000008152600401610f339190611437565b60405180910390fd5b565b610f466111ee565b5f805f6101000a81548160ff0219169083151502179055507f5db9ee0a495bf2e6ff9c91a7834c1ba4fdd244a5e8aa4e537bd38aeae4b073aa610f876111e7565b604051610f949190611437565b60405180910390a1565b610fa661050f565b15610fe6576040517f08c379a0000000000000000000000000000000000000000000000000000000008152600401610fdd906119f6565b60405180910390fd5b565b60026032540361102d576040517f08c379a000000000000000000000000000000000000000000000000000000000815260040161102490611a5e565b60405180910390fd5b6002603281905550565b6001603281905550565b5f61104a611173565b90505f815f015f9054906101000a900473ffffffffffffffffffffffffffffffffffffffff16905082825f015f6101000a81548173ffffffffffffffffffffffffffffffffffffffff021916908373ffffffffffffffffffffffffffffffffffffffff1602179055508273ffffffffffffffffffffffffffffffffffffffff168173ffffffffffffffffffffffffffffffffffffffff167f8be0079c531659141344cd1fd0a4f28419497f9722a3daafe3b4186f6b6457e060405160405180910390a3505050565b61111a610f9e565b60015f806101000a81548160ff0219169083151502179055507f62e78cea01bee320cd4e420270b5ea74000d11b0c9f74754ebdbfc544b05a25861115c6111e7565b6040516111699190611437565b60405180910390a1565b5f7f9016d09d72d40fdae2fd8ceac6b6234c7706214fd39c1cd1e609a0528c199300905090565b5f7ff0c57e16840df040f15088dc2f81fe391c3923bec73e23a9662efc9c229c6a00905090565b6111c9611237565b6111d281611277565b50565b6111dd611237565b6111e56112fb565b565b5f33905090565b6111f661050f565b611235576040517f08c379a000000000000000000000000000000000000000000000000000000000815260040161122c90611ac6565b60405180910390fd5b565b61123f61131d565b611275576040517fd7e6bcf800000000000000000000000000000000000000000000000000000000815260040160405180910390fd5b565b61127f611237565b5f73ffffffffffffffffffffffffffffffffffffffff168173ffffffffffffffffffffffffffffffffffffffff16036112ef575f6040517f1e4fbdf70000000000000000000000000000000000000000000000000000000081526004016112e69190611437565b60405180910390fd5b6112f881611041565b50565b611303611237565b5f805f6101000a81548160ff021916908315150217905550565b5f61132661119a565b5f0160089054906101000a900460ff16905090565b5f80fd5b5f819050919050565b6113518161133f565b811461135b575f80fd5b50565b5f8135905061136c81611348565b92915050565b5f602082840312156113875761138661133b565b5b5f6113948482850161135e565b91505092915050565b5f8115159050919050565b6113b18161139d565b82525050565b5f6020820190506113ca5f8301846113a8565b92915050565b6113d98161133f565b82525050565b5f6020820190506113f25f8301846113d0565b92915050565b5f73ffffffffffffffffffffffffffffffffffffffff82169050919050565b5f611421826113f8565b9050919050565b61143181611417565b82525050565b5f60208201905061144a5f830184611428565b92915050565b61145981611417565b8114611463575f80fd5b50565b5f8135905061147481611450565b92915050565b5f80604083850312156114905761148f61133b565b5b5f61149d8582860161135e565b92505060206114ae85828601611466565b9150509250929050565b5f805f606084860312156114cf576114ce61133b565b5b5f6114dc86828701611466565b93505060206114ed8682870161135e565b92505060406114fe8682870161135e565b9150509250925092565b5f6020828403121561151d5761151c61133b565b5b5f61152a84828501611466565b91505092915050565b5f6080820190506115465f830187611428565b61155360208301866113d0565b6115606040830185611428565b61156d60608301846113d0565b95945050505050565b5f82825260208201905092915050565b7f4e6f20736520686120656e766961646f20737566696369656e746520455448005f82015250565b5f6115ba601f83611576565b91506115c582611586565b602082019050919050565b5f6020820190508181035f8301526115e7816115ae565b9050919050565b5f6060820190506116015f830186611428565b61160e6020830185611428565b61161b60408301846113d0565b949350505050565b7f536f6c6f20656c2076656e6465646f72207075656465207472616e73666572695f8201527f7220656c204e4654000000000000000000000000000000000000000000000000602082015250565b5f61167d602883611576565b915061168882611623565b604082019050919050565b5f6020820190508181035f8301526116aa81611671565b9050919050565b7f456c2070726563696f206465626520736572206d61796f7220612030000000005f82015250565b5f6116e5601c83611576565b91506116f0826116b1565b602082019050919050565b5f6020820190508181035f830152611712816116d9565b9050919050565b5f8151905061172781611450565b92915050565b5f602082840312156117425761174161133b565b5b5f61174f84828501611719565b91505092915050565b7f4e6f206572657320656c2070726f706965746172696f2064656c204e465400005f82015250565b5f61178c601e83611576565b915061179782611758565b602082019050919050565b5f6020820190508181035f8301526117b981611780565b9050919050565b5f6040820190506117d35f830185611428565b6117e06020830184611428565b9392505050565b6117f08161139d565b81146117fa575f80fd5b50565b5f8151905061180b816117e7565b92915050565b5f602082840312156118265761182561133b565b5b5f611833848285016117fd565b91505092915050565b7f4d61726b6574706c616365206e6f206170726f6261646f2070617261206d616e5f8201527f656a617220656c204e4654000000000000000000000000000000000000000000602082015250565b5f611896602b83611576565b91506118a18261183c565b604082019050919050565b5f6020820190508181035f8301526118c38161188a565b9050919050565b7f4e487b71000000000000000000000000000000000000000000000000000000005f52601160045260245ffd5b5f6119018261133f565b91507fffffffffffffffffffffffffffffffffffffffffffffffffffffffffffffffff8203611933576119326118ca565b5b600182019050919050565b5f819050919050565b5f67ffffffffffffffff82169050919050565b5f819050919050565b5f61197d6119786119738461193e565b61195a565b611947565b9050919050565b61198d81611963565b82525050565b5f6020820190506119a65f830184611984565b92915050565b7f5061757361626c653a20706175736564000000000000000000000000000000005f82015250565b5f6119e0601083611576565b91506119eb826119ac565b602082019050919050565b5f6020820190508181035f830152611a0d816119d4565b9050919050565b7f5265656e7472616e637947756172643a207265656e7472616e742063616c6c005f82015250565b5f611a48601f83611576565b9150611a5382611a14565b602082019050919050565b5f6020820190508181035f830152611a7581611a3c565b9050919050565b7f5061757361626c653a206e6f74207061757365640000000000000000000000005f82015250565b5f611ab0601483611576565b9150611abb82611a7c565b602082019050919050565b5f6020820190508181035f830152611add81611aa4565b905091905056fea26469706673582212200941e67316acee818c0ccf2fe989db150778531ada8bca818d7f46182ccb617164736f6c634300081a0033",
					"opcodes": "PUSH1 0x80 PUSH1 0x40 MSTORE CALLVALUE DUP1 ISZERO PUSH1 0xE JUMPI PUSH0 DUP1 REVERT JUMPDEST POP PUSH1 0x1 PUSH1 0x32 DUP2 SWAP1 SSTORE POP PUSH2 0x1B1A DUP1 PUSH2 0x24 PUSH0 CODECOPY PUSH0 RETURN INVALID PUSH1 0x80 PUSH1 0x40 MSTORE PUSH1 0x4 CALLDATASIZE LT PUSH2 0xC1 JUMPI PUSH0 CALLDATALOAD PUSH1 0xE0 SHR DUP1 PUSH4 0x8DA5CB5B GT PUSH2 0x7E JUMPI DUP1 PUSH4 0xC4D66DE8 GT PUSH2 0x58 JUMPI DUP1 PUSH4 0xC4D66DE8 EQ PUSH2 0x1F1 JUMPI DUP1 PUSH4 0xDE74E57B EQ PUSH2 0x219 JUMPI DUP1 PUSH4 0xF0C215BD EQ PUSH2 0x258 JUMPI DUP1 PUSH4 0xF2FDE38B EQ PUSH2 0x282 JUMPI PUSH2 0xC1 JUMP JUMPDEST DUP1 PUSH4 0x8DA5CB5B EQ PUSH2 0x177 JUMPI DUP1 PUSH4 0x9036C050 EQ PUSH2 0x1A1 JUMPI DUP1 PUSH4 0xAD05F1B4 EQ PUSH2 0x1C9 JUMPI PUSH2 0xC1 JUMP JUMPDEST DUP1 PUSH4 0x3F4BA83A EQ PUSH2 0xC5 JUMPI DUP1 PUSH4 0x51ED8288 EQ PUSH2 0xDB JUMPI DUP1 PUSH4 0x5C975ABB EQ PUSH2 0xF7 JUMPI DUP1 PUSH4 0x6C2C9C7D EQ PUSH2 0x121 JUMPI DUP1 PUSH4 0x715018A6 EQ PUSH2 0x14B JUMPI DUP1 PUSH4 0x8456CB59 EQ PUSH2 0x161 JUMPI JUMPDEST PUSH0 DUP1 REVERT JUMPDEST CALLVALUE DUP1 ISZERO PUSH2 0xD0 JUMPI PUSH0 DUP1 REVERT JUMPDEST POP PUSH2 0xD9 PUSH2 0x2AA JUMP JUMPDEST STOP JUMPDEST PUSH2 0xF5 PUSH1 0x4 DUP1 CALLDATASIZE SUB DUP2 ADD SWAP1 PUSH2 0xF0 SWAP2 SWAP1 PUSH2 0x1372 JUMP JUMPDEST PUSH2 0x2BC JUMP JUMPDEST STOP JUMPDEST CALLVALUE DUP1 ISZERO PUSH2 0x102 JUMPI PUSH0 DUP1 REVERT JUMPDEST POP PUSH2 0x10B PUSH2 0x50F JUMP JUMPDEST PUSH1 0x40 MLOAD PUSH2 0x118 SWAP2 SWAP1 PUSH2 0x13B7 JUMP JUMPDEST PUSH1 0x40 MLOAD DUP1 SWAP2 SUB SWAP1 RETURN JUMPDEST CALLVALUE DUP1 ISZERO PUSH2 0x12C JUMPI PUSH0 DUP1 REVERT JUMPDEST POP PUSH2 0x135 PUSH2 0x523 JUMP JUMPDEST PUSH1 0x40 MLOAD PUSH2 0x142 SWAP2 SWAP1 PUSH2 0x13DF JUMP JUMPDEST PUSH1 0x40 MLOAD DUP1 SWAP2 SUB SWAP1 RETURN JUMPDEST CALLVALUE DUP1 ISZERO PUSH2 0x156 JUMPI PUSH0 DUP1 REVERT JUMPDEST POP PUSH2 0x15F PUSH2 0x529 JUMP JUMPDEST STOP JUMPDEST CALLVALUE DUP1 ISZERO PUSH2 0x16C JUMPI PUSH0 DUP1 REVERT JUMPDEST POP PUSH2 0x175 PUSH2 0x53C JUMP JUMPDEST STOP JUMPDEST CALLVALUE DUP1 ISZERO PUSH2 0x182 JUMPI PUSH0 DUP1 REVERT JUMPDEST POP PUSH2 0x18B PUSH2 0x54E JUMP JUMPDEST PUSH1 0x40 MLOAD PUSH2 0x198 SWAP2 SWAP1 PUSH2 0x1437 JUMP JUMPDEST PUSH1 0x40 MLOAD DUP1 SWAP2 SUB SWAP1 RETURN JUMPDEST CALLVALUE DUP1 ISZERO PUSH2 0x1AC JUMPI PUSH0 DUP1 REVERT JUMPDEST POP PUSH2 0x1C7 PUSH1 0x4 DUP1 CALLDATASIZE SUB DUP2 ADD SWAP1 PUSH2 0x1C2 SWAP2 SWAP1 PUSH2 0x147A JUMP JUMPDEST PUSH2 0x583 JUMP JUMPDEST STOP JUMPDEST CALLVALUE DUP1 ISZERO PUSH2 0x1D4 JUMPI PUSH0 DUP1 REVERT JUMPDEST POP PUSH2 0x1EF PUSH1 0x4 DUP1 CALLDATASIZE SUB DUP2 ADD SWAP1 PUSH2 0x1EA SWAP2 SWAP1 PUSH2 0x14B8 JUMP JUMPDEST PUSH2 0x7C2 JUMP JUMPDEST STOP JUMPDEST CALLVALUE DUP1 ISZERO PUSH2 0x1FC JUMPI PUSH0 DUP1 REVERT JUMPDEST POP PUSH2 0x217 PUSH1 0x4 DUP1 CALLDATASIZE SUB DUP2 ADD SWAP1 PUSH2 0x212 SWAP2 SWAP1 PUSH2 0x1508 JUMP JUMPDEST PUSH2 0xBDB JUMP JUMPDEST STOP JUMPDEST CALLVALUE DUP1 ISZERO PUSH2 0x224 JUMPI PUSH0 DUP1 REVERT JUMPDEST POP PUSH2 0x23F PUSH1 0x4 DUP1 CALLDATASIZE SUB DUP2 ADD SWAP1 PUSH2 0x23A SWAP2 SWAP1 PUSH2 0x1372 JUMP JUMPDEST PUSH2 0xDA4 JUMP JUMPDEST PUSH1 0x40 MLOAD PUSH2 0x24F SWAP5 SWAP4 SWAP3 SWAP2 SWAP1 PUSH2 0x1533 JUMP JUMPDEST PUSH1 0x40 MLOAD DUP1 SWAP2 SUB SWAP1 RETURN JUMPDEST CALLVALUE DUP1 ISZERO PUSH2 0x263 JUMPI PUSH0 DUP1 REVERT JUMPDEST POP PUSH2 0x26C PUSH2 0xE0E JUMP JUMPDEST PUSH1 0x40 MLOAD PUSH2 0x279 SWAP2 SWAP1 PUSH2 0x1437 JUMP JUMPDEST PUSH1 0x40 MLOAD DUP1 SWAP2 SUB SWAP1 RETURN JUMPDEST CALLVALUE DUP1 ISZERO PUSH2 0x28D JUMPI PUSH0 DUP1 REVERT JUMPDEST POP PUSH2 0x2A8 PUSH1 0x4 DUP1 CALLDATASIZE SUB DUP2 ADD SWAP1 PUSH2 0x2A3 SWAP2 SWAP1 PUSH2 0x1508 JUMP JUMPDEST PUSH2 0xE33 JUMP JUMPDEST STOP JUMPDEST PUSH2 0x2B2 PUSH2 0xEB7 JUMP JUMPDEST PUSH2 0x2BA PUSH2 0xF3E JUMP JUMPDEST JUMP JUMPDEST PUSH2 0x2C4 PUSH2 0xF9E JUMP JUMPDEST PUSH2 0x2CC PUSH2 0xFE8 JUMP JUMPDEST PUSH0 PUSH1 0x33 PUSH0 DUP4 DUP2 MSTORE PUSH1 0x20 ADD SWAP1 DUP2 MSTORE PUSH1 0x20 ADD PUSH0 KECCAK256 PUSH1 0x40 MLOAD DUP1 PUSH1 0x80 ADD PUSH1 0x40 MSTORE SWAP1 DUP2 PUSH0 DUP3 ADD PUSH0 SWAP1 SLOAD SWAP1 PUSH2 0x100 EXP SWAP1 DIV PUSH20 0xFFFFFFFFFFFFFFFFFFFFFFFFFFFFFFFFFFFFFFFF AND PUSH20 0xFFFFFFFFFFFFFFFFFFFFFFFFFFFFFFFFFFFFFFFF AND PUSH20 0xFFFFFFFFFFFFFFFFFFFFFFFFFFFFFFFFFFFFFFFF AND DUP2 MSTORE PUSH1 0x20 ADD PUSH1 0x1 DUP3 ADD SLOAD DUP2 MSTORE PUSH1 0x20 ADD PUSH1 0x2 DUP3 ADD PUSH0 SWAP1 SLOAD SWAP1 PUSH2 0x100 EXP SWAP1 DIV PUSH20 0xFFFFFFFFFFFFFFFFFFFFFFFFFFFFFFFFFFFFFFFF AND PUSH20 0xFFFFFFFFFFFFFFFFFFFFFFFFFFFFFFFFFFFFFFFF AND PUSH20 0xFFFFFFFFFFFFFFFFFFFFFFFFFFFFFFFFFFFFFFFF AND DUP2 MSTORE PUSH1 0x20 ADD PUSH1 0x3 DUP3 ADD SLOAD DUP2 MSTORE POP POP SWAP1 POP DUP1 PUSH1 0x60 ADD MLOAD CALLVALUE LT ISZERO PUSH2 0x3EF JUMPI PUSH1 0x40 MLOAD PUSH32 0x8C379A000000000000000000000000000000000000000000000000000000000 DUP2 MSTORE PUSH1 0x4 ADD PUSH2 0x3E6 SWAP1 PUSH2 0x15D0 JUMP JUMPDEST PUSH1 0x40 MLOAD DUP1 SWAP2 SUB SWAP1 REVERT JUMPDEST DUP1 PUSH0 ADD MLOAD PUSH20 0xFFFFFFFFFFFFFFFFFFFFFFFFFFFFFFFFFFFFFFFF AND PUSH4 0x42842E0E DUP3 PUSH1 0x40 ADD MLOAD CALLER DUP5 PUSH1 0x20 ADD MLOAD PUSH1 0x40 MLOAD DUP5 PUSH4 0xFFFFFFFF AND PUSH1 0xE0 SHL DUP2 MSTORE PUSH1 0x4 ADD PUSH2 0x437 SWAP4 SWAP3 SWAP2 SWAP1 PUSH2 0x15EE JUMP JUMPDEST PUSH0 PUSH1 0x40 MLOAD DUP1 DUP4 SUB DUP2 PUSH0 DUP8 DUP1 EXTCODESIZE ISZERO DUP1 ISZERO PUSH2 0x44E JUMPI PUSH0 DUP1 REVERT JUMPDEST POP GAS CALL ISZERO DUP1 ISZERO PUSH2 0x460 JUMPI RETURNDATASIZE PUSH0 DUP1 RETURNDATACOPY RETURNDATASIZE PUSH0 REVERT JUMPDEST POP POP POP POP DUP1 PUSH1 0x40 ADD MLOAD PUSH20 0xFFFFFFFFFFFFFFFFFFFFFFFFFFFFFFFFFFFFFFFF AND PUSH2 0x8FC DUP3 PUSH1 0x60 ADD MLOAD SWAP1 DUP2 ISZERO MUL SWAP1 PUSH1 0x40 MLOAD PUSH0 PUSH1 0x40 MLOAD DUP1 DUP4 SUB DUP2 DUP6 DUP9 DUP9 CALL SWAP4 POP POP POP POP ISZERO DUP1 ISZERO PUSH2 0x4AF JUMPI RETURNDATASIZE PUSH0 DUP1 RETURNDATACOPY RETURNDATASIZE PUSH0 REVERT JUMPDEST POP CALLER PUSH20 0xFFFFFFFFFFFFFFFFFFFFFFFFFFFFFFFFFFFFFFFF AND DUP3 PUSH32 0xAD546CBA5AF920BC2C64678BBD69F3D8965AC26D1B82F7EBF6F098AAA8335282 DUP4 PUSH1 0x60 ADD MLOAD PUSH1 0x40 MLOAD PUSH2 0x4FB SWAP2 SWAP1 PUSH2 0x13DF JUMP JUMPDEST PUSH1 0x40 MLOAD DUP1 SWAP2 SUB SWAP1 LOG3 POP PUSH2 0x50C PUSH2 0x1037 JUMP JUMPDEST POP JUMP JUMPDEST PUSH0 DUP1 PUSH0 SWAP1 SLOAD SWAP1 PUSH2 0x100 EXP SWAP1 DIV PUSH1 0xFF AND SWAP1 POP SWAP1 JUMP JUMPDEST PUSH1 0x34 SLOAD DUP2 JUMP JUMPDEST PUSH2 0x531 PUSH2 0xEB7 JUMP JUMPDEST PUSH2 0x53A PUSH0 PUSH2 0x1041 JUMP JUMPDEST JUMP JUMPDEST PUSH2 0x544 PUSH2 0xEB7 JUMP JUMPDEST PUSH2 0x54C PUSH2 0x1112 JUMP JUMPDEST JUMP JUMPDEST PUSH0 DUP1 PUSH2 0x558 PUSH2 0x1173 JUMP JUMPDEST SWAP1 POP DUP1 PUSH0 ADD PUSH0 SWAP1 SLOAD SWAP1 PUSH2 0x100 EXP SWAP1 DIV PUSH20 0xFFFFFFFFFFFFFFFFFFFFFFFFFFFFFFFFFFFFFFFF AND SWAP2 POP POP SWAP1 JUMP JUMPDEST PUSH2 0x58B PUSH2 0xF9E JUMP JUMPDEST PUSH2 0x593 PUSH2 0xFE8 JUMP JUMPDEST PUSH0 PUSH1 0x33 PUSH0 DUP5 DUP2 MSTORE PUSH1 0x20 ADD SWAP1 DUP2 MSTORE PUSH1 0x20 ADD PUSH0 KECCAK256 PUSH1 0x40 MLOAD DUP1 PUSH1 0x80 ADD PUSH1 0x40 MSTORE SWAP1 DUP2 PUSH0 DUP3 ADD PUSH0 SWAP1 SLOAD SWAP1 PUSH2 0x100 EXP SWAP1 DIV PUSH20 0xFFFFFFFFFFFFFFFFFFFFFFFFFFFFFFFFFFFFFFFF AND PUSH20 0xFFFFFFFFFFFFFFFFFFFFFFFFFFFFFFFFFFFFFFFF AND PUSH20 0xFFFFFFFFFFFFFFFFFFFFFFFFFFFFFFFFFFFFFFFF AND DUP2 MSTORE PUSH1 0x20 ADD PUSH1 0x1 DUP3 ADD SLOAD DUP2 MSTORE PUSH1 0x20 ADD PUSH1 0x2 DUP3 ADD PUSH0 SWAP1 SLOAD SWAP1 PUSH2 0x100 EXP SWAP1 DIV PUSH20 0xFFFFFFFFFFFFFFFFFFFFFFFFFFFFFFFFFFFFFFFF AND PUSH20 0xFFFFFFFFFFFFFFFFFFFFFFFFFFFFFFFFFFFFFFFF AND PUSH20 0xFFFFFFFFFFFFFFFFFFFFFFFFFFFFFFFFFFFFFFFF AND DUP2 MSTORE PUSH1 0x20 ADD PUSH1 0x3 DUP3 ADD SLOAD DUP2 MSTORE POP POP SWAP1 POP CALLER PUSH20 0xFFFFFFFFFFFFFFFFFFFFFFFFFFFFFFFFFFFFFFFF AND DUP2 PUSH1 0x40 ADD MLOAD PUSH20 0xFFFFFFFFFFFFFFFFFFFFFFFFFFFFFFFFFFFFFFFF AND EQ PUSH2 0x6E1 JUMPI PUSH1 0x40 MLOAD PUSH32 0x8C379A000000000000000000000000000000000000000000000000000000000 DUP2 MSTORE PUSH1 0x4 ADD PUSH2 0x6D8 SWAP1 PUSH2 0x1693 JUMP JUMPDEST PUSH1 0x40 MLOAD DUP1 SWAP2 SUB SWAP1 REVERT JUMPDEST DUP1 PUSH0 ADD MLOAD PUSH20 0xFFFFFFFFFFFFFFFFFFFFFFFFFFFFFFFFFFFFFFFF AND PUSH4 0x42842E0E DUP3 PUSH1 0x40 ADD MLOAD DUP5 DUP5 PUSH1 0x20 ADD MLOAD PUSH1 0x40 MLOAD DUP5 PUSH4 0xFFFFFFFF AND PUSH1 0xE0 SHL DUP2 MSTORE PUSH1 0x4 ADD PUSH2 0x729 SWAP4 SWAP3 SWAP2 SWAP1 PUSH2 0x15EE JUMP JUMPDEST PUSH0 PUSH1 0x40 MLOAD DUP1 DUP4 SUB DUP2 PUSH0 DUP8 DUP1 EXTCODESIZE ISZERO DUP1 ISZERO PUSH2 0x740 JUMPI PUSH0 DUP1 REVERT JUMPDEST POP GAS CALL ISZERO DUP1 ISZERO PUSH2 0x752 JUMPI RETURNDATASIZE PUSH0 DUP1 RETURNDATACOPY RETURNDATASIZE PUSH0 REVERT JUMPDEST POP POP POP POP DUP2 PUSH20 0xFFFFFFFFFFFFFFFFFFFFFFFFFFFFFFFFFFFFFFFF AND DUP2 PUSH1 0x40 ADD MLOAD PUSH20 0xFFFFFFFFFFFFFFFFFFFFFFFFFFFFFFFFFFFFFFFF AND DUP5 PUSH32 0x67043FAC5FD2BF9EDBB46EE495AAED7F97F91D43507D373BE2B592AF19B8C0A8 PUSH1 0x40 MLOAD PUSH1 0x40 MLOAD DUP1 SWAP2 SUB SWAP1 LOG4 POP PUSH2 0x7BE PUSH2 0x1037 JUMP JUMPDEST POP POP JUMP JUMPDEST PUSH2 0x7CA PUSH2 0xF9E JUMP JUMPDEST PUSH2 0x7D2 PUSH2 0xFE8 JUMP JUMPDEST PUSH0 DUP2 GT PUSH2 0x814 JUMPI PUSH1 0x40 MLOAD PUSH32 0x8C379A000000000000000000000000000000000000000000000000000000000 DUP2 MSTORE PUSH1 0x4 ADD PUSH2 0x80B SWAP1 PUSH2 0x16FB JUMP JUMPDEST PUSH1 0x40 MLOAD DUP1 SWAP2 SUB SWAP1 REVERT JUMPDEST PUSH0 DUP4 SWAP1 POP CALLER PUSH20 0xFFFFFFFFFFFFFFFFFFFFFFFFFFFFFFFFFFFFFFFF AND DUP2 PUSH20 0xFFFFFFFFFFFFFFFFFFFFFFFFFFFFFFFFFFFFFFFF AND PUSH4 0x6352211E DUP6 PUSH1 0x40 MLOAD DUP3 PUSH4 0xFFFFFFFF AND PUSH1 0xE0 SHL DUP2 MSTORE PUSH1 0x4 ADD PUSH2 0x868 SWAP2 SWAP1 PUSH2 0x13DF JUMP JUMPDEST PUSH1 0x20 PUSH1 0x40 MLOAD DUP1 DUP4 SUB DUP2 DUP7 GAS STATICCALL ISZERO DUP1 ISZERO PUSH2 0x883 JUMPI RETURNDATASIZE PUSH0 DUP1 RETURNDATACOPY RETURNDATASIZE PUSH0 REVERT JUMPDEST POP POP POP POP PUSH1 0x40 MLOAD RETURNDATASIZE PUSH1 0x1F NOT PUSH1 0x1F DUP3 ADD AND DUP3 ADD DUP1 PUSH1 0x40 MSTORE POP DUP2 ADD SWAP1 PUSH2 0x8A7 SWAP2 SWAP1 PUSH2 0x172D JUMP JUMPDEST PUSH20 0xFFFFFFFFFFFFFFFFFFFFFFFFFFFFFFFFFFFFFFFF AND EQ PUSH2 0x8FD JUMPI PUSH1 0x40 MLOAD PUSH32 0x8C379A000000000000000000000000000000000000000000000000000000000 DUP2 MSTORE PUSH1 0x4 ADD PUSH2 0x8F4 SWAP1 PUSH2 0x17A2 JUMP JUMPDEST PUSH1 0x40 MLOAD DUP1 SWAP2 SUB SWAP1 REVERT JUMPDEST DUP1 PUSH20 0xFFFFFFFFFFFFFFFFFFFFFFFFFFFFFFFFFFFFFFFF AND PUSH4 0xE985E9C5 CALLER ADDRESS PUSH1 0x40 MLOAD DUP4 PUSH4 0xFFFFFFFF AND PUSH1 0xE0 SHL DUP2 MSTORE PUSH1 0x4 ADD PUSH2 0x938 SWAP3 SWAP2 SWAP1 PUSH2 0x17C0 JUMP JUMPDEST PUSH1 0x20 PUSH1 0x40 MLOAD DUP1 DUP4 SUB DUP2 DUP7 GAS STATICCALL ISZERO DUP1 ISZERO PUSH2 0x953 JUMPI RETURNDATASIZE PUSH0 DUP1 RETURNDATACOPY RETURNDATASIZE PUSH0 REVERT JUMPDEST POP POP POP POP PUSH1 0x40 MLOAD RETURNDATASIZE PUSH1 0x1F NOT PUSH1 0x1F DUP3 ADD AND DUP3 ADD DUP1 PUSH1 0x40 MSTORE POP DUP2 ADD SWAP1 PUSH2 0x977 SWAP2 SWAP1 PUSH2 0x1811 JUMP JUMPDEST DUP1 PUSH2 0xA24 JUMPI POP ADDRESS PUSH20 0xFFFFFFFFFFFFFFFFFFFFFFFFFFFFFFFFFFFFFFFF AND DUP2 PUSH20 0xFFFFFFFFFFFFFFFFFFFFFFFFFFFFFFFFFFFFFFFF AND PUSH4 0x81812FC DUP6 PUSH1 0x40 MLOAD DUP3 PUSH4 0xFFFFFFFF AND PUSH1 0xE0 SHL DUP2 MSTORE PUSH1 0x4 ADD PUSH2 0x9CD SWAP2 SWAP1 PUSH2 0x13DF JUMP JUMPDEST PUSH1 0x20 PUSH1 0x40 MLOAD DUP1 DUP4 SUB DUP2 DUP7 GAS STATICCALL ISZERO DUP1 ISZERO PUSH2 0x9E8 JUMPI RETURNDATASIZE PUSH0 DUP1 RETURNDATACOPY RETURNDATASIZE PUSH0 REVERT JUMPDEST POP POP POP POP PUSH1 0x40 MLOAD RETURNDATASIZE PUSH1 0x1F NOT PUSH1 0x1F DUP3 ADD AND DUP3 ADD DUP1 PUSH1 0x40 MSTORE POP DUP2 ADD SWAP1 PUSH2 0xA0C SWAP2 SWAP1 PUSH2 0x172D JUMP JUMPDEST PUSH20 0xFFFFFFFFFFFFFFFFFFFFFFFFFFFFFFFFFFFFFFFF AND EQ JUMPDEST PUSH2 0xA63 JUMPI PUSH1 0x40 MLOAD PUSH32 0x8C379A000000000000000000000000000000000000000000000000000000000 DUP2 MSTORE PUSH1 0x4 ADD PUSH2 0xA5A SWAP1 PUSH2 0x18AC JUMP JUMPDEST PUSH1 0x40 MLOAD DUP1 SWAP2 SUB SWAP1 REVERT JUMPDEST PUSH1 0x40 MLOAD DUP1 PUSH1 0x80 ADD PUSH1 0x40 MSTORE DUP1 DUP6 PUSH20 0xFFFFFFFFFFFFFFFFFFFFFFFFFFFFFFFFFFFFFFFF AND DUP2 MSTORE PUSH1 0x20 ADD DUP5 DUP2 MSTORE PUSH1 0x20 ADD CALLER PUSH20 0xFFFFFFFFFFFFFFFFFFFFFFFFFFFFFFFFFFFFFFFF AND DUP2 MSTORE PUSH1 0x20 ADD DUP4 DUP2 MSTORE POP PUSH1 0x33 PUSH0 PUSH1 0x34 SLOAD DUP2 MSTORE PUSH1 0x20 ADD SWAP1 DUP2 MSTORE PUSH1 0x20 ADD PUSH0 KECCAK256 PUSH0 DUP3 ADD MLOAD DUP2 PUSH0 ADD PUSH0 PUSH2 0x100 EXP DUP2 SLOAD DUP2 PUSH20 0xFFFFFFFFFFFFFFFFFFFFFFFFFFFFFFFFFFFFFFFF MUL NOT AND SWAP1 DUP4 PUSH20 0xFFFFFFFFFFFFFFFFFFFFFFFFFFFFFFFFFFFFFFFF AND MUL OR SWAP1 SSTORE POP PUSH1 0x20 DUP3 ADD MLOAD DUP2 PUSH1 0x1 ADD SSTORE PUSH1 0x40 DUP3 ADD MLOAD DUP2 PUSH1 0x2 ADD PUSH0 PUSH2 0x100 EXP DUP2 SLOAD DUP2 PUSH20 0xFFFFFFFFFFFFFFFFFFFFFFFFFFFFFFFFFFFFFFFF MUL NOT AND SWAP1 DUP4 PUSH20 0xFFFFFFFFFFFFFFFFFFFFFFFFFFFFFFFFFFFFFFFF AND MUL OR SWAP1 SSTORE POP PUSH1 0x60 DUP3 ADD MLOAD DUP2 PUSH1 0x3 ADD SSTORE SWAP1 POP POP DUP3 CALLER PUSH20 0xFFFFFFFFFFFFFFFFFFFFFFFFFFFFFFFFFFFFFFFF AND PUSH1 0x34 SLOAD PUSH32 0x36E94395FAFCB0D2A9BCFCDD5CEF807AB52A1F4382906992EBDC18DE5F1472C4 DUP6 PUSH1 0x40 MLOAD PUSH2 0xBAE SWAP2 SWAP1 PUSH2 0x13DF JUMP JUMPDEST PUSH1 0x40 MLOAD DUP1 SWAP2 SUB SWAP1 LOG4 PUSH1 0x34 PUSH0 DUP2 SLOAD DUP1 SWAP3 SWAP2 SWAP1 PUSH2 0xBC8 SWAP1 PUSH2 0x18F7 JUMP JUMPDEST SWAP2 SWAP1 POP SSTORE POP POP PUSH2 0xBD6 PUSH2 0x1037 JUMP JUMPDEST POP POP POP JUMP JUMPDEST PUSH0 PUSH2 0xBE4 PUSH2 0x119A JUMP JUMPDEST SWAP1 POP PUSH0 DUP2 PUSH0 ADD PUSH1 0x8 SWAP1 SLOAD SWAP1 PUSH2 0x100 EXP SWAP1 DIV PUSH1 0xFF AND ISZERO SWAP1 POP PUSH0 DUP3 PUSH0 ADD PUSH0 SWAP1 SLOAD SWAP1 PUSH2 0x100 EXP SWAP1 DIV PUSH8 0xFFFFFFFFFFFFFFFF AND SWAP1 POP PUSH0 DUP1 DUP3 PUSH8 0xFFFFFFFFFFFFFFFF AND EQ DUP1 ISZERO PUSH2 0xC2C JUMPI POP DUP3 JUMPDEST SWAP1 POP PUSH0 PUSH1 0x1 DUP4 PUSH8 0xFFFFFFFFFFFFFFFF AND EQ DUP1 ISZERO PUSH2 0xC5F JUMPI POP PUSH0 ADDRESS PUSH20 0xFFFFFFFFFFFFFFFFFFFFFFFFFFFFFFFFFFFFFFFF AND EXTCODESIZE EQ JUMPDEST SWAP1 POP DUP2 ISZERO DUP1 ISZERO PUSH2 0xC6D JUMPI POP DUP1 ISZERO JUMPDEST ISZERO PUSH2 0xCA4 JUMPI PUSH1 0x40 MLOAD PUSH32 0xF92EE8A900000000000000000000000000000000000000000000000000000000 DUP2 MSTORE PUSH1 0x4 ADD PUSH1 0x40 MLOAD DUP1 SWAP2 SUB SWAP1 REVERT JUMPDEST PUSH1 0x1 DUP6 PUSH0 ADD PUSH0 PUSH2 0x100 EXP DUP2 SLOAD DUP2 PUSH8 0xFFFFFFFFFFFFFFFF MUL NOT AND SWAP1 DUP4 PUSH8 0xFFFFFFFFFFFFFFFF AND MUL OR SWAP1 SSTORE POP DUP4 ISZERO PUSH2 0xCF1 JUMPI PUSH1 0x1 DUP6 PUSH0 ADD PUSH1 0x8 PUSH2 0x100 EXP DUP2 SLOAD DUP2 PUSH1 0xFF MUL NOT AND SWAP1 DUP4 ISZERO ISZERO MUL OR SWAP1 SSTORE POP JUMPDEST DUP6 PUSH1 0x35 PUSH0 PUSH2 0x100 EXP DUP2 SLOAD DUP2 PUSH20 0xFFFFFFFFFFFFFFFFFFFFFFFFFFFFFFFFFFFFFFFF MUL NOT AND SWAP1 DUP4 PUSH20 0xFFFFFFFFFFFFFFFFFFFFFFFFFFFFFFFFFFFFFFFF AND MUL OR SWAP1 SSTORE POP PUSH2 0xD3A CALLER PUSH2 0x11C1 JUMP JUMPDEST PUSH2 0xD42 PUSH2 0x11D5 JUMP JUMPDEST DUP4 ISZERO PUSH2 0xD9C JUMPI PUSH0 DUP6 PUSH0 ADD PUSH1 0x8 PUSH2 0x100 EXP DUP2 SLOAD DUP2 PUSH1 0xFF MUL NOT AND SWAP1 DUP4 ISZERO ISZERO MUL OR SWAP1 SSTORE POP PUSH32 0xC7F505B2F371AE2175EE4913F4499E1F2633A7B5936321EED1CDAEB6115181D2 PUSH1 0x1 PUSH1 0x40 MLOAD PUSH2 0xD93 SWAP2 SWAP1 PUSH2 0x1993 JUMP JUMPDEST PUSH1 0x40 MLOAD DUP1 SWAP2 SUB SWAP1 LOG1 JUMPDEST POP POP POP POP POP POP JUMP JUMPDEST PUSH1 0x33 PUSH1 0x20 MSTORE DUP1 PUSH0 MSTORE PUSH1 0x40 PUSH0 KECCAK256 PUSH0 SWAP2 POP SWAP1 POP DUP1 PUSH0 ADD PUSH0 SWAP1 SLOAD SWAP1 PUSH2 0x100 EXP SWAP1 DIV PUSH20 0xFFFFFFFFFFFFFFFFFFFFFFFFFFFFFFFFFFFFFFFF AND SWAP1 DUP1 PUSH1 0x1 ADD SLOAD SWAP1 DUP1 PUSH1 0x2 ADD PUSH0 SWAP1 SLOAD SWAP1 PUSH2 0x100 EXP SWAP1 DIV PUSH20 0xFFFFFFFFFFFFFFFFFFFFFFFFFFFFFFFFFFFFFFFF AND SWAP1 DUP1 PUSH1 0x3 ADD SLOAD SWAP1 POP DUP5 JUMP JUMPDEST PUSH1 0x35 PUSH0 SWAP1 SLOAD SWAP1 PUSH2 0x100 EXP SWAP1 DIV PUSH20 0xFFFFFFFFFFFFFFFFFFFFFFFFFFFFFFFFFFFFFFFF AND DUP2 JUMP JUMPDEST PUSH2 0xE3B PUSH2 0xEB7 JUMP JUMPDEST PUSH0 PUSH20 0xFFFFFFFFFFFFFFFFFFFFFFFFFFFFFFFFFFFFFFFF AND DUP2 PUSH20 0xFFFFFFFFFFFFFFFFFFFFFFFFFFFFFFFFFFFFFFFF AND SUB PUSH2 0xEAB JUMPI PUSH0 PUSH1 0x40 MLOAD PUSH32 0x1E4FBDF700000000000000000000000000000000000000000000000000000000 DUP2 MSTORE PUSH1 0x4 ADD PUSH2 0xEA2 SWAP2 SWAP1 PUSH2 0x1437 JUMP JUMPDEST PUSH1 0x40 MLOAD DUP1 SWAP2 SUB SWAP1 REVERT JUMPDEST PUSH2 0xEB4 DUP2 PUSH2 0x1041 JUMP JUMPDEST POP JUMP JUMPDEST PUSH2 0xEBF PUSH2 0x11E7 JUMP JUMPDEST PUSH20 0xFFFFFFFFFFFFFFFFFFFFFFFFFFFFFFFFFFFFFFFF AND PUSH2 0xEDD PUSH2 0x54E JUMP JUMPDEST PUSH20 0xFFFFFFFFFFFFFFFFFFFFFFFFFFFFFFFFFFFFFFFF AND EQ PUSH2 0xF3C JUMPI PUSH2 0xF00 PUSH2 0x11E7 JUMP JUMPDEST PUSH1 0x40 MLOAD PUSH32 0x118CDAA700000000000000000000000000000000000000000000000000000000 DUP2 MSTORE PUSH1 0x4 ADD PUSH2 0xF33 SWAP2 SWAP1 PUSH2 0x1437 JUMP JUMPDEST PUSH1 0x40 MLOAD DUP1 SWAP2 SUB SWAP1 REVERT JUMPDEST JUMP JUMPDEST PUSH2 0xF46 PUSH2 0x11EE JUMP JUMPDEST PUSH0 DUP1 PUSH0 PUSH2 0x100 EXP DUP2 SLOAD DUP2 PUSH1 0xFF MUL NOT AND SWAP1 DUP4 ISZERO ISZERO MUL OR SWAP1 SSTORE POP PUSH32 0x5DB9EE0A495BF2E6FF9C91A7834C1BA4FDD244A5E8AA4E537BD38AEAE4B073AA PUSH2 0xF87 PUSH2 0x11E7 JUMP JUMPDEST PUSH1 0x40 MLOAD PUSH2 0xF94 SWAP2 SWAP1 PUSH2 0x1437 JUMP JUMPDEST PUSH1 0x40 MLOAD DUP1 SWAP2 SUB SWAP1 LOG1 JUMP JUMPDEST PUSH2 0xFA6 PUSH2 0x50F JUMP JUMPDEST ISZERO PUSH2 0xFE6 JUMPI PUSH1 0x40 MLOAD PUSH32 0x8C379A000000000000000000000000000000000000000000000000000000000 DUP2 MSTORE PUSH1 0x4 ADD PUSH2 0xFDD SWAP1 PUSH2 0x19F6 JUMP JUMPDEST PUSH1 0x40 MLOAD DUP1 SWAP2 SUB SWAP1 REVERT JUMPDEST JUMP JUMPDEST PUSH1 0x2 PUSH1 0x32 SLOAD SUB PUSH2 0x102D JUMPI PUSH1 0x40 MLOAD PUSH32 0x8C379A000000000000000000000000000000000000000000000000000000000 DUP2 MSTORE PUSH1 0x4 ADD PUSH2 0x1024 SWAP1 PUSH2 0x1A5E JUMP JUMPDEST PUSH1 0x40 MLOAD DUP1 SWAP2 SUB SWAP1 REVERT JUMPDEST PUSH1 0x2 PUSH1 0x32 DUP2 SWAP1 SSTORE POP JUMP JUMPDEST PUSH1 0x1 PUSH1 0x32 DUP2 SWAP1 SSTORE POP JUMP JUMPDEST PUSH0 PUSH2 0x104A PUSH2 0x1173 JUMP JUMPDEST SWAP1 POP PUSH0 DUP2 PUSH0 ADD PUSH0 SWAP1 SLOAD SWAP1 PUSH2 0x100 EXP SWAP1 DIV PUSH20 0xFFFFFFFFFFFFFFFFFFFFFFFFFFFFFFFFFFFFFFFF AND SWAP1 POP DUP3 DUP3 PUSH0 ADD PUSH0 PUSH2 0x100 EXP DUP2 SLOAD DUP2 PUSH20 0xFFFFFFFFFFFFFFFFFFFFFFFFFFFFFFFFFFFFFFFF MUL NOT AND SWAP1 DUP4 PUSH20 0xFFFFFFFFFFFFFFFFFFFFFFFFFFFFFFFFFFFFFFFF AND MUL OR SWAP1 SSTORE POP DUP3 PUSH20 0xFFFFFFFFFFFFFFFFFFFFFFFFFFFFFFFFFFFFFFFF AND DUP2 PUSH20 0xFFFFFFFFFFFFFFFFFFFFFFFFFFFFFFFFFFFFFFFF AND PUSH32 0x8BE0079C531659141344CD1FD0A4F28419497F9722A3DAAFE3B4186F6B6457E0 PUSH1 0x40 MLOAD PUSH1 0x40 MLOAD DUP1 SWAP2 SUB SWAP1 LOG3 POP POP POP JUMP JUMPDEST PUSH2 0x111A PUSH2 0xF9E JUMP JUMPDEST PUSH1 0x1 PUSH0 DUP1 PUSH2 0x100 EXP DUP2 SLOAD DUP2 PUSH1 0xFF MUL NOT AND SWAP1 DUP4 ISZERO ISZERO MUL OR SWAP1 SSTORE POP PUSH32 0x62E78CEA01BEE320CD4E420270B5EA74000D11B0C9F74754EBDBFC544B05A258 PUSH2 0x115C PUSH2 0x11E7 JUMP JUMPDEST PUSH1 0x40 MLOAD PUSH2 0x1169 SWAP2 SWAP1 PUSH2 0x1437 JUMP JUMPDEST PUSH1 0x40 MLOAD DUP1 SWAP2 SUB SWAP1 LOG1 JUMP JUMPDEST PUSH0 PUSH32 0x9016D09D72D40FDAE2FD8CEAC6B6234C7706214FD39C1CD1E609A0528C199300 SWAP1 POP SWAP1 JUMP JUMPDEST PUSH0 PUSH32 0xF0C57E16840DF040F15088DC2F81FE391C3923BEC73E23A9662EFC9C229C6A00 SWAP1 POP SWAP1 JUMP JUMPDEST PUSH2 0x11C9 PUSH2 0x1237 JUMP JUMPDEST PUSH2 0x11D2 DUP2 PUSH2 0x1277 JUMP JUMPDEST POP JUMP JUMPDEST PUSH2 0x11DD PUSH2 0x1237 JUMP JUMPDEST PUSH2 0x11E5 PUSH2 0x12FB JUMP JUMPDEST JUMP JUMPDEST PUSH0 CALLER SWAP1 POP SWAP1 JUMP JUMPDEST PUSH2 0x11F6 PUSH2 0x50F JUMP JUMPDEST PUSH2 0x1235 JUMPI PUSH1 0x40 MLOAD PUSH32 0x8C379A000000000000000000000000000000000000000000000000000000000 DUP2 MSTORE PUSH1 0x4 ADD PUSH2 0x122C SWAP1 PUSH2 0x1AC6 JUMP JUMPDEST PUSH1 0x40 MLOAD DUP1 SWAP2 SUB SWAP1 REVERT JUMPDEST JUMP JUMPDEST PUSH2 0x123F PUSH2 0x131D JUMP JUMPDEST PUSH2 0x1275 JUMPI PUSH1 0x40 MLOAD PUSH32 0xD7E6BCF800000000000000000000000000000000000000000000000000000000 DUP2 MSTORE PUSH1 0x4 ADD PUSH1 0x40 MLOAD DUP1 SWAP2 SUB SWAP1 REVERT JUMPDEST JUMP JUMPDEST PUSH2 0x127F PUSH2 0x1237 JUMP JUMPDEST PUSH0 PUSH20 0xFFFFFFFFFFFFFFFFFFFFFFFFFFFFFFFFFFFFFFFF AND DUP2 PUSH20 0xFFFFFFFFFFFFFFFFFFFFFFFFFFFFFFFFFFFFFFFF AND SUB PUSH2 0x12EF JUMPI PUSH0 PUSH1 0x40 MLOAD PUSH32 0x1E4FBDF700000000000000000000000000000000000000000000000000000000 DUP2 MSTORE PUSH1 0x4 ADD PUSH2 0x12E6 SWAP2 SWAP1 PUSH2 0x1437 JUMP JUMPDEST PUSH1 0x40 MLOAD DUP1 SWAP2 SUB SWAP1 REVERT JUMPDEST PUSH2 0x12F8 DUP2 PUSH2 0x1041 JUMP JUMPDEST POP JUMP JUMPDEST PUSH2 0x1303 PUSH2 0x1237 JUMP JUMPDEST PUSH0 DUP1 PUSH0 PUSH2 0x100 EXP DUP2 SLOAD DUP2 PUSH1 0xFF MUL NOT AND SWAP1 DUP4 ISZERO ISZERO MUL OR SWAP1 SSTORE POP JUMP JUMPDEST PUSH0 PUSH2 0x1326 PUSH2 0x119A JUMP JUMPDEST PUSH0 ADD PUSH1 0x8 SWAP1 SLOAD SWAP1 PUSH2 0x100 EXP SWAP1 DIV PUSH1 0xFF AND SWAP1 POP SWAP1 JUMP JUMPDEST PUSH0 DUP1 REVERT JUMPDEST PUSH0 DUP2 SWAP1 POP SWAP2 SWAP1 POP JUMP JUMPDEST PUSH2 0x1351 DUP2 PUSH2 0x133F JUMP JUMPDEST DUP2 EQ PUSH2 0x135B JUMPI PUSH0 DUP1 REVERT JUMPDEST POP JUMP JUMPDEST PUSH0 DUP2 CALLDATALOAD SWAP1 POP PUSH2 0x136C DUP2 PUSH2 0x1348 JUMP JUMPDEST SWAP3 SWAP2 POP POP JUMP JUMPDEST PUSH0 PUSH1 0x20 DUP3 DUP5 SUB SLT ISZERO PUSH2 0x1387 JUMPI PUSH2 0x1386 PUSH2 0x133B JUMP JUMPDEST JUMPDEST PUSH0 PUSH2 0x1394 DUP5 DUP3 DUP6 ADD PUSH2 0x135E JUMP JUMPDEST SWAP2 POP POP SWAP3 SWAP2 POP POP JUMP JUMPDEST PUSH0 DUP2 ISZERO ISZERO SWAP1 POP SWAP2 SWAP1 POP JUMP JUMPDEST PUSH2 0x13B1 DUP2 PUSH2 0x139D JUMP JUMPDEST DUP3 MSTORE POP POP JUMP JUMPDEST PUSH0 PUSH1 0x20 DUP3 ADD SWAP1 POP PUSH2 0x13CA PUSH0 DUP4 ADD DUP5 PUSH2 0x13A8 JUMP JUMPDEST SWAP3 SWAP2 POP POP JUMP JUMPDEST PUSH2 0x13D9 DUP2 PUSH2 0x133F JUMP JUMPDEST DUP3 MSTORE POP POP JUMP JUMPDEST PUSH0 PUSH1 0x20 DUP3 ADD SWAP1 POP PUSH2 0x13F2 PUSH0 DUP4 ADD DUP5 PUSH2 0x13D0 JUMP JUMPDEST SWAP3 SWAP2 POP POP JUMP JUMPDEST PUSH0 PUSH20 0xFFFFFFFFFFFFFFFFFFFFFFFFFFFFFFFFFFFFFFFF DUP3 AND SWAP1 POP SWAP2 SWAP1 POP JUMP JUMPDEST PUSH0 PUSH2 0x1421 DUP3 PUSH2 0x13F8 JUMP JUMPDEST SWAP1 POP SWAP2 SWAP1 POP JUMP JUMPDEST PUSH2 0x1431 DUP2 PUSH2 0x1417 JUMP JUMPDEST DUP3 MSTORE POP POP JUMP JUMPDEST PUSH0 PUSH1 0x20 DUP3 ADD SWAP1 POP PUSH2 0x144A PUSH0 DUP4 ADD DUP5 PUSH2 0x1428 JUMP JUMPDEST SWAP3 SWAP2 POP POP JUMP JUMPDEST PUSH2 0x1459 DUP2 PUSH2 0x1417 JUMP JUMPDEST DUP2 EQ PUSH2 0x1463 JUMPI PUSH0 DUP1 REVERT JUMPDEST POP JUMP JUMPDEST PUSH0 DUP2 CALLDATALOAD SWAP1 POP PUSH2 0x1474 DUP2 PUSH2 0x1450 JUMP JUMPDEST SWAP3 SWAP2 POP POP JUMP JUMPDEST PUSH0 DUP1 PUSH1 0x40 DUP4 DUP6 SUB SLT ISZERO PUSH2 0x1490 JUMPI PUSH2 0x148F PUSH2 0x133B JUMP JUMPDEST JUMPDEST PUSH0 PUSH2 0x149D DUP6 DUP3 DUP7 ADD PUSH2 0x135E JUMP JUMPDEST SWAP3 POP POP PUSH1 0x20 PUSH2 0x14AE DUP6 DUP3 DUP7 ADD PUSH2 0x1466 JUMP JUMPDEST SWAP2 POP POP SWAP3 POP SWAP3 SWAP1 POP JUMP JUMPDEST PUSH0 DUP1 PUSH0 PUSH1 0x60 DUP5 DUP7 SUB SLT ISZERO PUSH2 0x14CF JUMPI PUSH2 0x14CE PUSH2 0x133B JUMP JUMPDEST JUMPDEST PUSH0 PUSH2 0x14DC DUP7 DUP3 DUP8 ADD PUSH2 0x1466 JUMP JUMPDEST SWAP4 POP POP PUSH1 0x20 PUSH2 0x14ED DUP7 DUP3 DUP8 ADD PUSH2 0x135E JUMP JUMPDEST SWAP3 POP POP PUSH1 0x40 PUSH2 0x14FE DUP7 DUP3 DUP8 ADD PUSH2 0x135E JUMP JUMPDEST SWAP2 POP POP SWAP3 POP SWAP3 POP SWAP3 JUMP JUMPDEST PUSH0 PUSH1 0x20 DUP3 DUP5 SUB SLT ISZERO PUSH2 0x151D JUMPI PUSH2 0x151C PUSH2 0x133B JUMP JUMPDEST JUMPDEST PUSH0 PUSH2 0x152A DUP5 DUP3 DUP6 ADD PUSH2 0x1466 JUMP JUMPDEST SWAP2 POP POP SWAP3 SWAP2 POP POP JUMP JUMPDEST PUSH0 PUSH1 0x80 DUP3 ADD SWAP1 POP PUSH2 0x1546 PUSH0 DUP4 ADD DUP8 PUSH2 0x1428 JUMP JUMPDEST PUSH2 0x1553 PUSH1 0x20 DUP4 ADD DUP7 PUSH2 0x13D0 JUMP JUMPDEST PUSH2 0x1560 PUSH1 0x40 DUP4 ADD DUP6 PUSH2 0x1428 JUMP JUMPDEST PUSH2 0x156D PUSH1 0x60 DUP4 ADD DUP5 PUSH2 0x13D0 JUMP JUMPDEST SWAP6 SWAP5 POP POP POP POP POP JUMP JUMPDEST PUSH0 DUP3 DUP3 MSTORE PUSH1 0x20 DUP3 ADD SWAP1 POP SWAP3 SWAP2 POP POP JUMP JUMPDEST PUSH32 0x4E6F20736520686120656E766961646F20737566696369656E74652045544800 PUSH0 DUP3 ADD MSTORE POP JUMP JUMPDEST PUSH0 PUSH2 0x15BA PUSH1 0x1F DUP4 PUSH2 0x1576 JUMP JUMPDEST SWAP2 POP PUSH2 0x15C5 DUP3 PUSH2 0x1586 JUMP JUMPDEST PUSH1 0x20 DUP3 ADD SWAP1 POP SWAP2 SWAP1 POP JUMP JUMPDEST PUSH0 PUSH1 0x20 DUP3 ADD SWAP1 POP DUP2 DUP2 SUB PUSH0 DUP4 ADD MSTORE PUSH2 0x15E7 DUP2 PUSH2 0x15AE JUMP JUMPDEST SWAP1 POP SWAP2 SWAP1 POP JUMP JUMPDEST PUSH0 PUSH1 0x60 DUP3 ADD SWAP1 POP PUSH2 0x1601 PUSH0 DUP4 ADD DUP7 PUSH2 0x1428 JUMP JUMPDEST PUSH2 0x160E PUSH1 0x20 DUP4 ADD DUP6 PUSH2 0x1428 JUMP JUMPDEST PUSH2 0x161B PUSH1 0x40 DUP4 ADD DUP5 PUSH2 0x13D0 JUMP JUMPDEST SWAP5 SWAP4 POP POP POP POP JUMP JUMPDEST PUSH32 0x536F6C6F20656C2076656E6465646F72207075656465207472616E7366657269 PUSH0 DUP3 ADD MSTORE PUSH32 0x7220656C204E4654000000000000000000000000000000000000000000000000 PUSH1 0x20 DUP3 ADD MSTORE POP JUMP JUMPDEST PUSH0 PUSH2 0x167D PUSH1 0x28 DUP4 PUSH2 0x1576 JUMP JUMPDEST SWAP2 POP PUSH2 0x1688 DUP3 PUSH2 0x1623 JUMP JUMPDEST PUSH1 0x40 DUP3 ADD SWAP1 POP SWAP2 SWAP1 POP JUMP JUMPDEST PUSH0 PUSH1 0x20 DUP3 ADD SWAP1 POP DUP2 DUP2 SUB PUSH0 DUP4 ADD MSTORE PUSH2 0x16AA DUP2 PUSH2 0x1671 JUMP JUMPDEST SWAP1 POP SWAP2 SWAP1 POP JUMP JUMPDEST PUSH32 0x456C2070726563696F206465626520736572206D61796F722061203000000000 PUSH0 DUP3 ADD MSTORE POP JUMP JUMPDEST PUSH0 PUSH2 0x16E5 PUSH1 0x1C DUP4 PUSH2 0x1576 JUMP JUMPDEST SWAP2 POP PUSH2 0x16F0 DUP3 PUSH2 0x16B1 JUMP JUMPDEST PUSH1 0x20 DUP3 ADD SWAP1 POP SWAP2 SWAP1 POP JUMP JUMPDEST PUSH0 PUSH1 0x20 DUP3 ADD SWAP1 POP DUP2 DUP2 SUB PUSH0 DUP4 ADD MSTORE PUSH2 0x1712 DUP2 PUSH2 0x16D9 JUMP JUMPDEST SWAP1 POP SWAP2 SWAP1 POP JUMP JUMPDEST PUSH0 DUP2 MLOAD SWAP1 POP PUSH2 0x1727 DUP2 PUSH2 0x1450 JUMP JUMPDEST SWAP3 SWAP2 POP POP JUMP JUMPDEST PUSH0 PUSH1 0x20 DUP3 DUP5 SUB SLT ISZERO PUSH2 0x1742 JUMPI PUSH2 0x1741 PUSH2 0x133B JUMP JUMPDEST JUMPDEST PUSH0 PUSH2 0x174F DUP5 DUP3 DUP6 ADD PUSH2 0x1719 JUMP JUMPDEST SWAP2 POP POP SWAP3 SWAP2 POP POP JUMP JUMPDEST PUSH32 0x4E6F206572657320656C2070726F706965746172696F2064656C204E46540000 PUSH0 DUP3 ADD MSTORE POP JUMP JUMPDEST PUSH0 PUSH2 0x178C PUSH1 0x1E DUP4 PUSH2 0x1576 JUMP JUMPDEST SWAP2 POP PUSH2 0x1797 DUP3 PUSH2 0x1758 JUMP JUMPDEST PUSH1 0x20 DUP3 ADD SWAP1 POP SWAP2 SWAP1 POP JUMP JUMPDEST PUSH0 PUSH1 0x20 DUP3 ADD SWAP1 POP DUP2 DUP2 SUB PUSH0 DUP4 ADD MSTORE PUSH2 0x17B9 DUP2 PUSH2 0x1780 JUMP JUMPDEST SWAP1 POP SWAP2 SWAP1 POP JUMP JUMPDEST PUSH0 PUSH1 0x40 DUP3 ADD SWAP1 POP PUSH2 0x17D3 PUSH0 DUP4 ADD DUP6 PUSH2 0x1428 JUMP JUMPDEST PUSH2 0x17E0 PUSH1 0x20 DUP4 ADD DUP5 PUSH2 0x1428 JUMP JUMPDEST SWAP4 SWAP3 POP POP POP JUMP JUMPDEST PUSH2 0x17F0 DUP2 PUSH2 0x139D JUMP JUMPDEST DUP2 EQ PUSH2 0x17FA JUMPI PUSH0 DUP1 REVERT JUMPDEST POP JUMP JUMPDEST PUSH0 DUP2 MLOAD SWAP1 POP PUSH2 0x180B DUP2 PUSH2 0x17E7 JUMP JUMPDEST SWAP3 SWAP2 POP POP JUMP JUMPDEST PUSH0 PUSH1 0x20 DUP3 DUP5 SUB SLT ISZERO PUSH2 0x1826 JUMPI PUSH2 0x1825 PUSH2 0x133B JUMP JUMPDEST JUMPDEST PUSH0 PUSH2 0x1833 DUP5 DUP3 DUP6 ADD PUSH2 0x17FD JUMP JUMPDEST SWAP2 POP POP SWAP3 SWAP2 POP POP JUMP JUMPDEST PUSH32 0x4D61726B6574706C616365206E6F206170726F6261646F2070617261206D616E PUSH0 DUP3 ADD MSTORE PUSH32 0x656A617220656C204E4654000000000000000000000000000000000000000000 PUSH1 0x20 DUP3 ADD MSTORE POP JUMP JUMPDEST PUSH0 PUSH2 0x1896 PUSH1 0x2B DUP4 PUSH2 0x1576 JUMP JUMPDEST SWAP2 POP PUSH2 0x18A1 DUP3 PUSH2 0x183C JUMP JUMPDEST PUSH1 0x40 DUP3 ADD SWAP1 POP SWAP2 SWAP1 POP JUMP JUMPDEST PUSH0 PUSH1 0x20 DUP3 ADD SWAP1 POP DUP2 DUP2 SUB PUSH0 DUP4 ADD MSTORE PUSH2 0x18C3 DUP2 PUSH2 0x188A JUMP JUMPDEST SWAP1 POP SWAP2 SWAP1 POP JUMP JUMPDEST PUSH32 0x4E487B7100000000000000000000000000000000000000000000000000000000 PUSH0 MSTORE PUSH1 0x11 PUSH1 0x4 MSTORE PUSH1 0x24 PUSH0 REVERT JUMPDEST PUSH0 PUSH2 0x1901 DUP3 PUSH2 0x133F JUMP JUMPDEST SWAP2 POP PUSH32 0xFFFFFFFFFFFFFFFFFFFFFFFFFFFFFFFFFFFFFFFFFFFFFFFFFFFFFFFFFFFFFFFF DUP3 SUB PUSH2 0x1933 JUMPI PUSH2 0x1932 PUSH2 0x18CA JUMP JUMPDEST JUMPDEST PUSH1 0x1 DUP3 ADD SWAP1 POP SWAP2 SWAP1 POP JUMP JUMPDEST PUSH0 DUP2 SWAP1 POP SWAP2 SWAP1 POP JUMP JUMPDEST PUSH0 PUSH8 0xFFFFFFFFFFFFFFFF DUP3 AND SWAP1 POP SWAP2 SWAP1 POP JUMP JUMPDEST PUSH0 DUP2 SWAP1 POP SWAP2 SWAP1 POP JUMP JUMPDEST PUSH0 PUSH2 0x197D PUSH2 0x1978 PUSH2 0x1973 DUP5 PUSH2 0x193E JUMP JUMPDEST PUSH2 0x195A JUMP JUMPDEST PUSH2 0x1947 JUMP JUMPDEST SWAP1 POP SWAP2 SWAP1 POP JUMP JUMPDEST PUSH2 0x198D DUP2 PUSH2 0x1963 JUMP JUMPDEST DUP3 MSTORE POP POP JUMP JUMPDEST PUSH0 PUSH1 0x20 DUP3 ADD SWAP1 POP PUSH2 0x19A6 PUSH0 DUP4 ADD DUP5 PUSH2 0x1984 JUMP JUMPDEST SWAP3 SWAP2 POP POP JUMP JUMPDEST PUSH32 0x5061757361626C653A2070617573656400000000000000000000000000000000 PUSH0 DUP3 ADD MSTORE POP JUMP JUMPDEST PUSH0 PUSH2 0x19E0 PUSH1 0x10 DUP4 PUSH2 0x1576 JUMP JUMPDEST SWAP2 POP PUSH2 0x19EB DUP3 PUSH2 0x19AC JUMP JUMPDEST PUSH1 0x20 DUP3 ADD SWAP1 POP SWAP2 SWAP1 POP JUMP JUMPDEST PUSH0 PUSH1 0x20 DUP3 ADD SWAP1 POP DUP2 DUP2 SUB PUSH0 DUP4 ADD MSTORE PUSH2 0x1A0D DUP2 PUSH2 0x19D4 JUMP JUMPDEST SWAP1 POP SWAP2 SWAP1 POP JUMP JUMPDEST PUSH32 0x5265656E7472616E637947756172643A207265656E7472616E742063616C6C00 PUSH0 DUP3 ADD MSTORE POP JUMP JUMPDEST PUSH0 PUSH2 0x1A48 PUSH1 0x1F DUP4 PUSH2 0x1576 JUMP JUMPDEST SWAP2 POP PUSH2 0x1A53 DUP3 PUSH2 0x1A14 JUMP JUMPDEST PUSH1 0x20 DUP3 ADD SWAP1 POP SWAP2 SWAP1 POP JUMP JUMPDEST PUSH0 PUSH1 0x20 DUP3 ADD SWAP1 POP DUP2 DUP2 SUB PUSH0 DUP4 ADD MSTORE PUSH2 0x1A75 DUP2 PUSH2 0x1A3C JUMP JUMPDEST SWAP1 POP SWAP2 SWAP1 POP JUMP JUMPDEST PUSH32 0x5061757361626C653A206E6F7420706175736564000000000000000000000000 PUSH0 DUP3 ADD MSTORE POP JUMP JUMPDEST PUSH0 PUSH2 0x1AB0 PUSH1 0x14 DUP4 PUSH2 0x1576 JUMP JUMPDEST SWAP2 POP PUSH2 0x1ABB DUP3 PUSH2 0x1A7C JUMP JUMPDEST PUSH1 0x20 DUP3 ADD SWAP1 POP SWAP2 SWAP1 POP JUMP JUMPDEST PUSH0 PUSH1 0x20 DUP3 ADD SWAP1 POP DUP2 DUP2 SUB PUSH0 DUP4 ADD MSTORE PUSH2 0x1ADD DUP2 PUSH2 0x1AA4 JUMP JUMPDEST SWAP1 POP SWAP2 SWAP1 POP JUMP INVALID LOG2 PUSH5 0x6970667358 0x22 SLT KECCAK256 MULMOD COINBASE 0xE6 PUSH20 0x16ACEE818C0CCF2FE989DB150778531ADA8BCA81 DUP14 PUSH32 0x46182CCB617164736F6C634300081A0033000000000000000000000000000000 "
				},
				"gasEstimates": {
					"creation": {
						"codeDepositCost": "1387600",
						"executionCost": "23556",
						"totalCost": "1411156"
					},
					"external": {
						"buyNFT(uint256)": "infinite",
						"initialize(address)": "infinite",
						"listNFT(address,uint256,uint256)": "infinite",
						"listingCounter()": "2492",
						"listings(uint256)": "infinite",
						"marketplaceFactory()": "2574",
						"owner()": "2590",
						"pause()": "infinite",
						"paused()": "2518",
						"renounceOwnership()": "infinite",
						"transferNFT(uint256,address)": "infinite",
						"transferOwnership(address)": "infinite",
						"unpause()": "infinite"
					}
				},
				"methodIdentifiers": {
					"buyNFT(uint256)": "51ed8288",
					"initialize(address)": "c4d66de8",
					"listNFT(address,uint256,uint256)": "ad05f1b4",
					"listingCounter()": "6c2c9c7d",
					"listings(uint256)": "de74e57b",
					"marketplaceFactory()": "f0c215bd",
					"owner()": "8da5cb5b",
					"pause()": "8456cb59",
					"paused()": "5c975abb",
					"renounceOwnership()": "715018a6",
					"transferNFT(uint256,address)": "9036c050",
					"transferOwnership(address)": "f2fde38b",
					"unpause()": "3f4ba83a"
				}
			},
			"storageLayout": {
				"storage": [
					{
						"astId": 470,
						"contract": "MarketPlace.sol:NFTMarketplace",
						"label": "_paused",
						"offset": 0,
						"slot": "0",
						"type": "t_bool"
					},
					{
						"astId": 575,
						"contract": "MarketPlace.sol:NFTMarketplace",
						"label": "__gap",
						"offset": 0,
						"slot": "1",
						"type": "t_array(t_uint256)49_storage"
					},
					{
						"astId": 718,
						"contract": "MarketPlace.sol:NFTMarketplace",
						"label": "_status",
						"offset": 0,
						"slot": "50",
						"type": "t_uint256"
					},
					{
						"astId": 977,
						"contract": "MarketPlace.sol:NFTMarketplace",
						"label": "listings",
						"offset": 0,
						"slot": "51",
						"type": "t_mapping(t_uint256,t_struct(Listing)972_storage)"
					},
					{
						"astId": 979,
						"contract": "MarketPlace.sol:NFTMarketplace",
						"label": "listingCounter",
						"offset": 0,
						"slot": "52",
						"type": "t_uint256"
					},
					{
						"astId": 981,
						"contract": "MarketPlace.sol:NFTMarketplace",
						"label": "marketplaceFactory",
						"offset": 0,
						"slot": "53",
						"type": "t_address"
					}
				],
				"types": {
					"t_address": {
						"encoding": "inplace",
						"label": "address",
						"numberOfBytes": "20"
					},
					"t_array(t_uint256)49_storage": {
						"base": "t_uint256",
						"encoding": "inplace",
						"label": "uint256[49]",
						"numberOfBytes": "1568"
					},
					"t_bool": {
						"encoding": "inplace",
						"label": "bool",
						"numberOfBytes": "1"
					},
					"t_mapping(t_uint256,t_struct(Listing)972_storage)": {
						"encoding": "mapping",
						"key": "t_uint256",
						"label": "mapping(uint256 => struct NFTMarketplace.Listing)",
						"numberOfBytes": "32",
						"value": "t_struct(Listing)972_storage"
					},
					"t_struct(Listing)972_storage": {
						"encoding": "inplace",
						"label": "struct NFTMarketplace.Listing",
						"members": [
							{
								"astId": 965,
								"contract": "MarketPlace.sol:NFTMarketplace",
								"label": "nftContract",
								"offset": 0,
								"slot": "0",
								"type": "t_address"
							},
							{
								"astId": 967,
								"contract": "MarketPlace.sol:NFTMarketplace",
								"label": "tokenId",
								"offset": 0,
								"slot": "1",
								"type": "t_uint256"
							},
							{
								"astId": 969,
								"contract": "MarketPlace.sol:NFTMarketplace",
								"label": "seller",
								"offset": 0,
								"slot": "2",
								"type": "t_address"
							},
							{
								"astId": 971,
								"contract": "MarketPlace.sol:NFTMarketplace",
								"label": "price",
								"offset": 0,
								"slot": "3",
								"type": "t_uint256"
							}
						],
						"numberOfBytes": "128"
					},
					"t_uint256": {
						"encoding": "inplace",
						"label": "uint256",
						"numberOfBytes": "32"
					}
				}
			},
			"userdoc": {
				"kind": "user",
				"methods": {},
				"version": 1
			}
		}
	}
}